{"abi":[{"type":"constructor","inputs":[{"name":"configFilePath","type":"string","internalType":"string"},{"name":"writeToFile","type":"bool","internalType":"bool"}],"stateMutability":"nonpayable"},{"type":"function","name":"exists","inputs":[{"name":"key","type":"string","internalType":"string"}],"outputs":[{"name":"","type":"bool","internalType":"bool"}],"stateMutability":"view"},{"type":"function","name":"exists","inputs":[{"name":"chain_id","type":"uint256","internalType":"uint256"},{"name":"key","type":"string","internalType":"string"}],"outputs":[{"name":"","type":"bool","internalType":"bool"}],"stateMutability":"view"},{"type":"function","name":"get","inputs":[{"name":"key","type":"string","internalType":"string"}],"outputs":[{"name":"","type":"tuple","internalType":"struct Variable","components":[{"name":"ty","type":"tuple","internalType":"struct Type","components":[{"name":"kind","type":"uint8","internalType":"enum TypeKind"},{"name":"isArray","type":"bool","internalType":"bool"}]},{"name":"data","type":"bytes","internalType":"bytes"}]}],"stateMutability":"view"},{"type":"function","name":"get","inputs":[{"name":"chain_id","type":"uint256","internalType":"uint256"},{"name":"key","type":"string","internalType":"string"}],"outputs":[{"name":"","type":"tuple","internalType":"struct Variable","components":[{"name":"ty","type":"tuple","internalType":"struct Type","components":[{"name":"kind","type":"uint8","internalType":"enum TypeKind"},{"name":"isArray","type":"bool","internalType":"bool"}]},{"name":"data","type":"bytes","internalType":"bytes"}]}],"stateMutability":"view"},{"type":"function","name":"getChainIds","inputs":[],"outputs":[{"name":"","type":"uint256[]","internalType":"uint256[]"}],"stateMutability":"view"},{"type":"function","name":"getRpcUrl","inputs":[],"outputs":[{"name":"","type":"string","internalType":"string"}],"stateMutability":"view"},{"type":"function","name":"getRpcUrl","inputs":[{"name":"chainId","type":"uint256","internalType":"uint256"}],"outputs":[{"name":"","type":"string","internalType":"string"}],"stateMutability":"view"},{"type":"function","name":"resolveChainId","inputs":[{"name":"aliasOrId","type":"string","internalType":"string"}],"outputs":[{"name":"","type":"uint256","internalType":"uint256"}],"stateMutability":"view"},{"type":"function","name":"set","inputs":[{"name":"chainId","type":"uint256","internalType":"uint256"},{"name":"key","type":"string","internalType":"string"},{"name":"value","type":"int256","internalType":"int256"}],"outputs":[],"stateMutability":"nonpayable"},{"type":"function","name":"set","inputs":[{"name":"chainId","type":"uint256","internalType":"uint256"},{"name":"key","type":"string","internalType":"string"},{"name":"value","type":"bytes32[]","internalType":"bytes32[]"}],"outputs":[],"stateMutability":"nonpayable"},{"type":"function","name":"set","inputs":[{"name":"chainId","type":"uint256","internalType":"uint256"},{"name":"key","type":"string","internalType":"string"},{"name":"value","type":"uint256","internalType":"uint256"}],"outputs":[],"stateMutability":"nonpayable"},{"type":"function","name":"set","inputs":[{"name":"key","type":"string","internalType":"string"},{"name":"value","type":"bytes","internalType":"bytes"}],"outputs":[],"stateMutability":"nonpayable"},{"type":"function","name":"set","inputs":[{"name":"key","type":"string","internalType":"string"},{"name":"value","type":"bytes32","internalType":"bytes32"}],"outputs":[],"stateMutability":"nonpayable"},{"type":"function","name":"set","inputs":[{"name":"key","type":"string","internalType":"string"},{"name":"value","type":"int256","internalType":"int256"}],"outputs":[],"stateMutability":"nonpayable"},{"type":"function","name":"set","inputs":[{"name":"chainId","type":"uint256","internalType":"uint256"},{"name":"key","type":"string","internalType":"string"},{"name":"value","type":"bytes","internalType":"bytes"}],"outputs":[],"stateMutability":"nonpayable"},{"type":"function","name":"set","inputs":[{"name":"key","type":"string","internalType":"string"},{"name":"value","type":"string[]","internalType":"string[]"}],"outputs":[],"stateMutability":"nonpayable"},{"type":"function","name":"set","inputs":[{"name":"chainId","type":"uint256","internalType":"uint256"},{"name":"key","type":"string","internalType":"string"},{"name":"value","type":"address","internalType":"address"}],"outputs":[],"stateMutability":"nonpayable"},{"type":"function","name":"set","inputs":[{"name":"chainId","type":"uint256","internalType":"uint256"},{"name":"key","type":"string","internalType":"string"},{"name":"value","type":"address[]","internalType":"address[]"}],"outputs":[],"stateMutability":"nonpayable"},{"type":"function","name":"set","inputs":[{"name":"chainId","type":"uint256","internalType":"uint256"},{"name":"key","type":"string","internalType":"string"},{"name":"value","type":"string","internalType":"string"}],"outputs":[],"stateMutability":"nonpayable"},{"type":"function","name":"set","inputs":[{"name":"key","type":"string","internalType":"string"},{"name":"value","type":"uint256[]","internalType":"uint256[]"}],"outputs":[],"stateMutability":"nonpayable"},{"type":"function","name":"set","inputs":[{"name":"key","type":"string","internalType":"string"},{"name":"value","type":"address[]","internalType":"address[]"}],"outputs":[],"stateMutability":"nonpayable"},{"type":"function","name":"set","inputs":[{"name":"key","type":"string","internalType":"string"},{"name":"value","type":"uint256","internalType":"uint256"}],"outputs":[],"stateMutability":"nonpayable"},{"type":"function","name":"set","inputs":[{"name":"chainId","type":"uint256","internalType":"uint256"},{"name":"key","type":"string","internalType":"string"},{"name":"value","type":"int256[]","internalType":"int256[]"}],"outputs":[],"stateMutability":"nonpayable"},{"type":"function","name":"set","inputs":[{"name":"chainId","type":"uint256","internalType":"uint256"},{"name":"key","type":"string","internalType":"string"},{"name":"value","type":"bytes[]","internalType":"bytes[]"}],"outputs":[],"stateMutability":"nonpayable"},{"type":"function","name":"set","inputs":[{"name":"key","type":"string","internalType":"string"},{"name":"value","type":"address","internalType":"address"}],"outputs":[],"stateMutability":"nonpayable"},{"type":"function","name":"set","inputs":[{"name":"chainId","type":"uint256","internalType":"uint256"},{"name":"key","type":"string","internalType":"string"},{"name":"value","type":"bool","internalType":"bool"}],"outputs":[],"stateMutability":"nonpayable"},{"type":"function","name":"set","inputs":[{"name":"key","type":"string","internalType":"string"},{"name":"value","type":"bool","internalType":"bool"}],"outputs":[],"stateMutability":"nonpayable"},{"type":"function","name":"set","inputs":[{"name":"key","type":"string","internalType":"string"},{"name":"value","type":"bytes[]","internalType":"bytes[]"}],"outputs":[],"stateMutability":"nonpayable"},{"type":"function","name":"set","inputs":[{"name":"chainId","type":"uint256","internalType":"uint256"},{"name":"key","type":"string","internalType":"string"},{"name":"value","type":"bytes32","internalType":"bytes32"}],"outputs":[],"stateMutability":"nonpayable"},{"type":"function","name":"set","inputs":[{"name":"chainId","type":"uint256","internalType":"uint256"},{"name":"key","type":"string","internalType":"string"},{"name":"value","type":"string[]","internalType":"string[]"}],"outputs":[],"stateMutability":"nonpayable"},{"type":"function","name":"set","inputs":[{"name":"chainId","type":"uint256","internalType":"uint256"},{"name":"key","type":"string","internalType":"string"},{"name":"value","type":"uint256[]","internalType":"uint256[]"}],"outputs":[],"stateMutability":"nonpayable"},{"type":"function","name":"set","inputs":[{"name":"key","type":"string","internalType":"string"},{"name":"value","type":"int256[]","internalType":"int256[]"}],"outputs":[],"stateMutability":"nonpayable"},{"type":"function","name":"set","inputs":[{"name":"chainId","type":"uint256","internalType":"uint256"},{"name":"key","type":"string","internalType":"string"},{"name":"value","type":"bool[]","internalType":"bool[]"}],"outputs":[],"stateMutability":"nonpayable"},{"type":"function","name":"set","inputs":[{"name":"key","type":"string","internalType":"string"},{"name":"value","type":"bytes32[]","internalType":"bytes32[]"}],"outputs":[],"stateMutability":"nonpayable"},{"type":"function","name":"set","inputs":[{"name":"key","type":"string","internalType":"string"},{"name":"value","type":"string","internalType":"string"}],"outputs":[],"stateMutability":"nonpayable"},{"type":"function","name":"set","inputs":[{"name":"key","type":"string","internalType":"string"},{"name":"value","type":"bool[]","internalType":"bool[]"}],"outputs":[],"stateMutability":"nonpayable"},{"type":"function","name":"writeUpdatesBackToFile","inputs":[{"name":"enabled","type":"bool","internalType":"bool"}],"outputs":[],"stateMutability":"nonpayable"},{"type":"error","name":"AlreadyInitialized","inputs":[{"name":"key","type":"string","internalType":"string"}]},{"type":"error","name":"ChainNotInitialized","inputs":[{"name":"chainId","type":"uint256","internalType":"uint256"}]},{"type":"error","name":"InvalidChainKey","inputs":[{"name":"aliasOrId","type":"string","internalType":"string"}]},{"type":"error","name":"TypeMismatch","inputs":[{"name":"expected","type":"string","internalType":"string"},{"name":"actual","type":"string","internalType":"string"}]},{"type":"error","name":"UnableToParseVariable","inputs":[{"name":"key","type":"string","internalType":"string"}]},{"type":"error","name":"WriteToFileInForbiddenCtxt","inputs":[]}],"bytecode":{"object":"0x6080604052346100305761001a610014610199565b90610bfd565b610022610035565b615de66139318239615de690f35b61003b565b60405190565b5f80fd5b601f801991011690565b634e487b7160e01b5f52604160045260245ffd5b906100679061003f565b810190811060018060401b0382111761007f57604052565b610049565b90610097610090610035565b928361005d565b565b5f80fd5b5f80fd5b5f80fd5b5f80fd5b60018060401b0381116100c5576100c160209161003f565b0190565b610049565b90825f9392825e0152565b909291926100ea6100e5826100a9565b610084565b9381855260208501908284011161010657610104926100ca565b565b6100a5565b9080601f8301121561012957816020610126935191016100d5565b90565b6100a1565b151590565b61013c8161012e565b0361014357565b5f80fd5b9050519061015482610133565b565b9190604083820312610194575f8301519060018060401b03821161018f576101838161018c93860161010b565b93602001610147565b90565b61009d565b610099565b6101b7619717803803806101ac81610084565b928339810190610156565b9091565b5f1c90565b90565b90565b6101da6101d56101df926101c0565b6101c3565b6101c0565b90565b6101ee6101f3916101bb565b6101c6565b90565b60018060a01b031690565b61021561021061021a926101c0565b6101c3565b6101f6565b90565b61023161022c610236926101f6565b6101c3565b6101f6565b90565b6102429061021d565b90565b61024e9061021d565b90565b61025a90610245565b90565b61029e61029961029461028f7f885cb69240a935d632d79c317109709ecfa91a80626ff3989d68f67f5b1dd12d6101e2565b610201565b610239565b610251565b90565b6102aa90610239565b90565b60e01b90565b906020828203126102cc576102c9915f01610147565b90565b610099565b634e487b7160e01b5f52602160045260245ffd5b600911156102ef57565b6102d1565b906102fe826102e5565b565b610309906102f4565b90565b61031590610300565b9052565b919061032c905f6020850194019061030c565b565b610336610035565b3d5f823e3d90fd5b5f0190565b634e487b7160e01b5f525f60045260245ffd5b5190565b634e487b7160e01b5f52602260045260245ffd5b906001600283049216801561038e575b602083101461038957565b61035a565b91607f169161037e565b5f5260205f2090565b601f602091010490565b1b90565b919060086103ca9102916103c45f19846103ab565b926103ab565b9181191691161790565b90565b91906103ed6103e86103f5936101c6565b6103d4565b9083546103af565b9055565b5f90565b61040f916104096103f9565b916103d7565b565b5b81811061041d575050565b8061042a5f6001936103fd565b01610412565b9190601f8111610440575b505050565b61044c61047193610398565b906020610458846103a1565b83019310610479575b61046a906103a1565b0190610411565b5f808061043b565b915061046a81929050610461565b1c90565b9061049b905f1990600802610487565b191690565b816104aa9161048b565b906002021790565b906104bc81610356565b9060018060401b03821161057a576104de826104d8855461036e565b85610430565b602090601f831160011461051257918091610501935f92610506575b50506104a0565b90555b565b90915001515f806104fa565b601f1983169161052185610398565b925f5b81811061056257509160029391856001969410610548575b50505002019055610504565b610558910151601f84169061048b565b90555f808061053c565b91936020600181928787015181550195019201610524565b610049565b90610589916104b2565b565b5f1b90565b9061059c60ff9161058b565b9181191691161790565b6105af9061012e565b90565b90565b906105ca6105c56105d1926105a6565b6105b2565b8254610590565b9055565b90602082820312610603575f82015160018060401b0381116105fe576105fb920161010b565b90565b61009d565b610099565b60209181520190565b61063061063960209361063e9361062781610356565b93848093610608565b958691016100ca565b61003f565b0190565b6106579160208201915f818403910152610611565b90565b60018060401b0381116106705760208091020190565b610049565b5f80fd5b92919061068d6106888261065a565b610084565b93818552602080860192028101918383116106e25781905b8382106106b3575050505050565b815160018060401b0381116106dd576020916106d2878493870161010b565b8152019101906106a5565b6100a1565b610675565b9080601f830112156107055781602061070293519101610679565b90565b6100a1565b90602082820312610738575f82015160018060401b0381116107335761073092016106e7565b90565b61009d565b610099565b5f7f2400000000000000000000000000000000000000000000000000000000000000910152565b6107716001602092610608565b61077a8161073d565b0190565b6107966107a49260408301908382035f850152610611565b906020818303910152610764565b90565b90565b6107be6107b96107c3926107a7565b6101c3565b6101c0565b90565b60016107d291016101c0565b90565b5190565b634e487b7160e01b5f52603260045260245ffd5b906107f7826107d5565b811015610808576020809102010190565b6107d9565b7f242e0000000000000000000000000000000000000000000000000000000000009052565b905090565b61085c6108539260209261084a81610356565b94858093610832565b938491016100ca565b0190565b906002610877926108708161080d565b0190610837565b90565b906108a2610886610035565b8093610896602083019182610860565b9081038252038361005d565b565b90916108be6108cc9360408401908482035f860152610611565b916020818403910152610611565b90565b90565b5f5260205f2090565b5490565b6108e8816108db565b821015610902576108fa6001916108d2565b910201905f90565b6107d9565b919061091857610916916104b2565b565b610343565b908154916801000000000000000083101561094d578261094591600161094b950181556108df565b90610907565b565b610049565b7f2e656e64706f696e745f75726c000000000000000000000000000000000000009052565b600d916002610990926109898161080d565b0190610837565b61099981610952565b0190565b906109c56109a9610035565b80936109b9602083019182610977565b9081038252038361005d565b565b906109d1906101c6565b5f5260205260405f2090565b90565b60ff1690565b6109fa6109f56109ff926109dd565b6101c3565b6109e0565b90565b634e487b7160e01b5f52601160045260245ffd5b610a1f906109e0565b60ff8114610a2d5760010190565b610a02565b90565b610a49610a44610a4e92610a32565b6101c3565b6109e0565b90565b610a5b6007610a35565b90565b60081115610a6857565b6102d1565b90610a7782610a5e565b565b610a8d610a88610a92926109e0565b6101c3565b610a6d565b90565b7f2e000000000000000000000000000000000000000000000000000000000000009052565b610ad7610ae793926002600193610ad08161080d565b0190610837565b610ae081610a95565b0190610837565b90565b610b099291610b1591610afb610035565b948592602084019283610aba565b9081038252038361005d565b565b90610b21906101c6565b5f5260205260405f2090565b90565b610b3c610b41916101c0565b610b2d565b9052565b610b55610b5c9160209493610837565b8092610b30565b0190565b610b74610b6b610035565b92839283610b45565b03902090565b610b8391610b60565b90565b60ff1690565b610b98610b9d916101bb565b610b86565b90565b610baa9054610b8c565b90565b610bbd600191610bcd9493610837565b610bc681610a95565b0190610837565b90565b610bef9291610bfb91610be1610035565b948592602084019283610bad565b9081038252038361005d565b565b9080806112b3575b61129757610c1e90610c17835f61057f565b60056105b5565b610c6f610c31610c2c61025d565b6102a1565b5f63ddd2128d93610c48610c4361025d565b6102a1565b610c646360f9bb11610c58610035565b968794859384936102ad565b835260048301610642565b03915afa90811561129257610cac935f938493611268575b5083610ca191610c95610035565b968795869485936102ad565b835260048301610642565b03925af1908115611263575f91611241575b5090610cfe5f610cd4610ccf61025d565b6102a1565b63812a44b290610cf38692610ce7610035565b958694859384936102ad565b83526004830161077e565b03915afa90811561123c575f9161121a575b5090610d1b5f6107aa565b915b82610d38610d32610d2d846107d5565b6101c0565b916101c0565b101561121457610d498184906107ed565b5190610d5b610d5661025d565b6102a1565b5f63812a44b2918790610d88610d708761087a565b94610d93610d7c610035565b968795869485946102ad565b8452600484016108a4565b03915afa801561120f57610dae915f916111ed575b506107d5565b610dc0610dba5f6107aa565b916101c0565b146111e157610dce82611476565b92610de3610ddc60016108cf565b849061091d565b610df3610dee61025d565b6102a1565b5f638bb8dd43918890610e20610e088861099d565b94610e2b610e14610035565b968795869485946102ad565b8452600484016108a4565b03915afa80915f926111bd575b50155f1461112d5750600161101a575b5b610e5360016109e6565b5b80610e6e610e68610e63610a51565b6109e0565b916109e0565b1161100357610e7c81610a79565b610e8f85610e8983611848565b90610aea565b90610ea0610e9b61025d565b6102a1565b5f63812a44b2918b90610ec58694610ed0610eb9610035565b968795869485946102ad565b8452600484016108a4565b03915afa80915f92610fdf575b50155f14610f0357505050610ef9906001610efe575b5b610a16565b610e54565b610ef3565b97919694939095929793610f165f6107aa565b5b80610f32610f2c610f27896107d5565b6101c0565b916101c0565b1015610fcd57610f438682906107ed565b51610f645f610f5e610f5760048c90610b17565b8490610b7a565b01610ba0565b610f76610f705f610a6d565b91610a6d565b145f14610fa75790610f9d610fa2928d90610f928d8290610bd0565b908b90918d936127c3565b6107c6565b610f17565b610fc990610fb3610035565b91829163038a07f760e51b835260048301610642565b0390fd5b50949650925095610ef9919450610ef4565b610ffc9192503d805f833e610ff4818361005d565b81019061070a565b905f610edd565b509390925061101391505b6107c6565b9190610d1d565b61102a61102561025d565b6102a1565b61106e63ddd2128d915f61104461103f61025d565b6102a1565b63975a6ce9906110638992611057610035565b968794859384936102ad565b835260048301610642565b03915afa908115611128576110ab935f9384936110fe575b50836110a091611094610035565b968795869485936102ad565b835260048301610642565b03925af180156110f9576110d2915f916110d7575b506110cd600287906109c7565b61057f565b610e48565b6110f391503d805f833e6110eb818361005d565b8101906105d5565b5f6110c0565b61032e565b6110a091935061112085913d8084833e611118818361005d565b8101906105d5565b939150611086565b61032e565b5f61116a9161114261113d61025d565b6102a1565b61115f8363ddd2128d611153610035565b968795869485936102ad565b835260048301610642565b03925af180156111b857611191915f91611196575b5061118c600287906109c7565b61057f565b610e49565b6111b291503d805f833e6111aa818361005d565b8101906105d5565b5f61117f565b61032e565b6111da9192503d805f833e6111d2818361005d565b8101906105d5565b905f610e38565b9192611013915061100e565b61120991503d805f833e611201818361005d565b81019061070a565b5f610da8565b61032e565b50915050565b61123691503d805f833e61122e818361005d565b81019061070a565b5f610d10565b61032e565b61125d91503d805f833e611255818361005d565b8101906105d5565b5f610cbe565b61032e565b610ca191935061128a85913d8084833e611282818361005d565b8101906105d5565b939150610c87565b61032e565b5f6305d79a4360e31b8152806112af6004820161033e565b0390fd5b506112f460206112c96112c461025d565b6102a1565b6364af255d906112e96004926112dd610035565b958694859384936102ad565b835260048301610319565b03915afa801561134357611310915f91611315575b501561012e565b610c05565b611336915060203d811161133c575b61132e818361005d565b8101906102b3565b5f611309565b503d611324565b61032e565b611351816101c0565b0361135857565b5f80fd5b9050519061136982611348565b565b9060208282031261138457611381915f0161135c565b90565b610099565b5f80fd5b5f80fd5b919091608081840312611431576113a86080610084565b925f82015160018060401b03811161142c57816113c691840161010b565b5f8501526113d7816020840161135c565b6020850152604082015160018060401b03811161142757816113fa91840161010b565b6040850152606082015160018060401b0381116114225761141b920161010b565b6060830152565b61138d565b61138d565b61138d565b611389565b90602082820312611464575f82015160018060401b03811161145f5761145c9201611391565b90565b61009d565b610099565b61147390516101c0565b90565b9061147f6103f9565b916114bf602061149561149061025d565b6102a1565b63fa91454d906114b485926114a8610035565b958694859384936102ad565b835260048301610642565b03915afa80915f926115a4575b50155f1461159d575060016114df575b50565b61151d5f6114f36114ee61025d565b6102a1565b634cc1c2bb906115128592611506610035565b958694859384936102ad565b835260048301610642565b03915afa80915f92611579575b50155f146115665750600161154057505f6114dc565b6115629061154c610035565b9182916397aa94df60e01b835260048301610642565b0390fd5b6115769293506020915001611469565b90565b6115969192503d805f833e61158e818361005d565b810190611436565b905f61152a565b9192505090565b6115c691925060203d81116115cd575b6115be818361005d565b81019061136b565b905f6114cc565b503d6115b4565b606090565b906115eb6115e6836100a9565b610084565b918252565b5f7f626f6f6c00000000000000000000000000000000000000000000000000000000910152565b61162160046115d9565b9061162e602083016115f0565b565b611638611617565b90565b5f7f6164647265737300000000000000000000000000000000000000000000000000910152565b61166c60076115d9565b906116796020830161163b565b565b611683611662565b90565b5f7f6279746573333200000000000000000000000000000000000000000000000000910152565b6116b760076115d9565b906116c460208301611686565b565b6116ce6116ad565b90565b5f7f75696e7400000000000000000000000000000000000000000000000000000000910152565b61170260046115d9565b9061170f602083016116d1565b565b6117196116f8565b90565b5f7f696e740000000000000000000000000000000000000000000000000000000000910152565b61174d60036115d9565b9061175a6020830161171c565b565b611764611743565b90565b5f7f737472696e670000000000000000000000000000000000000000000000000000910152565b61179860066115d9565b906117a560208301611767565b565b6117af61178e565b90565b5f7f6279746573000000000000000000000000000000000000000000000000000000910152565b6117e360056115d9565b906117f0602083016117b2565b565b6117fa6117d9565b90565b5f7f6e6f6e6500000000000000000000000000000000000000000000000000000000910152565b61182e60046115d9565b9061183b602083016117fd565b565b611845611824565b90565b6118506115d4565b508061186561185f6001610a6d565b91610a6d565b14611951578061187e6118786002610a6d565b91610a6d565b1461194557806118976118916003610a6d565b91610a6d565b1461193957806118b06118aa6004610a6d565b91610a6d565b1461192d57806118c96118c36005610a6d565b91610a6d565b1461192157806118e26118dc6006610a6d565b91610a6d565b14611915576118fa6118f46007610a6d565b91610a6d565b1461190a5761190761183d565b90565b6119126117f2565b90565b5061191e6117a7565b90565b5061192a61175c565b90565b50611936611711565b90565b506119426116c6565b90565b5061194e61167b565b90565b5061195a611630565b90565b90611967906101c6565b5f5260205260405f2090565b61197c91610b60565b90565b5190565b5f5260205f2090565b9190601f811161199c575b505050565b6119a86119cd93611983565b9060206119b4846103a1565b830193106119d5575b6119c6906103a1565b0190610411565b5f8080611997565b91506119c6819290506119bd565b906119ed8161197f565b9060018060401b038211611aab57611a0f82611a09855461036e565b8561198c565b602090601f8311600114611a4357918091611a32935f92611a37575b50506104a0565b90555b565b90915001515f80611a2b565b601f19831691611a5285611983565b925f5b818110611a9357509160029391856001969410611a79575b50505002019055611a35565b611a89910151601f84169061048b565b90555f8080611a6d565b91936020600181928787015181550195019201611a55565b610049565b90611aba916119e3565b565b611ac66040610084565b90565b90611ad390610a6d565b9052565b90611ae19061012e565b9052565b611aef9051610a6d565b90565b611afb90610a6d565b90565b90565b90611b16611b11611b1d92611af2565b611afe565b8254610590565b9055565b611b2b905161012e565b90565b60081b90565b90611b4161ff0091611b2e565b9181191691161790565b90611b60611b5b611b67926105a6565b6105b2565b8254611b34565b9055565b90611b9560205f611b9b94611b8d828201611b87848801611ae5565b90611b01565b019201611b21565b90611b4b565b565b90611ba791611b6b565b565b60209181520190565b60200190565b60209181520190565b611be0611be9602093611bee93611bd781610356565b93848093611bb8565b958691016100ca565b61003f565b0190565b90611bfc91611bc1565b90565b60200190565b90611c19611c12836107d5565b8092611ba9565b9081611c2a60208302840194611bb2565b925f915b838310611c3d57505050505090565b90919293946020611c5f611c5983856001950387528951611bf2565b97611bff565b9301930191939290611c2e565b611c819160208201915f818403910152611c05565b90565b60018060401b038111611ca057611c9c60209161003f565b0190565b610049565b90929192611cba611cb582611c84565b610084565b93818552602085019082840111611cd657611cd4926100ca565b565b6100a5565b9080601f83011215611cf957816020611cf693519101611ca5565b90565b6100a1565b90602082820312611d2c575f82015160018060401b038111611d2757611d249201611cdb565b90565b61009d565b610099565b60209181520190565b611d59611d62602093611d6793611d508161197f565b93848093611d31565b958691016100ca565b61003f565b0190565b611d809160208201915f818403910152611d3a565b90565b60018060401b038111611d995760208091020190565b610049565b929190611db2611dad82611d83565b610084565b9381855260208086019202810191838311611e075781905b838210611dd8575050505050565b815160018060401b038111611e0257602091611df78784938701611cdb565b815201910190611dca565b6100a1565b610675565b9080601f83011215611e2a57816020611e2793519101611d9e565b90565b6100a1565b90602082820312611e5d575f82015160018060401b038111611e5857611e559201611e0c565b90565b61009d565b610099565b5190565b60209181520190565b60200190565b60209181520190565b611e9d611ea6602093611eab93611e948161197f565b93848093611e75565b958691016100ca565b61003f565b0190565b90611eb991611e7e565b90565b60200190565b90611ed6611ecf83611e62565b8092611e66565b9081611ee760208302840194611e6f565b925f915b838310611efa57505050505090565b90919293946020611f1c611f1683856001950387528951611eaf565b97611ebc565b9301930191939290611eeb565b611f3e9160208201915f818403910152611ec2565b90565b90565b611f4d81611f41565b03611f5457565b5f80fd5b90505190611f6582611f44565b565b90602082820312611f8057611f7d915f01611f58565b90565b610099565b611f8e90611f41565b9052565b9190611fa5905f60208501940190611f85565b565b60018060401b038111611fbd5760208091020190565b610049565b90929192611fd7611fd282611fa7565b610084565b938185526020808601920283019281841161201457915b838310611ffb5750505050565b602080916120098486611f58565b815201920191611fee565b610675565b9080601f830112156120375781602061203493519101611fc2565b90565b6100a1565b9060208282031261206a575f82015160018060401b038111612065576120629201612019565b90565b61009d565b610099565b5190565b60209181520190565b60200190565b61208b90611f41565b9052565b9061209c81602093612082565b0190565b60200190565b906120c36120bd6120b68461206f565b8093612073565b9261207c565b905f5b8181106120d35750505090565b9091926120ec6120e6600192865161208f565b946120a0565b91019190916120c6565b61210b9160208201915f8184039101526120a6565b90565b612117906101c0565b9052565b919061212e905f6020850194019061210e565b565b60018060401b0381116121465760208091020190565b610049565b9092919261216061215b82612130565b610084565b938185526020808601920283019281841161219d57915b8383106121845750505050565b60208091612192848661135c565b815201920191612177565b610675565b9080601f830112156121c0578160206121bd9351910161214b565b90565b6100a1565b906020828203126121f3575f82015160018060401b0381116121ee576121eb92016121a2565b90565b61009d565b610099565b5190565b60209181520190565b60200190565b612214906101c0565b9052565b906122258160209361220b565b0190565b60200190565b9061224c61224661223f846121f8565b80936121fc565b92612205565b905f5b81811061225c5750505090565b90919261227561226f6001928651612218565b94612229565b910191909161224f565b6122949160208201915f81840391015261222f565b90565b90565b6122a381612297565b036122aa57565b5f80fd5b905051906122bb8261229a565b565b906020828203126122d6576122d3915f016122ae565b90565b610099565b6122e490612297565b9052565b91906122fb905f602085019401906122db565b565b60018060401b0381116123135760208091020190565b610049565b9092919261232d612328826122fd565b610084565b938185526020808601920283019281841161236a57915b8383106123515750505050565b6020809161235f84866122ae565b815201920191612344565b610675565b9080601f8301121561238d5781602061238a93519101612318565b90565b6100a1565b906020828203126123c0575f82015160018060401b0381116123bb576123b8920161236f565b90565b61009d565b610099565b5190565b60209181520190565b60200190565b6123e190612297565b9052565b906123f2816020936123d8565b0190565b60200190565b9061241961241361240c846123c5565b80936123c9565b926123d2565b905f5b8181106124295750505090565b90919261244261243c60019286516123e5565b946123f6565b910191909161241c565b6124619160208201915f8184039101526123fc565b90565b61246d906101f6565b90565b61247981612464565b0361248057565b5f80fd5b9050519061249182612470565b565b906020828203126124ac576124a9915f01612484565b90565b610099565b6124ba90612464565b9052565b91906124d1905f602085019401906124b1565b565b60018060401b0381116124e95760208091020190565b610049565b909291926125036124fe826124d3565b610084565b938185526020808601920283019281841161254057915b8383106125275750505050565b602080916125358486612484565b81520192019161251a565b610675565b9080601f8301121561256357816020612560935191016124ee565b90565b6100a1565b90602082820312612596575f82015160018060401b0381116125915761258e9201612545565b90565b61009d565b610099565b5190565b60209181520190565b60200190565b6125b790612464565b9052565b906125c8816020936125ae565b0190565b60200190565b906125ef6125e96125e28461259b565b809361259f565b926125a8565b905f5b8181106125ff5750505090565b90919261261861261260019286516125bb565b946125cc565b91019190916125f2565b6126379160208201915f8184039101526125d2565b90565b6126439061012e565b9052565b919061265a905f6020850194019061263a565b565b60018060401b0381116126725760208091020190565b610049565b9092919261268c6126878261265c565b610084565b93818552602080860192028301928184116126c957915b8383106126b05750505050565b602080916126be8486610147565b8152019201916126a3565b610675565b9080601f830112156126ec578160206126e993519101612677565b90565b6100a1565b9060208282031261271f575f82015160018060401b03811161271a5761271792016126ce565b90565b61009d565b610099565b5190565b60209181520190565b60200190565b6127409061012e565b9052565b9061275181602093612737565b0190565b60200190565b9061277861277261276b84612724565b8093612728565b92612731565b905f5b8181106127885750505090565b9091926127a161279b6001928651612744565b94612755565b910191909161277b565b6127c09160208201915f81840391015261275b565b90565b909392935f93806127dd6127d76001610a6d565b91610a6d565b145f14612a6f57506127f56127f061025d565b6102a1565b602063d30dced691849061281b859461282661280f610035565b968795869485946102ad565b8452600484016108a4565b03915afa80915f92612a3f575b50155f146129a75750600161287f575b505050612852905b5b1561012e565b6128595750565b61287b90612865610035565b91829163ea00fa1360e01b835260048301610642565b0390fd5b5f9061289161288c61025d565b6102a1565b6128b363127cfe9a9492946128be6128a7610035565b968795869485946102ad565b8452600484016108a4565b03915afa80915f92612983575b50155f146128ee5750506128529060016128e9575b5b905f80612843565b6128e0565b612979925061291161292061293b92612905610035565b928391602083016127ab565b6020820181038252038261005d565b61293661292f6003859061195d565b8690611973565b611ab0565b61297461296d600192612966600161295d612954611abc565b965f8801611ac9565b60208601611ad7565b6004610b17565b8490610b7a565b611b9d565b61285260016128e1565b6129a09192503d805f833e612998818361005d565b8101906126f1565b905f6128cb565b612a3594506129f892506129ce91506129dd906129c2610035565b92839160208301612647565b6020820181038252038261005d565b6129f36129ec6003859061195d565b8690611973565b611ab0565b612a30612a29600192612a225f612a19612a10611abc565b965f8801611ac9565b60208601611ad7565b6004610b17565b8490610b7a565b611b9d565b612852600161284b565b612a6191925060203d8111612a68575b612a59818361005d565b8101906102b3565b905f612833565b503d612a4f565b80612a83612a7d6002610a6d565b91610a6d565b145f14612ce75750612a9b612a9661025d565b6102a1565b60206365e7c844918490612ac18594612acc612ab5610035565b968795869485946102ad565b8452600484016108a4565b03915afa80915f92612cb7575b50155f14612c1f57506001612af7575b505050612852905b5b61284c565b5f90612b09612b0461025d565b6102a1565b612b2b6365c428e7949294612b36612b1f610035565b968795869485946102ad565b8452600484016108a4565b03915afa80915f92612bfb575b50155f14612b66575050612852906001612b61575b5b905f80612ae9565b612b58565b612bf19250612b89612b98612bb392612b7d610035565b92839160208301612622565b6020820181038252038261005d565b612bae612ba76003859061195d565b8690611973565b611ab0565b612bec612be5600292612bde6001612bd5612bcc611abc565b965f8801611ac9565b60208601611ad7565b6004610b17565b8490610b7a565b611b9d565b6128526001612b59565b612c189192503d805f833e612c10818361005d565b810190612568565b905f612b43565b612cad9450612c709250612c469150612c5590612c3a610035565b928391602083016124be565b6020820181038252038261005d565b612c6b612c646003859061195d565b8690611973565b611ab0565b612ca8612ca1600292612c9a5f612c91612c88611abc565b965f8801611ac9565b60208601611ad7565b6004610b17565b8490610b7a565b611b9d565b6128526001612af1565b612cd991925060203d8111612ce0575b612cd1818361005d565b810190612493565b905f612ad9565b503d612cc7565b80612cfb612cf56003610a6d565b91610a6d565b145f14612f5f5750612d13612d0e61025d565b6102a1565b6020638e214810918490612d398594612d44612d2d610035565b968795869485946102ad565b8452600484016108a4565b03915afa80915f92612f2f575b50155f14612e9757506001612d6f575b505050612852905b5b612af2565b5f90612d81612d7c61025d565b6102a1565b612da3633e716f81949294612dae612d97610035565b968795869485946102ad565b8452600484016108a4565b03915afa80915f92612e73575b50155f14612dde575050612852906001612dd9575b5b905f80612d61565b612dd0565b612e699250612e01612e10612e2b92612df5610035565b9283916020830161244c565b6020820181038252038261005d565b612e26612e1f6003859061195d565b8690611973565b611ab0565b612e64612e5d600392612e566001612e4d612e44611abc565b965f8801611ac9565b60208601611ad7565b6004610b17565b8490610b7a565b611b9d565b6128526001612dd1565b612e909192503d805f833e612e88818361005d565b810190612392565b905f612dbb565b612f259450612ee89250612ebe9150612ecd90612eb2610035565b928391602083016122e8565b6020820181038252038261005d565b612ee3612edc6003859061195d565b8690611973565b611ab0565b612f20612f19600392612f125f612f09612f00611abc565b965f8801611ac9565b60208601611ad7565b6004610b17565b8490610b7a565b611b9d565b6128526001612d69565b612f5191925060203d8111612f58575b612f49818361005d565b8101906122bd565b905f612d51565b503d612f3f565b80612f73612f6d6004610a6d565b91610a6d565b145f146131d75750612f8b612f8661025d565b6102a1565b602063cc7b0487918490612fb18594612fbc612fa5610035565b968795869485946102ad565b8452600484016108a4565b03915afa80915f926131a7575b50155f1461310f57506001612fe7575b505050612852905b5b612d6a565b5f90612ff9612ff461025d565b6102a1565b61301b63b5df27c894929461302661300f610035565b968795869485946102ad565b8452600484016108a4565b03915afa80915f926130eb575b50155f14613056575050612852906001613051575b5b905f80612fd9565b613048565b6130e192506130796130886130a39261306d610035565b9283916020830161227f565b6020820181038252038261005d565b61309e6130976003859061195d565b8690611973565b611ab0565b6130dc6130d56004926130ce60016130c56130bc611abc565b965f8801611ac9565b60208601611ad7565b6004610b17565b8490610b7a565b611b9d565b6128526001613049565b6131089192503d805f833e613100818361005d565b8101906121c5565b905f613033565b61319d9450613160925061313691506131459061312a610035565b9283916020830161211b565b6020820181038252038261005d565b61315b6131546003859061195d565b8690611973565b611ab0565b61319861319160049261318a5f613181613178611abc565b965f8801611ac9565b60208601611ad7565b6004610b17565b8490610b7a565b611b9d565b6128526001612fe1565b6131c991925060203d81116131d0575b6131c1818361005d565b81019061136b565b905f612fc9565b503d6131b7565b806131eb6131e56005610a6d565b91610a6d565b145f1461344f57506132036131fe61025d565b6102a1565b602063c1350739918490613229859461323461321d610035565b968795869485946102ad565b8452600484016108a4565b03915afa80915f9261341f575b50155f146133875750600161325f575b505050612852905b5b612fe2565b5f9061327161326c61025d565b6102a1565b61329363d3522ae694929461329e613287610035565b968795869485946102ad565b8452600484016108a4565b03915afa80915f92613363575b50155f146132ce5750506128529060016132c9575b5b905f80613251565b6132c0565b61335992506132f161330061331b926132e5610035565b928391602083016120f6565b6020820181038252038261005d565b61331661330f6003859061195d565b8690611973565b611ab0565b61335461334d600592613346600161333d613334611abc565b965f8801611ac9565b60208601611ad7565b6004610b17565b8490610b7a565b611b9d565b61285260016132c1565b6133809192503d805f833e613378818361005d565b81019061203c565b905f6132ab565b61341594506133d892506133ae91506133bd906133a2610035565b92839160208301611f92565b6020820181038252038261005d565b6133d36133cc6003859061195d565b8690611973565b611ab0565b6134106134096005926134025f6133f96133f0611abc565b965f8801611ac9565b60208601611ad7565b6004610b17565b8490610b7a565b611b9d565b6128526001613259565b61344191925060203d8111613448575b613439818361005d565b810190611f67565b905f613241565b503d61342f565b8061346361345d6007610a6d565b91610a6d565b145f146136ba575061347b61347661025d565b6102a1565b5f63d77bfdb99184906134a085946134ab613494610035565b968795869485946102ad565b8452600484016108a4565b03915afa80915f92613696575b50155f146135fe575060016134d6575b505050612852905b5b61325a565b5f906134e86134e361025d565b6102a1565b61350a63b197c2479492946135156134fe610035565b968795869485946102ad565b8452600484016108a4565b03915afa80915f926135da575b50155f14613545575050612852906001613540575b5b905f806134c8565b613537565b6135d092506135686135776135929261355c610035565b92839160208301611f29565b6020820181038252038261005d565b61358d6135866003859061195d565b8690611973565b611ab0565b6135cb6135c46007926135bd60016135b46135ab611abc565b965f8801611ac9565b60208601611ad7565b6004610b17565b8490610b7a565b611b9d565b6128526001613538565b6135f79192503d805f833e6135ef818361005d565b810190611e2f565b905f613522565b61368c945061364f9250613625915061363490613619610035565b92839160208301611d6b565b6020820181038252038261005d565b61364a6136436003859061195d565b8690611973565b611ab0565b6136876136806007926136795f613670613667611abc565b965f8801611ac9565b60208601611ad7565b6004610b17565b8490610b7a565b611b9d565b61285260016134d0565b6136b39192503d805f833e6136ab818361005d565b810190611cfe565b905f6134b8565b6136cd6136c76006610a6d565b91610a6d565b146136df575b505050612852906134d1565b6136ef6136ea61025d565b6102a1565b5f638bb8dd43918490613714859461371f613708610035565b968795869485946102ad565b8452600484016108a4565b03915afa80915f9261390c575b50155f146138745750600161374c575b505050612852905b905f806136d3565b5f9061375e61375961025d565b6102a1565b613780639f62928194929461378b613774610035565b968795869485946102ad565b8452600484016108a4565b03915afa80915f92613850575b50155f146137bb5750506128529060016137b6575b5b905f8061373c565b6137ad565b61384692506137de6137ed613808926137d2610035565b92839160208301611c6c565b6020820181038252038261005d565b6138036137fc6003859061195d565b8690611973565b611ab0565b61384161383a600692613833600161382a613821611abc565b965f8801611ac9565b60208601611ad7565b6004610b17565b8490610b7a565b611b9d565b61285260016137ae565b61386d9192503d805f833e613865818361005d565b81019061070a565b905f613798565b61390294506138c5925061389b91506138aa9061388f610035565b92839160208301610642565b6020820181038252038261005d565b6138c06138b96003859061195d565b8690611973565b611ab0565b6138fd6138f66006926138ef5f6138e66138dd611abc565b965f8801611ac9565b60208601611ad7565b6004610b17565b8490610b7a565b611b9d565b6128526001613744565b6139299192503d805f833e613921818361005d565b8101906105d5565b905f61372c56fe60806040526004361015610013575b611d9c565b61001d5f3561026c565b806307d79d9a1461026757806308f7b4b2146102625780631d7763231461025d57806322dc48fd14610258578063261a323e146102535780632b29c0fa1461024e5780632e3196a5146102495780632ef8ba74146102445780633f3a75881461023f57806343d9eb7b1461023a57806343ec8b6a146102355780634d85ce801461023057806359b395261461022b5780635eba0df01461022657806361141c9714610221578063655609501461021c578063693ec85e146102175780637b8fed81146102125780637df3ef121461020d578063805da4ad1461020857806388c63d45146102035780638a42ebe9146101fe5780638be19924146101f957806393dbe6e0146101f4578063a815ff15146101ef578063b3a64001146101ea578063ba0ff22c146101e5578063c91ca7ba146101e0578063cf1cfa99146101db578063cf72a2f3146101d6578063d6698dc4146101d1578063db0075df146101cc578063de0fc9b3146101c7578063e298d00b146101c2578063e6053250146101bd578063e942b516146101b85763fa3c074a0361000e57611d68565b611cd7565b611c46565b611bb5565b611a81565b6119f0565b611954565b611902565b611865565b6117de565b61174d565b6116d4565b61162a565b6115b1565b611464565b611330565b6112b7565b611224565b6111ef565b61119d565b611074565b610f43565b610ea6565b610d72565b610cb1565b610b70565b610ad2565b610a3b565b6109c1565b61096b565b6108f2565b610879565b61076b565b6106db565b610653565b610571565b610413565b60e01c90565b60405190565b5f80fd5b5f80fd5b5f80fd5b90565b61029081610284565b0361029757565b5f80fd5b905035906102a882610287565b565b5f80fd5b5f80fd5b601f801991011690565b634e487b7160e01b5f52604160045260245ffd5b906102da906102b2565b810190811067ffffffffffffffff8211176102f457604052565b6102bc565b9061030c610305610272565b92836102d0565b565b67ffffffffffffffff811161032c576103286020916102b2565b0190565b6102bc565b90825f939282370152565b9092919261035161034c8261030e565b6102f9565b9381855260208501908284011161036d5761036b92610331565b565b6102ae565b9080601f830112156103905781602061038d9335910161033c565b90565b6102aa565b90565b6103a181610395565b036103a857565b5f80fd5b905035906103b982610398565b565b9091606082840312610409576103d3835f840161029b565b9260208301359067ffffffffffffffff8211610404576103f881610401938601610372565b936040016103ac565b90565b610280565b61027c565b5f0190565b346104425761042c6104263660046103bb565b9161227b565b610434610272565b8061043e8161040e565b0390f35b610278565b67ffffffffffffffff811161045f5760208091020190565b6102bc565b5f80fd5b90565b61047481610468565b0361047b57565b5f80fd5b9050359061048c8261046b565b565b909291926104a361049e82610447565b6102f9565b93818552602080860192028301928184116104e057915b8383106104c75750505050565b602080916104d5848661047f565b8152019201916104ba565b610464565b9080601f83011215610503578160206105009335910161048e565b90565b6102aa565b9160608383031261056c5761051f825f850161029b565b92602081013567ffffffffffffffff81116105675783610540918301610372565b92604082013567ffffffffffffffff81116105625761055f92016104e5565b90565b610280565b610280565b61027c565b346105a05761058a610584366004610508565b916126a6565b610592610272565b8061059c8161040e565b0390f35b610278565b5f9103126105af57565b61027c565b5190565b60209181520190565b60200190565b6105d090610284565b9052565b906105e1816020936105c7565b0190565b60200190565b906106086106026105fb846105b4565b80936105b8565b926105c1565b905f5b8181106106185750505090565b90919261063161062b60019286516105d4565b946105e5565b910191909161060b565b6106509160208201915f8184039101526105eb565b90565b34610683576106633660046105a5565b61067f61066e612a8b565b610676610272565b9182918261063b565b0390f35b610278565b90916060828403126106d6576106a0835f840161029b565b9260208301359067ffffffffffffffff82116106d1576106c5816106ce938601610372565b9360400161029b565b90565b610280565b61027c565b3461070a576106f46106ee366004610688565b91612b17565b6106fc610272565b806107068161040e565b0390f35b610278565b9060208282031261073f575f82013567ffffffffffffffff811161073a576107379201610372565b90565b610280565b61027c565b151590565b61075290610744565b9052565b9190610769905f60208501940190610749565b565b3461079b5761079761078661078136600461070f565b612c75565b61078e610272565b91829182610756565b0390f35b610278565b67ffffffffffffffff81116107be576107ba6020916102b2565b0190565b6102bc565b909291926107d86107d3826107a0565b6102f9565b938185526020850190828401116107f4576107f292610331565b565b6102ae565b9080601f8301121561081757816020610814933591016107c3565b90565b6102aa565b919091604081840312610874575f81013567ffffffffffffffff811161086f5783610848918301610372565b92602082013567ffffffffffffffff811161086a5761086792016107f9565b90565b610280565b610280565b61027c565b346108a85761089261088c36600461081c565b90612d0f565b61089a610272565b806108a48161040e565b0390f35b610278565b91906040838203126108ed575f8301359067ffffffffffffffff82116108e8576108dc816108e5938601610372565b9360200161047f565b90565b610280565b61027c565b346109215761090b6109053660046108ad565b90612da0565b610913610272565b8061091d8161040e565b0390f35b610278565b9190604083820312610966575f8301359067ffffffffffffffff8211610961576109558161095e938601610372565b936020016103ac565b90565b610280565b61027c565b3461099a5761098461097e366004610926565b90612e31565b61098c610272565b806109968161040e565b0390f35b610278565b6109a890610284565b9052565b91906109bf905f6020850194019061099f565b565b346109f1576109ed6109dc6109d736600461070f565b612fb7565b6109e4610272565b918291826109ac565b0390f35b610278565b919091604081840312610a3657610a0f835f830161029b565b92602082013567ffffffffffffffff8111610a3157610a2e9201610372565b90565b610280565b61027c565b34610a6c57610a68610a57610a513660046109f6565b90613122565b610a5f610272565b91829182610756565b0390f35b610278565b5190565b60209181520190565b90825f9392825e0152565b610aa8610ab1602093610ab693610a9f81610a71565b93848093610a75565b95869101610a7e565b6102b2565b0190565b610acf9160208201915f818403910152610a89565b90565b34610b0257610ae23660046105a5565b610afe610aed613178565b610af5610272565b91829182610aba565b0390f35b610278565b91606083830312610b6b57610b1e825f850161029b565b92602081013567ffffffffffffffff8111610b665783610b3f918301610372565b92604082013567ffffffffffffffff8111610b6157610b5e92016107f9565b90565b610280565b610280565b61027c565b34610b9f57610b89610b83366004610b07565b9161326c565b610b91610272565b80610b9b8161040e565b0390f35b610278565b67ffffffffffffffff8111610bbc5760208091020190565b6102bc565b929190610bd5610bd082610ba4565b6102f9565b9381855260208086019202810191838311610c2c5781905b838210610bfb575050505050565b813567ffffffffffffffff8111610c2757602091610c1c8784938701610372565b815201910190610bed565b6102aa565b610464565b9080601f83011215610c4f57816020610c4c93359101610bc1565b90565b6102aa565b919091604081840312610cac575f81013567ffffffffffffffff8111610ca75783610c80918301610372565b92602082013567ffffffffffffffff8111610ca257610c9f9201610c31565b90565b610280565b610280565b61027c565b34610ce057610cca610cc4366004610c54565b906133a1565b610cd2610272565b80610cdc8161040e565b0390f35b610278565b60018060a01b031690565b610cf990610ce5565b90565b610d0581610cf0565b03610d0c57565b5f80fd5b90503590610d1d82610cfc565b565b9091606082840312610d6d57610d37835f840161029b565b9260208301359067ffffffffffffffff8211610d6857610d5c81610d65938601610372565b93604001610d10565b90565b610280565b61027c565b34610da157610d8b610d85366004610d1f565b91613454565b610d93610272565b80610d9d8161040e565b0390f35b610278565b67ffffffffffffffff8111610dbe5760208091020190565b6102bc565b90929192610dd8610dd382610da6565b6102f9565b9381855260208086019202830192818411610e1557915b838310610dfc5750505050565b60208091610e0a8486610d10565b815201920191610def565b610464565b9080601f83011215610e3857816020610e3593359101610dc3565b90565b6102aa565b91606083830312610ea157610e54825f850161029b565b92602081013567ffffffffffffffff8111610e9c5783610e75918301610372565b92604082013567ffffffffffffffff8111610e9757610e949201610e1a565b90565b610280565b610280565b61027c565b34610ed557610ebf610eb9366004610e3d565b91613655565b610ec7610272565b80610ed18161040e565b0390f35b610278565b91606083830312610f3e57610ef1825f850161029b565b92602081013567ffffffffffffffff8111610f395783610f12918301610372565b92604082013567ffffffffffffffff8111610f3457610f319201610372565b90565b610280565b610280565b61027c565b34610f7257610f5c610f56366004610eda565b91613849565b610f64610272565b80610f6e8161040e565b0390f35b610278565b634e487b7160e01b5f52602160045260245ffd5b60081115610f9557565b610f77565b90610fa482610f8b565b565b610faf90610f9a565b90565b610fbb90610fa6565b9052565b610fc890610744565b9052565b90602080610fee93610fe45f8201515f860190610fb2565b0151910190610fbf565b565b5190565b60209181520190565b61101c61102560209361102a9361101381610ff0565b93848093610ff4565b95869101610a7e565b6102b2565b0190565b61105991602060608201926110495f8201515f850190610fcc565b0151906040818403910152610ffd565b90565b6110719160208201915f81840391015261102e565b90565b346110a4576110a061108f61108a36600461070f565b613990565b611097610272565b9182918261105c565b0390f35b610278565b67ffffffffffffffff81116110c15760208091020190565b6102bc565b909291926110db6110d6826110a9565b6102f9565b938185526020808601920283019281841161111857915b8383106110ff5750505050565b6020809161110d848661029b565b8152019201916110f2565b610464565b9080601f8301121561113b57816020611138933591016110c6565b90565b6102aa565b919091604081840312611198575f81013567ffffffffffffffff8111611193578361116c918301610372565b92602082013567ffffffffffffffff811161118e5761118b920161111d565b90565b610280565b610280565b61027c565b346111cc576111b66111b0366004611140565b90613a2a565b6111be610272565b806111c88161040e565b0390f35b610278565b906020828203126111ea576111e7915f0161029b565b90565b61027c565b3461121f5761121b61120a6112053660046111d1565b613abb565b611212610272565b91829182610aba565b0390f35b610278565b346112555761125161124061123a3660046109f6565b90613c68565b611248610272565b9182918261105c565b0390f35b610278565b9190916040818403126112b2575f81013567ffffffffffffffff81116112ad5783611286918301610372565b92602082013567ffffffffffffffff81116112a8576112a59201610e1a565b90565b610280565b610280565b61027c565b346112e6576112d06112ca36600461125a565b90613ccf565b6112d8610272565b806112e28161040e565b0390f35b610278565b919060408382031261132b575f8301359067ffffffffffffffff82116113265761131a81611323938601610372565b9360200161029b565b90565b610280565b61027c565b3461135f576113496113433660046112eb565b90613d60565b611351610272565b8061135b8161040e565b0390f35b610278565b67ffffffffffffffff811161137c5760208091020190565b6102bc565b9092919261139661139182611364565b6102f9565b93818552602080860192028301928184116113d357915b8383106113ba5750505050565b602080916113c884866103ac565b8152019201916113ad565b610464565b9080601f830112156113f6578160206113f393359101611381565b90565b6102aa565b9160608383031261145f57611412825f850161029b565b92602081013567ffffffffffffffff811161145a5783611433918301610372565b92604082013567ffffffffffffffff81116114555761145292016113d8565b90565b610280565b610280565b61027c565b346114935761147d6114773660046113fb565b91613ebd565b611485610272565b8061148f8161040e565b0390f35b610278565b67ffffffffffffffff81116114b05760208091020190565b6102bc565b9291906114c96114c482611498565b6102f9565b93818552602080860192028101918383116115205781905b8382106114ef575050505050565b813567ffffffffffffffff811161151b5760209161151087849387016107f9565b8152019101906114e1565b6102aa565b610464565b9080601f8301121561154357816020611540933591016114b5565b90565b6102aa565b916060838303126115ac5761155f825f850161029b565b92602081013567ffffffffffffffff81116115a75783611580918301610372565b92604082013567ffffffffffffffff81116115a25761159f9201611525565b90565b610280565b610280565b61027c565b346115e0576115ca6115c4366004611548565b91614171565b6115d2610272565b806115dc8161040e565b0390f35b610278565b9190604083820312611625575f8301359067ffffffffffffffff8211611620576116148161161d938601610372565b93602001610d10565b90565b610280565b61027c565b346116595761164361163d3660046115e5565b9061435e565b61164b610272565b806116558161040e565b0390f35b610278565b61166781610744565b0361166e57565b5f80fd5b9050359061167f8261165e565b565b90916060828403126116cf57611699835f840161029b565b9260208301359067ffffffffffffffff82116116ca576116be816116c7938601610372565b93604001611672565b90565b610280565b61027c565b34611703576116ed6116e7366004611681565b916143ef565b6116f5610272565b806116ff8161040e565b0390f35b610278565b9190604083820312611748575f8301359067ffffffffffffffff82116117435761173781611740938601610372565b93602001611672565b90565b610280565b61027c565b3461177c57611766611760366004611708565b9061451c565b61176e610272565b806117788161040e565b0390f35b610278565b9190916040818403126117d9575f81013567ffffffffffffffff81116117d457836117ad918301610372565b92602082013567ffffffffffffffff81116117cf576117cc9201611525565b90565b610280565b610280565b61027c565b3461180d576117f76117f1366004611781565b906145ad565b6117ff610272565b806118098161040e565b0390f35b610278565b90916060828403126118605761182a835f840161029b565b9260208301359067ffffffffffffffff821161185b5761184f81611858938601610372565b9360400161047f565b90565b610280565b61027c565b346118945761187e611878366004611812565b9161463e565b611886610272565b806118908161040e565b0390f35b610278565b916060838303126118fd576118b0825f850161029b565b92602081013567ffffffffffffffff81116118f857836118d1918301610372565b92604082013567ffffffffffffffff81116118f3576118f09201610c31565b90565b610280565b610280565b61027c565b346119315761191b611915366004611899565b91614845565b611923610272565b8061192d8161040e565b0390f35b610278565b9060208282031261194f5761194c915f01611672565b90565b61027c565b346119825761196c611967366004611936565b614a7d565b611974610272565b8061197e8161040e565b0390f35b610278565b916060838303126119eb5761199e825f850161029b565b92602081013567ffffffffffffffff81116119e657836119bf918301610372565b92604082013567ffffffffffffffff81116119e1576119de920161111d565b90565b610280565b610280565b61027c565b34611a1f57611a09611a03366004611987565b91614b46565b611a11610272565b80611a1b8161040e565b0390f35b610278565b919091604081840312611a7c575f81013567ffffffffffffffff8111611a775783611a50918301610372565b92602082013567ffffffffffffffff8111611a7257611a6f92016113d8565b90565b610280565b610280565b61027c565b34611ab057611a9a611a94366004611a24565b90614d35565b611aa2610272565b80611aac8161040e565b0390f35b610278565b67ffffffffffffffff8111611acd5760208091020190565b6102bc565b90929192611ae7611ae282611ab5565b6102f9565b9381855260208086019202830192818411611b2457915b838310611b0b5750505050565b60208091611b198486611672565b815201920191611afe565b610464565b9080601f83011215611b4757816020611b4493359101611ad2565b90565b6102aa565b91606083830312611bb057611b63825f850161029b565b92602081013567ffffffffffffffff8111611bab5783611b84918301610372565b92604082013567ffffffffffffffff8111611ba657611ba39201611b29565b90565b610280565b610280565b61027c565b34611be457611bce611bc8366004611b4c565b91614e85565b611bd6610272565b80611be08161040e565b0390f35b610278565b919091604081840312611c41575f81013567ffffffffffffffff8111611c3c5783611c15918301610372565b92602082013567ffffffffffffffff8111611c3757611c3492016104e5565b90565b610280565b610280565b61027c565b34611c7557611c5f611c59366004611be9565b90615074565b611c67610272565b80611c718161040e565b0390f35b610278565b919091604081840312611cd2575f81013567ffffffffffffffff8111611ccd5783611ca6918301610372565b92602082013567ffffffffffffffff8111611cc857611cc59201610372565b90565b610280565b610280565b61027c565b34611d0657611cf0611cea366004611c7a565b90615105565b611cf8610272565b80611d028161040e565b0390f35b610278565b919091604081840312611d63575f81013567ffffffffffffffff8111611d5e5783611d37918301610372565b92602082013567ffffffffffffffff8111611d5957611d569201611b29565b90565b610280565b610280565b61027c565b34611d9757611d81611d7b366004611d0b565b90615196565b611d89610272565b80611d938161040e565b0390f35b610278565b5f80fd5b611daa60406102f9565b90565b90611db790610f9a565b9052565b90611dc590610744565b9052565b611dd290610395565b9052565b9190611de9905f60208501940190611dc9565b565b90565b611e02611dfd611e0792610284565b611deb565b610284565b90565b90611e1490611dee565b5f5260205260405f2090565b905090565b611e4a611e4192602092611e3881610a71565b94858093611e20565b93849101610a7e565b0190565b90565b611e5d611e6291610284565b611e4e565b9052565b611e76611e7d9160209493611e25565b8092611e51565b0190565b611e95611e8c610272565b92839283611e66565b03902090565b611ea491611e81565b90565b634e487b7160e01b5f52602260045260245ffd5b9060016002830492168015611edb575b6020831014611ed657565b611ea7565b91607f1691611ecb565b5f5260205f2090565b601f602091010490565b1b90565b91906008611f17910291611f115f1984611ef8565b92611ef8565b9181191691161790565b90565b9190611f3a611f35611f4293611dee565b611f21565b908354611efc565b9055565b5f90565b611f5c91611f56611f46565b91611f24565b565b5b818110611f6a575050565b80611f775f600193611f4a565b01611f5f565b9190601f8111611f8d575b505050565b611f99611fbe93611ee5565b906020611fa584611eee565b83019310611fc6575b611fb790611eee565b0190611f5e565b5f8080611f88565b9150611fb781929050611fae565b1c90565b90611fe8905f1990600802611fd4565b191690565b81611ff791611fd8565b906002021790565b9061200981610ff0565b9067ffffffffffffffff82116120c95761202d826120278554611ebb565b85611f7d565b602090601f831160011461206157918091612050935f92612055575b5050611fed565b90555b565b90915001515f80612049565b601f1983169161207085611ee5565b925f5b8181106120b157509160029391856001969410612097575b50505002019055612053565b6120a7910151601f841690611fd8565b90555f808061208b565b91936020600181928787015181550195019201612073565b6102bc565b906120d891611fff565b565b5f1c90565b60ff1690565b6120f16120f6916120da565b6120df565b90565b61210390546120e5565b90565b6121109051610f9a565b90565b61211f612124916120da565b611dee565b90565b61213b61213661214092610284565b611deb565b610ce5565b90565b61215761215261215c92610ce5565b611deb565b610ce5565b90565b61216890612143565b90565b61217490612143565b90565b6121809061216b565b90565b6121c46121bf6121ba6121b57f885cb69240a935d632d79c317109709ecfa91a80626ff3989d68f67f5b1dd12d612113565b612127565b61215f565b612177565b90565b6121d09061215f565b90565b5f80fd5b60e01b90565b909291926121f26121ed8261030e565b6102f9565b9381855260208501908284011161220e5761220c92610a7e565b565b6102ae565b9080601f830112156122315781602061222e935191016121dd565b90565b6102aa565b90602082820312612266575f82015167ffffffffffffffff81116122615761225e9201612213565b90565b610280565b61027c565b612273610272565b3d5f823e3d90fd5b91600561229f5f61229661228d611da0565b935f8501611dad565b60208301611dbb565b916122ac848285916152d1565b6122f46122ca6122d9846122be610272565b92839160208301611dd6565b602082018103825203826102d0565b6122ef6122e860038890611e0a565b8490611e9b565b6120ce565b6122fe60056120f9565b612309575b50505050565b5f61232161231c8261235a979601612106565b6155a0565b919261233361232e612183565b6121c7565b61234f63a322c40e612343610272565b988994859384936121d7565b835260048301611dd6565b03915afa9283156123a357612376945f9461237f575b5061584b565b5f808080612303565b61239c9194503d805f833e61239481836102d0565b810190612236565b925f612370565b61226b565b5190565b60209181520190565b60200190565b6123c490610468565b9052565b906123d5816020936123bb565b0190565b60200190565b906123fc6123f66123ef846123a8565b80936123ac565b926123b5565b905f5b81811061240c5750505090565b90919261242561241f60019286516123c8565b946123d9565b91019190916123ff565b6124449160208201915f8184039101526123df565b90565b906124596124548361030e565b6102f9565b918252565b5f7f5b00000000000000000000000000000000000000000000000000000000000000910152565b61248f6001612447565b9061249c6020830161245e565b565b6124a6612485565b90565b90565b6124c06124bb6124c5926124a9565b611deb565b610284565b90565b60016124d49101610284565b90565b634e487b7160e01b5f52603260045260245ffd5b906124f5826123a8565b811015612506576020809102010190565b6124d7565b6125159051610468565b90565b61252190610468565b9052565b9190612538905f60208501940190612518565b565b6125489061254e9392611e25565b90611e25565b90565b612570929161257c91612562610272565b94859260208401928361253a565b908103825203836102d0565b565b90565b61259561259061259a9261257e565b611deb565b610284565b90565b634e487b7160e01b5f52601160045260245ffd5b6125c06125c691939293610284565b92610284565b82039182116125d157565b61259d565b7f2c000000000000000000000000000000000000000000000000000000000000009052565b61260790600192611e25565b612610816125d6565b0190565b9061263c612620610272565b80936126306020830191826125fb565b908103825203836102d0565b565b7f5d000000000000000000000000000000000000000000000000000000000000009052565b61266f90600192611e25565b6126788161263e565b0190565b906126a4612688610272565b8093612698602083019182612663565b908103825203836102d0565b565b91909160036126cd60016126c46126bb611da0565b935f8501611dad565b60208301611dbb565b6126d9828583916152d1565b6127216126f7612706856126eb610272565b9283916020830161242f565b602082018103825203826102d0565b61271c61271560038690611e0a565b8790611e9b565b6120ce565b61272b60056120f9565b612736575b50505050565b61273e61249e565b916127485f6124ac565b925b8361276561275f61275a886123a8565b610284565b91610284565b1015612862576127bc905f61278061277b612183565b6121c7565b63b11a19e8906127b161279c6127978b8b906124eb565b61250b565b926127a5610272565b968794859384936121d7565b835260048301612525565b03915afa91821561285d576127e2926127dc915f9161283b575b5061594b565b90612551565b928061281161280b6128066127f6896123a8565b6128006001612581565b906125b1565b610284565b91610284565b10612826575b612820906124c8565b9261274a565b9261283361282091612614565b939050612817565b61285791503d805f833e61284f81836102d0565b810190612236565b5f6127d6565b61226b565b612891959294506128899193505f61287c6128849261267c565b949501612106565b6155a0565b90919261584b565b5f808080612730565b606090565b5490565b906128b56128b083610ba4565b6102f9565b918252565b5f5260205f2090565b60209181520190565b5f5260205f2090565b905f92918054906128ef6128e883611ebb565b80946128c3565b916001811690815f14612946575060011461290a575b505050565b61291791929394506128cc565b915f925b81841061292e57505001905f8080612905565b6001816020929593955484860152019101929061291b565b92949550505060ff19168252151560200201905f8080612905565b9061296b916128d5565b90565b9061298e6129879261297e610272565b93848092612961565b03836102d0565b565b6129999061296e565b90565b906129a68261289f565b6129af816128a3565b926129bd60208501916128ba565b5f915b8383106129cd5750505050565b6001602081926129dc85612990565b8152019201920191906129c0565b6129f39061299c565b90565b5190565b90612a0c612a07836110a9565b6102f9565b918252565b369037565b90612a3b612a23836129fa565b92602080612a3186936110a9565b9201910390612a11565b565b90612a47826129f6565b811015612a58576020809102010190565b6124d7565b90612a67826105b4565b811015612a78576020809102010190565b6124d7565b90612a8790610284565b9052565b612a9361289a565b50612a9e60016129ea565b612aaf612aaa826129f6565b612a16565b90612ab95f6124ac565b5b80612ad5612acf612aca856129f6565b610284565b91610284565b1015612b1257612b0d90612b08612af6612af0858490612a3d565b51612fb7565b612b038691849092612a5d565b612a7d565b6124c8565b612aba565b505090565b916004612b3b5f612b32612b29611da0565b935f8501611dad565b60208301611dbb565b91612b48848285916152d1565b612b90612b66612b7584612b5a610272565b928391602083016109ac565b602082018103825203826102d0565b612b8b612b8460038890611e0a565b8490611e9b565b6120ce565b612b9a60056120f9565b612ba5575b50505050565b5f612bbd612bb882612bf6979601612106565b6155a0565b9192612bcf612bca612183565b6121c7565b612beb636900a3ae612bdf610272565b988994859384936121d7565b8352600483016109ac565b03915afa928315612c3f57612c12945f94612c1b575b5061584b565b5f808080612b9f565b612c389194503d805f833e612c3081836102d0565b810190612236565b925f612c0c565b61226b565b5f90565b90505190612c5582610287565b565b90602082820312612c7057612c6d915f01612c48565b90565b61027c565b612caa90612c81612c44565b506020612c94612c8f612183565b6121c7565b633408e47090612ca2610272565b9485926121d7565b82528180612cba6004820161040e565b03915afa908115612d0a57612cd7925f92612cda575b5090613122565b90565b612cfc91925060203d8111612d03575b612cf481836102d0565b810190612c57565b905f612cd0565b503d612cea565b61226b565b612d3b916020612d25612d20612183565b6121c7565b633408e47090612d33610272565b9586926121d7565b82528180612d4b6004820161040e565b03915afa918215612d9b57612d69935f93612d6b575b50909161326c565b565b612d8d91935060203d8111612d94575b612d8581836102d0565b810190612c57565b915f612d61565b503d612d7b565b61226b565b612dcc916020612db6612db1612183565b6121c7565b633408e47090612dc4610272565b9586926121d7565b82528180612ddc6004820161040e565b03915afa918215612e2c57612dfa935f93612dfc575b50909161463e565b565b612e1e91935060203d8111612e25575b612e1681836102d0565b810190612c57565b915f612df2565b503d612e0c565b61226b565b612e5d916020612e47612e42612183565b6121c7565b633408e47090612e55610272565b9586926121d7565b82528180612e6d6004820161040e565b03915afa918215612ebd57612e8b935f93612e8d575b50909161227b565b565b612eaf91935060203d8111612eb6575b612ea781836102d0565b810190612c57565b915f612e83565b503d612e9d565b61226b565b5f80fd5b5f80fd5b919091608081840312612f7057612ee160806102f9565b925f82015167ffffffffffffffff8111612f6b5781612f01918401612213565b5f850152612f128160208401612c48565b6020850152604082015167ffffffffffffffff8111612f665781612f37918401612213565b6040850152606082015167ffffffffffffffff8111612f6157612f5a9201612213565b6060830152565b612ec6565b612ec6565b612ec6565b612ec2565b90602082820312612fa5575f82015167ffffffffffffffff8111612fa057612f9d9201612eca565b90565b610280565b61027c565b612fb49051610284565b90565b90612fc0611f46565b916130006020612fd6612fd1612183565b6121c7565b63fa91454d90612ff58592612fe9610272565b958694859384936121d7565b835260048301610aba565b03915afa80915f926130e5575b50155f146130de57506001613020575b50565b61305e5f61303461302f612183565b6121c7565b634cc1c2bb906130538592613047610272565b958694859384936121d7565b835260048301610aba565b03915afa80915f926130ba575b50155f146130a75750600161308157505f61301d565b6130a39061308d610272565b9182916397aa94df60e01b835260048301610aba565b0390fd5b6130b79293506020915001612faa565b90565b6130d79192503d805f833e6130cf81836102d0565b810190612f75565b905f61306b565b9192505090565b61310791925060203d811161310e575b6130ff81836102d0565b810190612c57565b905f61300d565b503d6130f5565b61311f9054611ebb565b90565b6131479161313d61314292613135612c44565b506003611e0a565b611e9b565b613115565b6131596131535f6124ac565b91610284565b1190565b606090565b9061316c90611dee565b5f5260205260405f2090565b61318061315d565b5060026131ae6020613198613193612183565b6121c7565b633408e470906131a6610272565b9384926121d7565b825281806131be6004820161040e565b03915afa8015613215576131e2926131dd925f926131e5575b50613162565b612990565b90565b61320791925060203d811161320e575b6131ff81836102d0565b810190612c57565b905f6131d7565b503d6131f5565b61226b565b60209181520190565b61324261324b6020936132509361323981610ff0565b9384809361321a565b95869101610a7e565b6102b2565b0190565b6132699160208201915f818403910152613223565b90565b9160076132905f61328761327e611da0565b935f8501611dad565b60208301611dbb565b9161329d848285916152d1565b6132e56132bb6132ca846132af610272565b92839160208301613254565b602082018103825203826102d0565b6132e06132d960038890611e0a565b8490611e9b565b6120ce565b6132ef60056120f9565b6132fa575b50505050565b5f61331261330d8261334b979601612106565b6155a0565b919261332461331f612183565b6121c7565b6133406371aad10d613334610272565b988994859384936121d7565b835260048301613254565b03915afa93841561339c576133719461336b915f9161337a575b5061594b565b9261584b565b5f8080806132f4565b61339691503d805f833e61338e81836102d0565b810190612236565b5f613365565b61226b565b6133cd9160206133b76133b2612183565b6121c7565b633408e470906133c5610272565b9586926121d7565b825281806133dd6004820161040e565b03915afa91821561342d576133fb935f936133fd575b509091614845565b565b61341f91935060203d8111613426575b61341781836102d0565b810190612c57565b915f6133f3565b503d61340d565b61226b565b61343b90610cf0565b9052565b9190613452905f60208501940190613432565b565b9160026134785f61346f613466611da0565b935f8501611dad565b60208301611dbb565b91613485848285916152d1565b6134cd6134a36134b284613497610272565b9283916020830161343f565b602082018103825203826102d0565b6134c86134c160038890611e0a565b8490611e9b565b6120ce565b6134d760056120f9565b6134e2575b50505050565b5f6134fa6134f582613533979601612106565b6155a0565b919261350c613507612183565b6121c7565b6135286356ca623e61351c610272565b988994859384936121d7565b83526004830161343f565b03915afa9384156135845761355994613553915f91613562575b5061594b565b9261584b565b5f8080806134dc565b61357e91503d805f833e61357681836102d0565b810190612236565b5f61354d565b61226b565b5190565b60209181520190565b60200190565b6135a590610cf0565b9052565b906135b68160209361359c565b0190565b60200190565b906135dd6135d76135d084613589565b809361358d565b92613596565b905f5b8181106135ed5750505090565b90919261360661360060019286516135a9565b946135ba565b91019190916135e0565b6136259160208201915f8184039101526135c0565b90565b9061363282613589565b811015613643576020809102010190565b6124d7565b6136529051610cf0565b90565b919091600261367c600161367361366a611da0565b935f8501611dad565b60208301611dbb565b613688828583916152d1565b6136d06136a66136b58561369a610272565b92839160208301613610565b602082018103825203826102d0565b6136cb6136c460038690611e0a565b8790611e9b565b6120ce565b6136da60056120f9565b6136e5575b50505050565b6136ed61249e565b916136f75f6124ac565b925b8361371461370e61370988613589565b610284565b91610284565b10156138115761376b905f61372f61372a612183565b6121c7565b6356ca623e9061376061374b6137468b8b90613628565b613648565b92613754610272565b968794859384936121d7565b83526004830161343f565b03915afa91821561380c576137919261378b915f916137ea575b5061594b565b90612551565b92806137c06137ba6137b56137a589613589565b6137af6001612581565b906125b1565b610284565b91610284565b106137d5575b6137cf906124c8565b926136f9565b926137e26137cf91612614565b9390506137c6565b61380691503d805f833e6137fe81836102d0565b810190612236565b5f613785565b61226b565b613840959294506138389193505f61382b6138339261267c565b949501612106565b6155a0565b90919261584b565b5f8080806136df565b91600661386d5f61386461385b611da0565b935f8501611dad565b60208301611dbb565b9161387a848285916152d1565b6138c26138986138a78461388c610272565b92839160208301610aba565b602082018103825203826102d0565b6138bd6138b660038890611e0a565b8490611e9b565b6120ce565b6138cc60056120f9565b6138d7575b50505050565b6138f86138f16138ec5f6138fe979601612106565b6155a0565b919261594b565b9261584b565b5f8080806138d1565b61391160406102f9565b90565b61391e60406102f9565b90565b5f90565b5f90565b613931613914565b906020808361393e613921565b815201613949613925565b81525050565b613957613929565b90565b606090565b613967613907565b906020808361397461394f565b81520161397f61395a565b81525050565b61398d61395f565b90565b6139c59061399c613985565b5060206139af6139aa612183565b6121c7565b633408e470906139bd610272565b9485926121d7565b825281806139d56004820161040e565b03915afa908115613a25576139f2925f926139f5575b5090613c68565b90565b613a1791925060203d8111613a1e575b613a0f81836102d0565b810190612c57565b905f6139eb565b503d613a05565b61226b565b613a56916020613a40613a3b612183565b6121c7565b633408e47090613a4e610272565b9586926121d7565b82528180613a666004820161040e565b03915afa918215613ab657613a84935f93613a86575b509091614b46565b565b613aa891935060203d8111613aaf575b613aa081836102d0565b810190612c57565b915f613a7c565b503d613a96565b61226b565b613ad2613ad791613aca61315d565b506002613162565b612990565b90565b90613ae490611dee565b5f5260205260405f2090565b613af991611e81565b90565b613b0660406102f9565b90565b60ff1690565b613b1b613b20916120da565b613b09565b90565b613b2d9054613b0f565b90565b60081c90565b613b42613b4791613b30565b6120df565b90565b613b549054613b36565b90565b90613b8d613b845f613b67613914565b94613b7e613b76838301613b23565b838801611dad565b01613b4a565b60208401611dbb565b565b613b9890613b57565b90565b52565b905f9291805490613bb8613bb183611ebb565b8094610ff4565b916001811690815f14613c0f5750600114613bd3575b505050565b613be09192939450611ee5565b915f925b818410613bf757505001905f8080613bce565b60018160209295939554848601520191019290613be4565b92949550505060ff19168252151560200201905f8080613bce565b90613c3491613b9e565b90565b90613c57613c5092613c47610272565b93848092613c2a565b03836102d0565b565b613c6290613c37565b90565b52565b90613cc3613ca2613ccc92613c7b613985565b50613c9d613c95613c8e60048890613ada565b8390613af0565b956003611e0a565b611e9b565b613cbe613cb6613cb0613afc565b95613b8f565b5f8601613b9b565b613c59565b60208301613c65565b90565b613cfb916020613ce5613ce0612183565b6121c7565b633408e47090613cf3610272565b9586926121d7565b82528180613d0b6004820161040e565b03915afa918215613d5b57613d29935f93613d2b575b509091613655565b565b613d4d91935060203d8111613d54575b613d4581836102d0565b810190612c57565b915f613d21565b503d613d3b565b61226b565b613d8c916020613d76613d71612183565b6121c7565b633408e47090613d84610272565b9586926121d7565b82528180613d9c6004820161040e565b03915afa918215613dec57613dba935f93613dbc575b509091612b17565b565b613dde91935060203d8111613de5575b613dd681836102d0565b810190612c57565b915f613db2565b503d613dcc565b61226b565b5190565b60209181520190565b60200190565b613e0d90610395565b9052565b90613e1e81602093613e04565b0190565b60200190565b90613e45613e3f613e3884613df1565b8093613df5565b92613dfe565b905f5b818110613e555750505090565b909192613e6e613e686001928651613e11565b94613e22565b9101919091613e48565b613e8d9160208201915f818403910152613e28565b90565b90613e9a82613df1565b811015613eab576020809102010190565b6124d7565b613eba9051610395565b90565b6005613ee16001613ed8613ecf611da0565b935f8501611dad565b60208301611dbb565b613eed828483916152d1565b613f35613f0b613f1a86613eff610272565b92839160208301613e78565b602082018103825203826102d0565b613f30613f2960038690611e0a565b8690611e9b565b6120ce565b613f3f60056120f9565b613f4a575b50505050565b613f57949192939461249e565b92613f615f6124ac565b935b84613f7e613f78613f738a613df1565b610284565b91610284565b101561407357613fd5905f613f99613f94612183565b6121c7565b63a322c40e90613fca613fb5613fb08d8c90613e90565b613eb0565b92613fbe610272565b968794859384936121d7565b835260048301611dd6565b03915afa90811561406e57613ff1925f9261404a575b50612551565b938061402061401a6140156140058b613df1565b61400f6001612581565b906125b1565b610284565b91610284565b10614035575b61402f906124c8565b93613f63565b9361404261402f91612614565b949050614026565b6140679192503d805f833e61405f81836102d0565b810190612236565b905f613feb565b61226b565b61409b919396506140a3959294505f61408e6140969261267c565b949501612106565b6155a0565b90919261584b565b5f808080613f44565b5190565b60209181520190565b60200190565b906140c991610ffd565b90565b60200190565b906140e66140df836140ac565b80926140b0565b90816140f7602083028401946140b9565b925f915b83831061410a57505050505090565b9091929394602061412c614126838560019503875289516140bf565b976140cc565b93019301919392906140fb565b61414e9160208201915f8184039101526140d2565b90565b9061415b826140ac565b81101561416c576020809102010190565b6124d7565b9190916007614198600161418f614186611da0565b935f8501611dad565b60208301611dbb565b6141a4828583916152d1565b6141ec6141c26141d1856141b6610272565b92839160208301614139565b602082018103825203826102d0565b6141e76141e060038690611e0a565b8790611e9b565b6120ce565b6141f660056120f9565b614201575b50505050565b61420961249e565b916142135f6124ac565b925b8361423061422a614225886140ac565b610284565b91610284565b101561432657614280905f61424b614246612183565b6121c7565b6371aad10d9061427561425f8a8a90614151565b5192614269610272565b968794859384936121d7565b835260048301613254565b03915afa918215614321576142a6926142a0915f916142ff575b5061594b565b90612551565b92806142d56142cf6142ca6142ba896140ac565b6142c46001612581565b906125b1565b610284565b91610284565b106142ea575b6142e4906124c8565b92614215565b926142f76142e491612614565b9390506142db565b61431b91503d805f833e61431381836102d0565b810190612236565b5f61429a565b61226b565b6143559592945061434d9193505f6143406143489261267c565b949501612106565b6155a0565b90919261584b565b5f8080806141fb565b61438a91602061437461436f612183565b6121c7565b633408e47090614382610272565b9586926121d7565b8252818061439a6004820161040e565b03915afa9182156143ea576143b8935f936143ba575b509091613454565b565b6143dc91935060203d81116143e3575b6143d481836102d0565b810190612c57565b915f6143b0565b503d6143ca565b61226b565b9160016144135f61440a614401611da0565b935f8501611dad565b60208301611dbb565b91614420848285916152d1565b61446861443e61444d84614432610272565b92839160208301610756565b602082018103825203826102d0565b61446361445c60038890611e0a565b8490611e9b565b6120ce565b61447260056120f9565b61447d575b50505050565b5f614495614490826144ce979601612106565b6155a0565b91926144a76144a2612183565b6121c7565b6144c36371dce7da6144b7610272565b988994859384936121d7565b835260048301610756565b03915afa928315614517576144ea945f946144f3575b5061584b565b5f808080614477565b6145109194503d805f833e61450881836102d0565b810190612236565b925f6144e4565b61226b565b61454891602061453261452d612183565b6121c7565b633408e47090614540610272565b9586926121d7565b825281806145586004820161040e565b03915afa9182156145a857614576935f93614578575b5090916143ef565b565b61459a91935060203d81116145a1575b61459281836102d0565b810190612c57565b915f61456e565b503d614588565b61226b565b6145d99160206145c36145be612183565b6121c7565b633408e470906145d1610272565b9586926121d7565b825281806145e96004820161040e565b03915afa91821561463957614607935f93614609575b509091614171565b565b61462b91935060203d8111614632575b61462381836102d0565b810190612c57565b915f6145ff565b503d614619565b61226b565b9160036146625f614659614650611da0565b935f8501611dad565b60208301611dbb565b9161466f848285916152d1565b6146b761468d61469c84614681610272565b92839160208301612525565b602082018103825203826102d0565b6146b26146ab60038890611e0a565b8490611e9b565b6120ce565b6146c160056120f9565b6146cc575b50505050565b5f6146e46146df8261471d979601612106565b6155a0565b91926146f66146f1612183565b6121c7565b61471263b11a19e8614706610272565b988994859384936121d7565b835260048301612525565b03915afa93841561476e576147439461473d915f9161474c575b5061594b565b9261584b565b5f8080806146c6565b61476891503d805f833e61476081836102d0565b810190612236565b5f614737565b61226b565b60209181520190565b60200190565b6147a16147aa6020936147af9361479881610a71565b938480936128c3565b95869101610a7e565b6102b2565b0190565b906147bd91614782565b90565b60200190565b906147da6147d3836129f6565b8092614773565b90816147eb6020830284019461477c565b925f915b8383106147fe57505050505090565b9091929394602061482061481a838560019503875289516147b3565b976147c0565b93019301919392906147ef565b6148429160208201915f8184039101526147c6565b90565b91600661486a6001614861614858611da0565b935f8501611dad565b60208301611dbb565b614876848483916152d1565b6148be6148946148a384614888610272565b9283916020830161482d565b602082018103825203826102d0565b6148b96148b260038890611e0a565b8690611e9b565b6120ce565b6148c860056120f9565b6148d3575b50505050565b6148e0949192939461249e565b946148ea5f6124ac565b955b866149076149016148fc886129f6565b610284565b91610284565b10156149845761492b9061492561491f878a90612a3d565b5161594b565b90612551565b958061495a61495461494f61493f896129f6565b6149496001612581565b906125b1565b610284565b91610284565b1061496f575b614969906124c8565b956148ec565b9561497c61496991612614565b969050614960565b6149ac919396506149b4959294505f61499f6149a79261267c565b949501612106565b6155a0565b90919261584b565b5f8080806148cd565b905051906149ca8261165e565b565b906020828203126149e5576149e2915f016149bd565b90565b61027c565b600911156149f457565b610f77565b90614a03826149ea565b565b614a0e906149f9565b90565b614a1a90614a05565b9052565b9190614a31905f60208501940190614a11565b565b5f1b90565b90614a4460ff91614a33565b9181191691161790565b614a5790610744565b90565b90565b90614a72614a6d614a7992614a4e565b614a5a565b8254614a38565b9055565b8080614ab1575b614a9557614a93906005614a5d565b565b5f6305d79a4360e31b815280614aad6004820161040e565b0390fd5b50614af26020614ac7614ac2612183565b6121c7565b6364af255d90614ae7600492614adb610272565b958694859384936121d7565b835260048301614a1e565b03915afa8015614b4157614b0e915f91614b13575b5015610744565b614a84565b614b34915060203d8111614b3a575b614b2c81836102d0565b8101906149cc565b5f614b07565b503d614b22565b61226b565b6004614b6a6001614b61614b58611da0565b935f8501611dad565b60208301611dbb565b614b76828483916152d1565b614bbe614b94614ba386614b88610272565b9283916020830161063b565b602082018103825203826102d0565b614bb9614bb260038690611e0a565b8690611e9b565b6120ce565b614bc860056120f9565b614bd3575b50505050565b614be0949192939461249e565b92614bea5f6124ac565b935b84614c07614c01614bfc8a6105b4565b610284565b91610284565b1015614cfc57614c5e905f614c22614c1d612183565b6121c7565b636900a3ae90614c53614c3e614c398d8c90612a5d565b612faa565b92614c47610272565b968794859384936121d7565b8352600483016109ac565b03915afa908115614cf757614c7a925f92614cd3575b50612551565b9380614ca9614ca3614c9e614c8e8b6105b4565b614c986001612581565b906125b1565b610284565b91610284565b10614cbe575b614cb8906124c8565b93614bec565b93614ccb614cb891612614565b949050614caf565b614cf09192503d805f833e614ce881836102d0565b810190612236565b905f614c74565b61226b565b614d2491939650614d2c959294505f614d17614d1f9261267c565b949501612106565b6155a0565b90919261584b565b5f808080614bcd565b614d61916020614d4b614d46612183565b6121c7565b633408e47090614d59610272565b9586926121d7565b82528180614d716004820161040e565b03915afa918215614dc157614d8f935f93614d91575b509091613ebd565b565b614db391935060203d8111614dba575b614dab81836102d0565b810190612c57565b915f614d87565b503d614da1565b61226b565b5190565b60209181520190565b60200190565b90614de681602093610fbf565b0190565b60200190565b90614e0d614e07614e0084614dc6565b8093614dca565b92614dd3565b905f5b818110614e1d5750505090565b909192614e36614e306001928651614dd9565b94614dea565b9101919091614e10565b614e559160208201915f818403910152614df0565b90565b90614e6282614dc6565b811015614e73576020809102010190565b6124d7565b614e829051610744565b90565b6001614ea96001614ea0614e97611da0565b935f8501611dad565b60208301611dbb565b614eb5828483916152d1565b614efd614ed3614ee286614ec7610272565b92839160208301614e40565b602082018103825203826102d0565b614ef8614ef160038690611e0a565b8690611e9b565b6120ce565b614f0760056120f9565b614f12575b50505050565b614f1f949192939461249e565b92614f295f6124ac565b935b84614f46614f40614f3b8a614dc6565b610284565b91610284565b101561503b57614f9d905f614f61614f5c612183565b6121c7565b6371dce7da90614f92614f7d614f788d8c90614e58565b614e78565b92614f86610272565b968794859384936121d7565b835260048301610756565b03915afa90811561503657614fb9925f92615012575b50612551565b9380614fe8614fe2614fdd614fcd8b614dc6565b614fd76001612581565b906125b1565b610284565b91610284565b10614ffd575b614ff7906124c8565b93614f2b565b9361500a614ff791612614565b949050614fee565b61502f9192503d805f833e61502781836102d0565b810190612236565b905f614fb3565b61226b565b6150639193965061506b959294505f61505661505e9261267c565b949501612106565b6155a0565b90919261584b565b5f808080614f0c565b6150a091602061508a615085612183565b6121c7565b633408e47090615098610272565b9586926121d7565b825281806150b06004820161040e565b03915afa918215615100576150ce935f936150d0575b5090916126a6565b565b6150f291935060203d81116150f9575b6150ea81836102d0565b810190612c57565b915f6150c6565b503d6150e0565b61226b565b61513191602061511b615116612183565b6121c7565b633408e47090615129610272565b9586926121d7565b825281806151416004820161040e565b03915afa9182156151915761515f935f93615161575b509091613849565b565b61518391935060203d811161518a575b61517b81836102d0565b810190612c57565b915f615157565b503d615171565b61226b565b6151c29160206151ac6151a7612183565b6121c7565b633408e470906151ba610272565b9586926121d7565b825281806151d26004820161040e565b03915afa918215615222576151f0935f936151f2575b509091614e85565b565b61521491935060203d811161521b575b61520c81836102d0565b810190612c57565b915f6151e8565b503d615202565b61226b565b61523090610f9a565b90565b90565b9061524b61524661525292615227565b615233565b8254614a38565b9055565b60081b90565b9061526961ff0091615256565b9181191691161790565b9061528861528361528f92614a4e565b614a5a565b825461525c565b9055565b906152bd60205f6152c3946152b58282016152af848801612106565b90615236565b019201614e78565b90615273565b565b906152cf91615293565b565b90916152f16152ec6152e560048590613ada565b8590613af0565b613b8f565b6152fc5f8201612106565b61530e6153085f610f9a565b91610f9a565b145f1461533657506153339261532961532e92936004613ada565b613af0565b6152c5565b5b565b909150615343925061598b565b615334565b5f7f626f6f6c00000000000000000000000000000000000000000000000000000000910152565b6153796004612447565b9061538660208301615348565b565b61539061536f565b90565b5f7f6164647265737300000000000000000000000000000000000000000000000000910152565b6153c46007612447565b906153d160208301615393565b565b6153db6153ba565b90565b5f7f6279746573333200000000000000000000000000000000000000000000000000910152565b61540f6007612447565b9061541c602083016153de565b565b615426615405565b90565b5f7f75696e7400000000000000000000000000000000000000000000000000000000910152565b61545a6004612447565b9061546760208301615429565b565b615471615450565b90565b5f7f696e740000000000000000000000000000000000000000000000000000000000910152565b6154a56003612447565b906154b260208301615474565b565b6154bc61549b565b90565b5f7f737472696e670000000000000000000000000000000000000000000000000000910152565b6154f06006612447565b906154fd602083016154bf565b565b6155076154e6565b90565b5f7f6279746573000000000000000000000000000000000000000000000000000000910152565b61553b6005612447565b906155486020830161550a565b565b615552615531565b90565b5f7f6e6f6e6500000000000000000000000000000000000000000000000000000000910152565b6155866004612447565b9061559360208301615555565b565b61559d61557c565b90565b6155a861315d565b50806155bd6155b76001610f9a565b91610f9a565b146156a957806155d66155d06002610f9a565b91610f9a565b1461569d57806155ef6155e96003610f9a565b91610f9a565b1461569157806156086156026004610f9a565b91610f9a565b14615685578061562161561b6005610f9a565b91610f9a565b14615679578061563a6156346006610f9a565b91610f9a565b1461566d5761565261564c6007610f9a565b91610f9a565b146156625761565f615595565b90565b61566a61554a565b90565b506156766154ff565b90565b506156826154b4565b90565b5061568e615469565b90565b5061569a61541e565b90565b506156a66153d3565b90565b506156b2615388565b90565b7f242e0000000000000000000000000000000000000000000000000000000000009052565b7f2e000000000000000000000000000000000000000000000000000000000000009052565b61574193926001615721819460026157319561571a816156b5565b0190611e25565b61572a816156da565b0190611e25565b61573a816156da565b0190611e25565b90565b9061577191939293615765615757610272565b9586936020850193846156ff565b908103825203836102d0565b565b5f91031261577d57565b61027c565b905f929180549061579c61579583611ebb565b8094610a75565b916001811690815f146157f357506001146157b7575b505050565b6157c491929394506128cc565b915f925b8184106157db57505001905f80806157b2565b600181602092959395548486015201910192906157c8565b92949550505060ff19168252151560200201905f80806157b2565b9161583a9061582c615848959360608601908682035f880152610a89565b908482036020860152615782565b916040818403910152610a89565b90565b9161585861586093615a08565b919091615744565b9061587161586c612183565b6121c7565b6351ac6a3391905f9392813b156158ee575f6158a0916158ab8296615894610272565b988997889687956121d7565b85526004850161580e565b03925af180156158e9576158bd575b50565b6158dc905f3d81116158e2575b6158d481836102d0565b810190615773565b5f6158ba565b503d6158ca565b61226b565b6121d3565b601160f91b9052565b600191826159149261590d816158f3565b0190611e25565b61591d816158f3565b0190565b9061594961592d610272565b809361593d6020830191826158fc565b908103825203836102d0565b565b61595d9061595761315d565b50615921565b90565b909161597a6159889360408401908482035f860152610a89565b916020818403910152610a89565b90565b906159a061599a838390615ab7565b15610744565b6159a8575050565b6159b46159ba91615b90565b91615b90565b906159dc6159c6610272565b92839263b02cf71d60e01b845260048401615960565b0390fd5b6159e98161289f565b821015615a03576159fb6001916128ba565b910201905f90565b6124d7565b615a1061315d565b50615a1a5f6124ac565b5b80615a37615a31615a2c600161289f565b610284565b91610284565b1015615a9857615a5a615a55615a4f600184906159e0565b50612990565b612fb7565b615a6c615a6684610284565b91610284565b14615a7f57615a7a906124c8565b615a1b565b615a959150615a8f9060016159e0565b50612990565b90565b615ab3825f918291631ff94f8360e11b8352600483016109ac565b0390fd5b90615ac0612c44565b50615acc5f8301612106565b615ae8615ae2615add5f8501612106565b610f9a565b91610f9a565b149182615af5575b505090565b615b20919250615b156020615b0e81615b1a9401614e78565b9401614e78565b610744565b91610744565b145f80615af0565b7f5b5d0000000000000000000000000000000000000000000000000000000000009052565b615b5990600292611e25565b615b6281615b28565b0190565b90615b8e615b72610272565b8093615b82602083019182615b4d565b908103825203836102d0565b565b615b9861315d565b50615bac615ba75f8301612106565b615c9b565b90615bc2615bbc60208301614e78565b15610744565b908115615be0575b505f14615bd45790565b615bdd90615b66565b90565b615bec91505f01612106565b615bfe615bf85f610f9a565b91610f9a565b145f615bca565b5f7f75696e7432353600000000000000000000000000000000000000000000000000910152565b615c366007612447565b90615c4360208301615c05565b565b615c4d615c2c565b90565b5f7f696e743235360000000000000000000000000000000000000000000000000000910152565b615c816006612447565b90615c8e60208301615c50565b565b615c98615c77565b90565b615ca361315d565b5080615cb8615cb26001610f9a565b91610f9a565b14615da45780615cd1615ccb6002610f9a565b91610f9a565b14615d985780615cea615ce46003610f9a565b91610f9a565b14615d8c5780615d03615cfd6004610f9a565b91610f9a565b14615d805780615d1c615d166005610f9a565b91610f9a565b14615d745780615d35615d2f6006610f9a565b91610f9a565b14615d6857615d4d615d476007610f9a565b91610f9a565b14615d5d57615d5a615595565b90565b615d6561554a565b90565b50615d716154ff565b90565b50615d7d615c90565b90565b50615d89615c45565b90565b50615d9561541e565b90565b50615da16153d3565b90565b50615dad615388565b9056fea2646970667358221220bd8f5d8e3c17e8830567eddc4a725938419bb56160ff112bfbb3b476cf2e68c164736f6c634300081c0033","linkReferences":{}},"methodIdentifiers":{"exists(string)":"261a323e","exists(uint256,string)":"43d9eb7b","get(string)":"693ec85e","get(uint256,string)":"805da4ad","getChainIds()":"1d776323","getRpcUrl()":"43ec8b6a","getRpcUrl(uint256)":"7df3ef12","resolveChainId(string)":"3f3a7588","set(string,address)":"a815ff15","set(string,address[])":"88c63d45","set(string,bool)":"ba0ff22c","set(string,bool[])":"fa3c074a","set(string,bytes)":"2b29c0fa","set(string,bytes32)":"2e3196a5","set(string,bytes32[])":"e6053250","set(string,bytes[])":"c91ca7ba","set(string,int256)":"2ef8ba74","set(string,int256[])":"de0fc9b3","set(string,string)":"e942b516","set(string,string[])":"59b39526","set(string,uint256)":"8a42ebe9","set(string,uint256[])":"7b8fed81","set(uint256,string,address)":"5eba0df0","set(uint256,string,address[])":"61141c97","set(uint256,string,bool)":"b3a64001","set(uint256,string,bool[])":"e298d00b","set(uint256,string,bytes)":"4d85ce80","set(uint256,string,bytes32)":"cf1cfa99","set(uint256,string,bytes32[])":"08f7b4b2","set(uint256,string,bytes[])":"93dbe6e0","set(uint256,string,int256)":"07d79d9a","set(uint256,string,int256[])":"8be19924","set(uint256,string,string)":"65560950","set(uint256,string,string[])":"cf72a2f3","set(uint256,string,uint256)":"22dc48fd","set(uint256,string,uint256[])":"db0075df","writeUpdatesBackToFile(bool)":"d6698dc4"},"id":9}