{"abi":[{"type":"constructor","inputs":[{"name":"_name","type":"string","internalType":"string"},{"name":"_symbol","type":"string","internalType":"string"},{"name":"_decimals","type":"uint8","internalType":"uint8"}],"stateMutability":"nonpayable"},{"type":"function","name":"allowance","inputs":[{"name":"","type":"address","internalType":"address"},{"name":"","type":"address","internalType":"address"}],"outputs":[{"name":"","type":"uint256","internalType":"uint256"}],"stateMutability":"view"},{"type":"function","name":"approve","inputs":[{"name":"spender","type":"address","internalType":"address"},{"name":"amount","type":"uint256","internalType":"uint256"}],"outputs":[{"name":"","type":"bool","internalType":"bool"}],"stateMutability":"nonpayable"},{"type":"function","name":"balanceOf","inputs":[{"name":"","type":"address","internalType":"address"}],"outputs":[{"name":"","type":"uint256","internalType":"uint256"}],"stateMutability":"view"},{"type":"function","name":"burn","inputs":[{"name":"from","type":"address","internalType":"address"},{"name":"amount","type":"uint256","internalType":"uint256"}],"outputs":[],"stateMutability":"nonpayable"},{"type":"function","name":"decimals","inputs":[],"outputs":[{"name":"","type":"uint8","internalType":"uint8"}],"stateMutability":"view"},{"type":"function","name":"mint","inputs":[{"name":"to","type":"address","internalType":"address"},{"name":"amount","type":"uint256","internalType":"uint256"}],"outputs":[],"stateMutability":"nonpayable"},{"type":"function","name":"name","inputs":[],"outputs":[{"name":"","type":"string","internalType":"string"}],"stateMutability":"view"},{"type":"function","name":"symbol","inputs":[],"outputs":[{"name":"","type":"string","internalType":"string"}],"stateMutability":"view"},{"type":"function","name":"transfer","inputs":[{"name":"to","type":"address","internalType":"address"},{"name":"amount","type":"uint256","internalType":"uint256"}],"outputs":[{"name":"","type":"bool","internalType":"bool"}],"stateMutability":"nonpayable"},{"type":"function","name":"transferFrom","inputs":[{"name":"from","type":"address","internalType":"address"},{"name":"to","type":"address","internalType":"address"},{"name":"amount","type":"uint256","internalType":"uint256"}],"outputs":[{"name":"","type":"bool","internalType":"bool"}],"stateMutability":"nonpayable"}],"bytecode":{"object":"0x6080604052346100305761001a6100146101be565b91610492565b610022610035565b610a016104b58239610a0190f35b61003b565b60405190565b5f80fd5b601f801991011690565b634e487b7160e01b5f52604160045260245ffd5b906100679061003f565b810190811060018060401b0382111761007f57604052565b610049565b90610097610090610035565b928361005d565b565b5f80fd5b5f80fd5b5f80fd5b5f80fd5b60018060401b0381116100c5576100c160209161003f565b0190565b610049565b90825f9392825e0152565b909291926100ea6100e5826100a9565b610084565b9381855260208501908284011161010657610104926100ca565b565b6100a5565b9080601f8301121561012957816020610126935191016100d5565b90565b6100a1565b60ff1690565b61013d8161012e565b0361014457565b5f80fd5b9050519061015582610134565b565b90916060828403126101b9575f82015160018060401b0381116101b4578361018091840161010b565b9260208301519060018060401b0382116101af576101a3816101ac93860161010b565b93604001610148565b90565b61009d565b61009d565b610099565b6101dc610eb6803803806101d181610084565b928339810190610157565b909192565b5190565b634e487b7160e01b5f52602260045260245ffd5b9060016002830492168015610219575b602083101461021457565b6101e5565b91607f1691610209565b5f5260205f2090565b601f602091010490565b1b90565b9190600861025591029161024f5f1984610236565b92610236565b9181191691161790565b90565b90565b61027961027461027e9261025f565b610262565b61025f565b90565b90565b919061029a6102956102a293610265565b610281565b90835461023a565b9055565b5f90565b6102bc916102b66102a6565b91610284565b565b5b8181106102ca575050565b806102d75f6001936102aa565b016102bf565b9190601f81116102ed575b505050565b6102f961031e93610223565b9060206103058461022c565b83019310610326575b6103179061022c565b01906102be565b5f80806102e8565b91506103178192905061030e565b1c90565b90610348905f1990600802610334565b191690565b8161035791610338565b906002021790565b90610369816101e1565b9060018060401b0382116104275761038b8261038585546101f9565b856102dd565b602090601f83116001146103bf579180916103ae935f926103b3575b505061034d565b90555b565b90915001515f806103a7565b601f198316916103ce85610223565b925f5b81811061040f575091600293918560019694106103f5575b505050020190556103b1565b610405910151601f841690610338565b90555f80806103e9565b919360206001819287870151815501950192016103d1565b610049565b906104369161035f565b565b5f1b90565b9061044960ff91610438565b9181191691161790565b61046761046261046c9261012e565b610262565b61012e565b90565b90565b9061048761048261048e92610453565b61046f565b825461043d565b9055565b6104b292916104a46104ab925f61042c565b600161042c565b6002610472565b56fe60806040526004361015610013575b61077b565b61001d5f356100bc565b806306fdde03146100b7578063095ea7b3146100b257806323b872dd146100ad578063313ce567146100a857806340c10f19146100a357806370a082311461009e57806395d89b41146100995780639dc29fac14610094578063a9059cbb1461008f5763dd62ed3e0361000e57610745565b6106ab565b610677565b610642565b6105fe565b6104fb565b6104c1565b610424565b6103b4565b6102cb565b60e01c90565b60405190565b5f80fd5b5f80fd5b5f9103126100da57565b6100cc565b634e487b7160e01b5f525f60045260245ffd5b634e487b7160e01b5f52602260045260245ffd5b9060016002830492168015610126575b602083101461012157565b6100f2565b91607f1691610116565b60209181520190565b5f5260205f2090565b905f929180549061015c61015583610106565b8094610130565b916001811690815f146101b35750600114610177575b505050565b6101849192939450610139565b915f925b81841061019b57505001905f8080610172565b60018160209295939554848601520191019290610188565b92949550505060ff19168252151560200201905f8080610172565b906101d891610142565b90565b601f801991011690565b634e487b7160e01b5f52604160045260245ffd5b90610203906101db565b810190811067ffffffffffffffff82111761021d57604052565b6101e5565b9061024261023b926102326100c2565b938480926101ce565b03836101f9565b565b905f106102575761025490610222565b90565b6100df565b6102675f5f90610244565b90565b5190565b60209181520190565b90825f9392825e0152565b6102a16102aa6020936102af936102988161026a565b9384809361026e565b95869101610277565b6101db565b0190565b6102c89160208201915f818403910152610282565b90565b346102fb576102db3660046100d0565b6102f76102e661025c565b6102ee6100c2565b918291826102b3565b0390f35b6100c8565b60018060a01b031690565b61031490610300565b90565b6103208161030b565b0361032757565b5f80fd5b9050359061033882610317565b565b90565b6103468161033a565b0361034d57565b5f80fd5b9050359061035e8261033d565b565b9190604083820312610388578061037c610385925f860161032b565b93602001610351565b90565b6100cc565b151590565b61039b9061038d565b9052565b91906103b2905f60208501940190610392565b565b346103e5576103e16103d06103ca366004610360565b906107dd565b6103d86100c2565b9182918261039f565b0390f35b6100c8565b909160608284031261041f5761041c610405845f850161032b565b93610413816020860161032b565b93604001610351565b90565b6100cc565b346104555761045161044061043a3660046103ea565b9161088d565b6104486100c2565b9182918261039f565b0390f35b6100c8565b1c90565b60ff1690565b610474906008610479930261045a565b61045e565b90565b906104879154610464565b90565b61049660025f9061047c565b90565b60ff1690565b6104a890610499565b9052565b91906104bf905f6020850194019061049f565b565b346104f1576104d13660046100d0565b6104ed6104dc61048a565b6104e46100c2565b918291826104ac565b0390f35b6100c8565b5f0190565b3461052a5761051461050e366004610360565b9061091c565b61051c6100c2565b80610526816104f6565b0390f35b6100c8565b9060208282031261054857610545915f0161032b565b90565b6100cc565b90565b61056461055f61056992610300565b61054d565b610300565b90565b61057590610550565b90565b6105819061056c565b90565b9061058e90610578565b5f5260205260405f2090565b90565b6105ad9060086105b2930261045a565b61059a565b90565b906105c0915461059d565b90565b6105d9906105d46003915f92610584565b6105b5565b90565b6105e59061033a565b9052565b91906105fc905f602085019401906105dc565b565b3461062e5761062a61061961061436600461052f565b6105c3565b6106216100c2565b918291826105e9565b0390f35b6100c8565b61063f60015f90610244565b90565b34610672576106523660046100d0565b61066e61065d610633565b6106656100c2565b918291826102b3565b0390f35b6100c8565b346106a65761069061068a366004610360565b90610945565b6106986100c2565b806106a2816104f6565b0390f35b6100c8565b346106dc576106d86106c76106c1366004610360565b9061096e565b6106cf6100c2565b9182918261039f565b0390f35b6100c8565b919060408382031261070957806106fd610706925f860161032b565b9360200161032b565b90565b6100cc565b9061071890610578565b5f5260205260405f2090565b61073d610742926107386004935f9461070e565b610584565b6105b5565b90565b346107765761077261076161075b3660046106e1565b90610724565b6107696100c2565b918291826105e9565b0390f35b6100c8565b5f80fd5b5f90565b5f1b90565b906107945f1991610783565b9181191691161790565b6107b26107ad6107b79261033a565b61054d565b61033a565b90565b90565b906107d26107cd6107d99261079e565b6107ba565b8254610788565b9055565b6107ff610804926107ec61077f565b50916107fa6004339061070e565b610584565b6107bd565b600190565b5f1c90565b61081a61081f91610809565b61059a565b90565b61082c905461080e565b90565b634e487b7160e01b5f52601160045260245ffd5b6108526108589193929361033a565b9261033a565b820391821161086357565b61082f565b61087761087d9193929361033a565b9261033a565b820180921161088857565b61082f565b610902610917936108fa610911936108a361077f565b506108d6836108d06108c16108ba6004869061070e565b3390610584565b916108cb83610822565b610843565b906107bd565b6108f46108e584926003610584565b916108ef83610822565b610843565b906107bd565b926003610584565b9161090c83610822565b610868565b906107bd565b600190565b61093d61092e61094393926003610584565b9161093883610822565b610868565b906107bd565b565b61096661095761096c93926003610584565b9161096183610822565b610843565b906107bd565b565b6109c06109b16109c69361098061077f565b506109a9816109a361099460033390610584565b9161099e83610822565b610843565b906107bd565b926003610584565b916109bb83610822565b610868565b906107bd565b60019056fea2646970667358221220a1b76cc781ad492b1615fdf69436c68c2253a8aa4553c0bc0525c4f97ec81bcf64736f6c634300081c0033","linkReferences":{}},"methodIdentifiers":{"allowance(address,address)":"dd62ed3e","approve(address,uint256)":"095ea7b3","balanceOf(address)":"70a08231","burn(address,uint256)":"9dc29fac","decimals()":"313ce567","mint(address,uint256)":"40c10f19","name()":"06fdde03","symbol()":"95d89b41","transfer(address,uint256)":"a9059cbb","transferFrom(address,address,uint256)":"23b872dd"},"id":53}