{
  "_format": "hh-sol-artifact-1",
  "contractName": "MockUSDT",
  "sourceName": "src/MockUSDT.sol",
  "abi": [
    {
      "inputs": [],
      "stateMutability": "nonpayable",
      "type": "constructor"
    },
    {
      "inputs": [
        {
          "internalType": "address",
          "name": "spender",
          "type": "address"
        },
        {
          "internalType": "uint256",
          "name": "allowance",
          "type": "uint256"
        },
        {
          "internalType": "uint256",
          "name": "needed",
          "type": "uint256"
        }
      ],
      "name": "ERC20InsufficientAllowance",
      "type": "error"
    },
    {
      "inputs": [
        {
          "internalType": "address",
          "name": "sender",
          "type": "address"
        },
        {
          "internalType": "uint256",
          "name": "balance",
          "type": "uint256"
        },
        {
          "internalType": "uint256",
          "name": "needed",
          "type": "uint256"
        }
      ],
      "name": "ERC20InsufficientBalance",
      "type": "error"
    },
    {
      "inputs": [
        {
          "internalType": "address",
          "name": "approver",
          "type": "address"
        }
      ],
      "name": "ERC20InvalidApprover",
      "type": "error"
    },
    {
      "inputs": [
        {
          "internalType": "address",
          "name": "receiver",
          "type": "address"
        }
      ],
      "name": "ERC20InvalidReceiver",
      "type": "error"
    },
    {
      "inputs": [
        {
          "internalType": "address",
          "name": "sender",
          "type": "address"
        }
      ],
      "name": "ERC20InvalidSender",
      "type": "error"
    },
    {
      "inputs": [
        {
          "internalType": "address",
          "name": "spender",
          "type": "address"
        }
      ],
      "name": "ERC20InvalidSpender",
      "type": "error"
    },
    {
      "inputs": [
        {
          "internalType": "address",
          "name": "owner",
          "type": "address"
        }
      ],
      "name": "OwnableInvalidOwner",
      "type": "error"
    },
    {
      "inputs": [
        {
          "internalType": "address",
          "name": "account",
          "type": "address"
        }
      ],
      "name": "OwnableUnauthorizedAccount",
      "type": "error"
    },
    {
      "anonymous": false,
      "inputs": [
        {
          "indexed": true,
          "internalType": "address",
          "name": "owner",
          "type": "address"
        },
        {
          "indexed": true,
          "internalType": "address",
          "name": "spender",
          "type": "address"
        },
        {
          "indexed": false,
          "internalType": "uint256",
          "name": "value",
          "type": "uint256"
        }
      ],
      "name": "Approval",
      "type": "event"
    },
    {
      "anonymous": false,
      "inputs": [
        {
          "indexed": true,
          "internalType": "address",
          "name": "previousOwner",
          "type": "address"
        },
        {
          "indexed": true,
          "internalType": "address",
          "name": "newOwner",
          "type": "address"
        }
      ],
      "name": "OwnershipTransferred",
      "type": "event"
    },
    {
      "anonymous": false,
      "inputs": [
        {
          "indexed": true,
          "internalType": "address",
          "name": "from",
          "type": "address"
        },
        {
          "indexed": true,
          "internalType": "address",
          "name": "to",
          "type": "address"
        },
        {
          "indexed": false,
          "internalType": "uint256",
          "name": "value",
          "type": "uint256"
        }
      ],
      "name": "Transfer",
      "type": "event"
    },
    {
      "inputs": [
        {
          "internalType": "address",
          "name": "owner",
          "type": "address"
        },
        {
          "internalType": "address",
          "name": "spender",
          "type": "address"
        }
      ],
      "name": "allowance",
      "outputs": [
        {
          "internalType": "uint256",
          "name": "",
          "type": "uint256"
        }
      ],
      "stateMutability": "view",
      "type": "function"
    },
    {
      "inputs": [
        {
          "internalType": "address",
          "name": "spender",
          "type": "address"
        },
        {
          "internalType": "uint256",
          "name": "value",
          "type": "uint256"
        }
      ],
      "name": "approve",
      "outputs": [
        {
          "internalType": "bool",
          "name": "",
          "type": "bool"
        }
      ],
      "stateMutability": "nonpayable",
      "type": "function"
    },
    {
      "inputs": [
        {
          "internalType": "address",
          "name": "account",
          "type": "address"
        }
      ],
      "name": "balanceOf",
      "outputs": [
        {
          "internalType": "uint256",
          "name": "",
          "type": "uint256"
        }
      ],
      "stateMutability": "view",
      "type": "function"
    },
    {
      "inputs": [],
      "name": "decimals",
      "outputs": [
        {
          "internalType": "uint8",
          "name": "",
          "type": "uint8"
        }
      ],
      "stateMutability": "view",
      "type": "function"
    },
    {
      "inputs": [
        {
          "internalType": "uint256",
          "name": "amount",
          "type": "uint256"
        }
      ],
      "name": "faucet",
      "outputs": [],
      "stateMutability": "nonpayable",
      "type": "function"
    },
    {
      "inputs": [
        {
          "internalType": "address",
          "name": "to",
          "type": "address"
        },
        {
          "internalType": "uint256",
          "name": "amount",
          "type": "uint256"
        }
      ],
      "name": "mint",
      "outputs": [],
      "stateMutability": "nonpayable",
      "type": "function"
    },
    {
      "inputs": [],
      "name": "name",
      "outputs": [
        {
          "internalType": "string",
          "name": "",
          "type": "string"
        }
      ],
      "stateMutability": "view",
      "type": "function"
    },
    {
      "inputs": [],
      "name": "owner",
      "outputs": [
        {
          "internalType": "address",
          "name": "",
          "type": "address"
        }
      ],
      "stateMutability": "view",
      "type": "function"
    },
    {
      "inputs": [],
      "name": "renounceOwnership",
      "outputs": [],
      "stateMutability": "nonpayable",
      "type": "function"
    },
    {
      "inputs": [],
      "name": "symbol",
      "outputs": [
        {
          "internalType": "string",
          "name": "",
          "type": "string"
        }
      ],
      "stateMutability": "view",
      "type": "function"
    },
    {
      "inputs": [],
      "name": "totalSupply",
      "outputs": [
        {
          "internalType": "uint256",
          "name": "",
          "type": "uint256"
        }
      ],
      "stateMutability": "view",
      "type": "function"
    },
    {
      "inputs": [
        {
          "internalType": "address",
          "name": "to",
          "type": "address"
        },
        {
          "internalType": "uint256",
          "name": "value",
          "type": "uint256"
        }
      ],
      "name": "transfer",
      "outputs": [
        {
          "internalType": "bool",
          "name": "",
          "type": "bool"
        }
      ],
      "stateMutability": "nonpayable",
      "type": "function"
    },
    {
      "inputs": [
        {
          "internalType": "address",
          "name": "from",
          "type": "address"
        },
        {
          "internalType": "address",
          "name": "to",
          "type": "address"
        },
        {
          "internalType": "uint256",
          "name": "value",
          "type": "uint256"
        }
      ],
      "name": "transferFrom",
      "outputs": [
        {
          "internalType": "bool",
          "name": "",
          "type": "bool"
        }
      ],
      "stateMutability": "nonpayable",
      "type": "function"
    },
    {
      "inputs": [
        {
          "internalType": "address",
          "name": "newOwner",
          "type": "address"
        }
      ],
      "name": "transferOwnership",
      "outputs": [],
      "stateMutability": "nonpayable",
      "type": "function"
    }
  ],
  "bytecode": "0x60806040523480156200001157600080fd5b503360405180604001604052806009815260200168135bd8dac81554d11560ba1b815250604051806040016040528060048152602001631554d11560e21b8152508160039081620000639190620001c0565b506004620000728282620001c0565b5050506001600160a01b038116620000a457604051631e4fbdf760e01b81526000600482015260240160405180910390fd5b620000af81620000c9565b506005805460ff60a01b1916600960a11b1790556200028c565b600580546001600160a01b038381166001600160a01b0319831681179093556040519116919082907f8be0079c531659141344cd1fd0a4f28419497f9722a3daafe3b4186f6b6457e090600090a35050565b634e487b7160e01b600052604160045260246000fd5b600181811c908216806200014657607f821691505b6020821081036200016757634e487b7160e01b600052602260045260246000fd5b50919050565b601f821115620001bb57600081815260208120601f850160051c81016020861015620001965750805b601f850160051c820191505b81811015620001b757828155600101620001a2565b5050505b505050565b81516001600160401b03811115620001dc57620001dc6200011b565b620001f481620001ed845462000131565b846200016d565b602080601f8311600181146200022c5760008415620002135750858301515b600019600386901b1c1916600185901b178555620001b7565b600085815260208120601f198616915b828110156200025d578886015182559484019460019091019084016200023c565b50858210156200027c5787850151600019600388901b60f8161c191681555b5050505050600190811b01905550565b610aab806200029c6000396000f3fe608060405234801561001057600080fd5b50600436106100ea5760003560e01c806370a082311161008c57806395d89b411161006657806395d89b41146101e8578063a9059cbb146101f0578063dd62ed3e14610203578063f2fde38b1461023c57600080fd5b806370a082311461019c578063715018a6146101c55780638da5cb5b146101cd57600080fd5b806323b872dd116100c857806323b872dd14610142578063313ce5671461015557806340c10f1914610174578063579158971461018957600080fd5b806306fdde03146100ef578063095ea7b31461010d57806318160ddd14610130575b600080fd5b6100f761024f565b60405161010491906107ca565b60405180910390f35b61012061011b366004610834565b6102e1565b6040519015158152602001610104565b6002545b604051908152602001610104565b61012061015036600461085e565b6102fb565b600554600160a01b900460ff1660405160ff9091168152602001610104565b610187610182366004610834565b61031f565b005b61018761019736600461089a565b610335565b6101346101aa3660046108b3565b6001600160a01b031660009081526020819052604090205490565b6101876103ba565b6005546040516001600160a01b039091168152602001610104565b6100f76103ce565b6101206101fe366004610834565b6103dd565b6101346102113660046108d5565b6001600160a01b03918216600090815260016020908152604080832093909416825291909152205490565b61018761024a3660046108b3565b6103eb565b60606003805461025e90610908565b80601f016020809104026020016040519081016040528092919081815260200182805461028a90610908565b80156102d75780601f106102ac576101008083540402835291602001916102d7565b820191906000526020600020905b8154815290600101906020018083116102ba57829003601f168201915b5050505050905090565b6000336102ef818585610426565b60019150505b92915050565b600033610309858285610438565b6103148585856104b7565b506001949350505050565b610327610516565b6103318282610543565b5050565b60055461034d90600160a01b900460ff16600a610a3c565b61035990612710610a4b565b8111156103ad5760405162461bcd60e51b815260206004820152601c60248201527f4d617820313030303020746f6b656e732070657220726571756573740000000060448201526064015b60405180910390fd5b6103b73382610543565b50565b6103c2610516565b6103cc6000610579565b565b60606004805461025e90610908565b6000336102ef8185856104b7565b6103f3610516565b6001600160a01b03811661041d57604051631e4fbdf760e01b8152600060048201526024016103a4565b6103b781610579565b61043383838360016105cb565b505050565b6001600160a01b038381166000908152600160209081526040808320938616835292905220546000198110156104b157818110156104a257604051637dc7a0d960e11b81526001600160a01b038416600482015260248101829052604481018390526064016103a4565b6104b1848484840360006105cb565b50505050565b6001600160a01b0383166104e157604051634b637e8f60e11b8152600060048201526024016103a4565b6001600160a01b03821661050b5760405163ec442f0560e01b8152600060048201526024016103a4565b6104338383836106a0565b6005546001600160a01b031633146103cc5760405163118cdaa760e01b81523360048201526024016103a4565b6001600160a01b03821661056d5760405163ec442f0560e01b8152600060048201526024016103a4565b610331600083836106a0565b600580546001600160a01b038381166001600160a01b0319831681179093556040519116919082907f8be0079c531659141344cd1fd0a4f28419497f9722a3daafe3b4186f6b6457e090600090a35050565b6001600160a01b0384166105f55760405163e602df0560e01b8152600060048201526024016103a4565b6001600160a01b03831661061f57604051634a1406b160e11b8152600060048201526024016103a4565b6001600160a01b03808516600090815260016020908152604080832093871683529290522082905580156104b157826001600160a01b0316846001600160a01b03167f8c5be1e5ebec7d5bd14f71427d1e84f3dd0314c0f7b2291e5b200ac8c7c3b9258460405161069291815260200190565b60405180910390a350505050565b6001600160a01b0383166106cb5780600260008282546106c09190610a62565b9091555061073d9050565b6001600160a01b0383166000908152602081905260409020548181101561071e5760405163391434e360e21b81526001600160a01b038516600482015260248101829052604481018390526064016103a4565b6001600160a01b03841660009081526020819052604090209082900390555b6001600160a01b03821661075957600280548290039055610778565b6001600160a01b03821660009081526020819052604090208054820190555b816001600160a01b0316836001600160a01b03167fddf252ad1be2c89b69c2b068fc378daa952ba7f163c4a11628f55a4df523b3ef836040516107bd91815260200190565b60405180910390a3505050565b600060208083528351808285015260005b818110156107f7578581018301518582016040015282016107db565b506000604082860101526040601f19601f8301168501019250505092915050565b80356001600160a01b038116811461082f57600080fd5b919050565b6000806040838503121561084757600080fd5b61085083610818565b946020939093013593505050565b60008060006060848603121561087357600080fd5b61087c84610818565b925061088a60208501610818565b9150604084013590509250925092565b6000602082840312156108ac57600080fd5b5035919050565b6000602082840312156108c557600080fd5b6108ce82610818565b9392505050565b600080604083850312156108e857600080fd5b6108f183610818565b91506108ff60208401610818565b90509250929050565b600181811c9082168061091c57607f821691505b60208210810361093c57634e487b7160e01b600052602260045260246000fd5b50919050565b634e487b7160e01b600052601160045260246000fd5b600181815b8085111561099357816000190482111561097957610979610942565b8085161561098657918102915b93841c939080029061095d565b509250929050565b6000826109aa575060016102f5565b816109b7575060006102f5565b81600181146109cd57600281146109d7576109f3565b60019150506102f5565b60ff8411156109e8576109e8610942565b50506001821b6102f5565b5060208310610133831016604e8410600b8410161715610a16575081810a6102f5565b610a208383610958565b8060001904821115610a3457610a34610942565b029392505050565b60006108ce60ff84168361099b565b80820281158282048414176102f5576102f5610942565b808201808211156102f5576102f561094256fea26469706673582212204995b3c356264e0749df2705d5e9f727284f340b620450c4bf651bc0e712170a64736f6c63430008140033",
  "linkReferences": {},
  "deployedLinkReferences": {}
}