{"abi":[{"type":"function","name":"assertExists","inputs":[{"name":"self","type":"tuple","internalType":"struct Variable","components":[{"name":"ty","type":"tuple","internalType":"struct Type","components":[{"name":"kind","type":"TypeKind","internalType":"enum TypeKind"},{"name":"isArray","type":"bool","internalType":"bool"}]},{"name":"data","type":"bytes","internalType":"bytes"}]}],"outputs":[],"stateMutability":"pure"},{"type":"error","name":"NotInitialized","inputs":[]},{"type":"error","name":"TypeMismatch","inputs":[{"name":"expected","type":"string","internalType":"string"},{"name":"actual","type":"string","internalType":"string"}]},{"type":"error","name":"UnsafeCast","inputs":[{"name":"message","type":"string","internalType":"string"}]}],"bytecode":{"object":"0x608060405234602057600e6024565b61032f61002f82393081505061032f90f35b602a565b60405190565b5f80fdfe60806040526004361015610013575b610271565b61001d5f3561002c565b6315af8fee0361000e57610248565b60e01c90565b60405190565b5f80fd5b5f80fd5b5f80fd5b601f801991011690565b634e487b7160e01b5f52604160045260245ffd5b9061006c90610044565b810190811067ffffffffffffffff82111761008657604052565b61004e565b9061009e610097610032565b9283610062565b565b5f80fd5b600811156100ae57565b5f80fd5b905035906100bf826100a4565b565b151590565b6100cf816100c1565b036100d657565b5f80fd5b905035906100e7826100c6565b565b91906040838203126101235761011c90610103604061008b565b93610110825f83016100b2565b5f8601526020016100da565b6020830152565b610040565b5f80fd5b5f80fd5b67ffffffffffffffff811161014e5761014a602091610044565b0190565b61004e565b90825f939282370152565b9092919261017361016e82610130565b61008b565b9381855260208501908284011161018f5761018d92610153565b565b61012c565b9080601f830112156101b2578160206101af9335910161015e565b90565b610128565b919091606081840312610209576101ce604061008b565b926101db815f84016100e9565b5f850152604082013567ffffffffffffffff8111610204576101fd9201610194565b6020830152565b6100a0565b610040565b9060208282031261023e575f82013567ffffffffffffffff81116102395761023692016101b7565b90565b61003c565b610038565b5f0190565b61025b61025636600461020e565b6102b6565b610263610032565b8061026d81610243565b0390f35b5f80fd5b634e487b7160e01b5f52602160045260245ffd5b6008111561029357565b610275565b906102a282610289565b565b6102ae9051610298565b90565b5f0190565b5f806102c4920151016102a4565b6102d66102d05f610298565b91610298565b146102dd57565b5f6321c4e35760e21b8152806102f5600482016102b1565b0390fdfea26469706673582212209a5e097f27a27a14fea0f34df4c636fc316e105300a8a94ac7867340e37626c264736f6c634300081c0033","linkReferences":{}},"methodIdentifiers":{"assertExists(Variable)":"15af8fee"},"id":4}