{"abi":[{"type":"constructor","inputs":[{"name":"token_","type":"address","internalType":"address"},{"name":"withdrawPenalty_","type":"uint256","internalType":"uint256"},{"name":"planDays_","type":"uint256[]","internalType":"uint256[]"},{"name":"planReturns_","type":"uint256[]","internalType":"uint256[]"}],"stateMutability":"nonpayable"},{"type":"function","name":"_plans","inputs":[{"name":"","type":"uint256","internalType":"uint256"}],"outputs":[{"name":"","type":"uint256","internalType":"uint256"}],"stateMutability":"view"},{"type":"function","name":"_returns","inputs":[{"name":"","type":"uint256","internalType":"uint256"}],"outputs":[{"name":"","type":"uint256","internalType":"uint256"}],"stateMutability":"view"},{"type":"function","name":"_token","inputs":[],"outputs":[{"name":"","type":"address","internalType":"contract IERC20"}],"stateMutability":"view"},{"type":"function","name":"_withdrawPenalty","inputs":[],"outputs":[{"name":"","type":"uint256","internalType":"uint256"}],"stateMutability":"view"},{"type":"function","name":"claim","inputs":[{"name":"index","type":"uint256","internalType":"uint256"}],"outputs":[],"stateMutability":"nonpayable"},{"type":"function","name":"emergencyWithdraw","inputs":[{"name":"index","type":"uint256","internalType":"uint256"}],"outputs":[],"stateMutability":"nonpayable"},{"type":"function","name":"getAllPlans","inputs":[],"outputs":[{"name":"durations","type":"uint256[]","internalType":"uint256[]"},{"name":"returns_","type":"uint256[]","internalType":"uint256[]"}],"stateMutability":"view"},{"type":"function","name":"getStakesOfUser","inputs":[{"name":"user","type":"address","internalType":"address"}],"outputs":[{"name":"","type":"tuple[]","internalType":"struct Staking.StakeInfo[]","components":[{"name":"user","type":"address","internalType":"address"},{"name":"amount","type":"uint256","internalType":"uint256"},{"name":"totalReturn","type":"uint256","internalType":"uint256"},{"name":"planDays","type":"uint256","internalType":"uint256"},{"name":"planReturn","type":"uint256","internalType":"uint256"},{"name":"stakedOn","type":"uint256","internalType":"uint256"},{"name":"maturesOn","type":"uint256","internalType":"uint256"},{"name":"claimed","type":"bool","internalType":"bool"},{"name":"emergencyWithdraw","type":"bool","internalType":"bool"}]}],"stateMutability":"view"},{"type":"function","name":"stake","inputs":[{"name":"amount","type":"uint256","internalType":"uint256"},{"name":"planIndex","type":"uint256","internalType":"uint256"}],"outputs":[],"stateMutability":"nonpayable"},{"type":"function","name":"stakes","inputs":[{"name":"user","type":"address","internalType":"address"},{"name":"index","type":"uint256","internalType":"uint256"}],"outputs":[{"name":"","type":"tuple","internalType":"struct Staking.StakeInfo","components":[{"name":"user","type":"address","internalType":"address"},{"name":"amount","type":"uint256","internalType":"uint256"},{"name":"totalReturn","type":"uint256","internalType":"uint256"},{"name":"planDays","type":"uint256","internalType":"uint256"},{"name":"planReturn","type":"uint256","internalType":"uint256"},{"name":"stakedOn","type":"uint256","internalType":"uint256"},{"name":"maturesOn","type":"uint256","internalType":"uint256"},{"name":"claimed","type":"bool","internalType":"bool"},{"name":"emergencyWithdraw","type":"bool","internalType":"bool"}]}],"stateMutability":"view"},{"type":"function","name":"tokenBalanceOf","inputs":[],"outputs":[{"name":"","type":"uint256","internalType":"uint256"}],"stateMutability":"view"},{"type":"event","name":"Claimed","inputs":[{"name":"user","type":"address","indexed":true,"internalType":"address"},{"name":"amount","type":"uint256","indexed":false,"internalType":"uint256"}],"anonymous":false},{"type":"event","name":"EmergencyWithdrawn","inputs":[{"name":"user","type":"address","indexed":true,"internalType":"address"},{"name":"amount","type":"uint256","indexed":false,"internalType":"uint256"},{"name":"penalty","type":"uint256","indexed":false,"internalType":"uint256"}],"anonymous":false},{"type":"event","name":"Staked","inputs":[{"name":"user","type":"address","indexed":true,"internalType":"address"},{"name":"amount","type":"uint256","indexed":false,"internalType":"uint256"},{"name":"planDays","type":"uint256","indexed":false,"internalType":"uint256"},{"name":"maturesOn","type":"uint256","indexed":false,"internalType":"uint256"}],"anonymous":false},{"type":"error","name":"SafeERC20FailedOperation","inputs":[{"name":"token","type":"address","internalType":"address"}]}],"bytecode":{"object":"0x6080604052346100335761001d610014610214565b929190916105f5565b610025610038565b611c9a6107168239611c9a90f35b61003e565b60405190565b5f80fd5b601f801991011690565b634e487b7160e01b5f52604160045260245ffd5b9061006a90610042565b810190811060018060401b0382111761008257604052565b61004c565b9061009a610093610038565b9283610060565b565b5f80fd5b5f80fd5b60018060a01b031690565b6100b8906100a4565b90565b6100c4816100af565b036100cb57565b5f80fd5b905051906100dc826100bb565b565b90565b6100ea816100de565b036100f157565b5f80fd5b90505190610102826100e1565b565b5f80fd5b60018060401b03811161011e5760208091020190565b61004c565b5f80fd5b9092919261013c61013782610108565b610087565b938185526020808601920283019281841161017957915b8383106101605750505050565b6020809161016e84866100f5565b815201920191610153565b610123565b9080601f8301121561019c5781602061019993519101610127565b90565b610104565b9060808282031261020f576101b8815f84016100cf565b926101c682602085016100f5565b92604081015160018060401b03811161020a57836101e591830161017e565b92606082015160018060401b03811161020557610202920161017e565b90565b6100a0565b6100a0565b61009c565b6102326123b08038038061022781610087565b9283398101906101a1565b90919293565b90565b90565b61025261024d61025792610238565b61023b565b6100a4565b90565b6102639061023e565b90565b60209181520190565b5f7f7a65726f20746f6b656e00000000000000000000000000000000000000000000910152565b6102a3600a602092610266565b6102ac8161026f565b0190565b6102c59060208101905f818303910152610296565b90565b156102cf57565b6102d7610038565b62461bcd60e51b8152806102ed600482016102b0565b0390fd5b5190565b5f7f706c616e73206c656e677468206d69736d617463680000000000000000000000910152565b6103296015602092610266565b610332816102f5565b0190565b61034b9060208101905f81830391015261031c565b90565b1561035557565b61035d610038565b62461bcd60e51b81528061037360048201610336565b0390fd5b61038b61038661039092610238565b61023b565b6100de565b90565b5f7f6e6f20706c616e73000000000000000000000000000000000000000000000000910152565b6103c76008602092610266565b6103d081610393565b0190565b6103e99060208101905f8183039101526103ba565b90565b156103f357565b6103fb610038565b62461bcd60e51b815280610411600482016103d4565b0390fd5b61042961042461042e926100a4565b61023b565b6100a4565b90565b61043a90610415565b90565b61044690610431565b90565b5f1b90565b9061045f60018060a01b0391610449565b9181191691161790565b61047290610431565b90565b90565b9061048d61048861049492610469565b610475565b825461044e565b9055565b906104a45f1991610449565b9181191691161790565b6104c26104bd6104c7926100de565b61023b565b6100de565b90565b90565b906104e26104dd6104e9926104ae565b6104ca565b8254610498565b9055565b60016104f991016100de565b90565b90565b634e487b7160e01b5f52603260045260245ffd5b9061051d826102f1565b81101561052e576020809102010190565b6104ff565b61053d90516100de565b90565b5f5260205f2090565b5490565b61055681610549565b82101561057057610568600191610540565b910201905f90565b6104ff565b1b90565b9190600861059491029161058e5f1984610575565b92610575565b9181191691161790565b91906105b46105af6105bc936104ae565b6104ca565b908354610579565b9055565b90815491680100000000000000008310156105f057826105e89160016105ee9501815561054d565b9061059e565b565b61004c565b9061068361067d61068a939695966106288161062161061b6106165f61025a565b6100af565b916100af565b14156102c8565b610654610634876102f1565b61064e6106486106438c6102f1565b6100de565b916100de565b1461034e565b610678610660876102f1565b61067261066c5f610377565b916100de565b116103ec565b61043d565b5f610478565b60016104cd565b6106935f610377565b5b806106af6106a96106a4856102f1565b6100de565b916100de565b101561070f5761070a906106df6106c660026104fc565b6106d96106d4868590610513565b610533565b906105c0565b6107056106ec60036104fc565b6106ff6106fa888590610513565b610533565b906105c0565b6104ed565b610694565b5050905056fe60806040526004361015610013575b610885565b61001d5f356100cc565b80632acb6c12146100c7578063379607f5146100c25780635312ea8e146100bd578063584b62a1146100b85780636eb6c2de146100b35780637b0472f0146100ae57806398de396a146100a9578063a08f663a146100a4578063acba366f1461009f578063d6bdbf781461009a5763ecd0c0c30361000e57610850565b610783565b61074e565b6106ed565b610563565b61048a565b610428565b61037d565b6101fe565b6101cb565b610150565b60e01c90565b60405190565b5f80fd5b5f80fd5b5f9103126100ea57565b6100dc565b1c90565b90565b61010690600861010b93026100ef565b6100f3565b90565b9061011991546100f6565b90565b61012860015f9061010e565b90565b90565b6101379061012b565b9052565b919061014e905f6020850194019061012e565b565b34610180576101603660046100e0565b61017c61016b61011c565b6101736100d2565b9182918261013b565b0390f35b6100d8565b61018e8161012b565b0361019557565b5f80fd5b905035906101a682610185565b565b906020828203126101c1576101be915f01610199565b90565b6100dc565b5f0190565b346101f9576101e36101de3660046101a8565b610bd3565b6101eb6100d2565b806101f5816101c6565b0390f35b6100d8565b3461022c576102166102113660046101a8565b610ea6565b61021e6100d2565b80610228816101c6565b0390f35b6100d8565b60018060a01b031690565b61024590610231565b90565b6102518161023c565b0361025857565b5f80fd5b9050359061026982610248565b565b91906040838203126102935780610287610290925f860161025c565b93602001610199565b90565b6100dc565b6102a19061023c565b9052565b6102ae9061012b565b9052565b151590565b6102c0906102b2565b9052565b9061010080610365936102dd5f8201515f860190610298565b6102ef602082015160208601906102a5565b610301604082015160408601906102a5565b610313606082015160608601906102a5565b610325608082015160808601906102a5565b61033760a082015160a08601906102a5565b61034960c082015160c08601906102a5565b61035b60e082015160e08601906102b7565b01519101906102b7565b565b919061037b905f61012085019401906102c4565b565b346103ae576103aa61039961039336600461026b565b9061121b565b6103a16100d2565b91829182610367565b0390f35b6100d8565b634e487b7160e01b5f52603260045260245ffd5b5490565b5f5260205f2090565b6103dd816103c7565b8210156103f7576103ef6001916103cb565b910201905f90565b6103b3565b6002610407816103c7565b821015610424576104219161041b916103d4565b9061010e565b90565b5f80fd5b346104585761045461044361043e3660046101a8565b6103fc565b61044b6100d2565b9182918261013b565b0390f35b6100d8565b91906040838203126104855780610479610482925f8601610199565b93602001610199565b90565b6100dc565b346104b9576104a361049d36600461045d565b90611658565b6104ab6100d2565b806104b5816101c6565b0390f35b6100d8565b5190565b60209181520190565b60200190565b906104de816020936102a5565b0190565b60200190565b906105056104ff6104f8846104be565b80936104c2565b926104cb565b905f5b8181106105155750505090565b90919261052e61052860019286516104d1565b946104e2565b9101919091610508565b90916105526105609360408401908482035f8601526104e8565b9160208184039101526104e8565b90565b34610594576105733660046100e0565b61057b611909565b906105906105876100d2565b92839283610538565b0390f35b6100d8565b906020828203126105b2576105af915f0161025c565b90565b6100dc565b5190565b60209181520190565b60200190565b906101008061066b936105e35f8201515f860190610298565b6105f5602082015160208601906102a5565b610607604082015160408601906102a5565b610619606082015160608601906102a5565b61062b608082015160808601906102a5565b61063d60a082015160a08601906102a5565b61064f60c082015160c08601906102a5565b61066160e082015160e08601906102b7565b01519101906102b7565b565b9061067b81610120936105ca565b0190565b60200190565b906106a261069c610695846105b7565b80936105bb565b926105c4565b905f5b8181106106b25750505090565b9091926106cb6106c5600192865161066d565b9461067f565b91019190916106a5565b6106ea9160208201915f818403910152610685565b90565b3461071d57610719610708610703366004610599565b6119c9565b6107106100d2565b918291826106d5565b0390f35b6100d8565b600361072d816103c7565b82101561074a5761074791610741916103d4565b9061010e565b90565b5f80fd5b3461077e5761077a6107696107643660046101a8565b610722565b6107716100d2565b9182918261013b565b0390f35b6100d8565b346107b3576107933660046100e0565b6107af61079e611a51565b6107a66100d2565b9182918261013b565b0390f35b6100d8565b60018060a01b031690565b6107d39060086107d893026100ef565b6107b8565b90565b906107e691546107c3565b90565b6107f45f5f906107db565b90565b90565b61080e61080961081392610231565b6107f7565b610231565b90565b61081f906107fa565b90565b61082b90610816565b90565b61083790610822565b9052565b919061084e905f6020850194019061082e565b565b34610880576108603660046100e0565b61087c61086b6107e9565b6108736100d2565b9182918261083b565b0390f35b6100d8565b5f80fd5b61089290610816565b90565b9061089f90610889565b5f5260205260405f2090565b5490565b60209181520190565b5f7f696e76616c696420696e64657800000000000000000000000000000000000000910152565b6108ec600d6020926108af565b6108f5816108b8565b0190565b61090e9060208101905f8183039101526108df565b90565b1561091857565b6109206100d2565b62461bcd60e51b815280610936600482016108f9565b0390fd5b5f5260205f2090565b61094c816108ab565b8210156109665761095e60089161093a565b910201905f90565b6103b3565b90565b5f1c90565b60ff1690565b61098561098a9161096e565b610973565b90565b6109979054610979565b90565b5f7f616c726561647920636c61696d65640000000000000000000000000000000000910152565b6109ce600f6020926108af565b6109d78161099a565b0190565b6109f09060208101905f8183039101526109c1565b90565b156109fa57565b610a026100d2565b62461bcd60e51b815280610a18600482016109db565b0390fd5b60081c90565b610a2e610a3391610a1c565b610973565b90565b610a409054610a22565b90565b5f7f656d657267656e63792077697468647261776e00000000000000000000000000910152565b610a7760136020926108af565b610a8081610a43565b0190565b610a999060208101905f818303910152610a6a565b90565b15610aa357565b610aab6100d2565b62461bcd60e51b815280610ac160048201610a84565b0390fd5b610ad1610ad69161096e565b6100f3565b90565b610ae39054610ac5565b90565b5f7f6e6f74206d617475726564000000000000000000000000000000000000000000910152565b610b1a600b6020926108af565b610b2381610ae6565b0190565b610b3c9060208101905f818303910152610b0d565b90565b15610b4657565b610b4e6100d2565b62461bcd60e51b815280610b6460048201610b27565b0390fd5b5f1b90565b90610b7960ff91610b68565b9181191691161790565b610b8c906102b2565b90565b90565b90610ba7610ba2610bae92610b83565b610b8f565b8254610b6d565b9055565b610bbe610bc39161096e565b6107b8565b90565b610bd09054610bb2565b90565b610c1a610c2091610c0981610c03610bfd610bf8610bf360043390610895565b6108ab565b61012b565b9161012b565b10610911565b610c1560043390610895565b610943565b5061096b565b610c3d610c38610c326007840161098d565b156102b2565b6109f3565b610c5a610c55610c4f60078401610a36565b156102b2565b610a9c565b610c8242610c7b610c75610c7060068601610ad9565b61012b565b9161012b565b1015610b3f565b610c90600160078301610b92565b610caf610c9c5f610bc6565b33610ca960028501610ad9565b91611aeb565b610cbc6002339201610ad9565b90610cfc610cea7fd8138f8a3f377c5259ca548e70e4c2de94f129f5a11036a15b69513cba2b426a92610889565b92610cf36100d2565b9182918261013b565b0390a2565b5f7f616c726561647920656d657267656e63792077697468647261776e0000000000910152565b610d35601b6020926108af565b610d3e81610d01565b0190565b610d579060208101905f818303910152610d28565b90565b15610d6157565b610d696100d2565b62461bcd60e51b815280610d7f60048201610d42565b0390fd5b60081b90565b90610d9661ff0091610d83565b9181191691161790565b90610db5610db0610dbc92610b83565b610b8f565b8254610d89565b9055565b634e487b7160e01b5f52601160045260245ffd5b610de3610de99193929361012b565b9261012b565b91610df583820261012b565b928184041490151715610e0457565b610dc0565b90565b610e20610e1b610e2592610e09565b6107f7565b61012b565b90565b634e487b7160e01b5f52601260045260245ffd5b610e48610e4e9161012b565b9161012b565b908115610e59570490565b610e28565b610e6d610e739193929361012b565b9261012b565b8203918211610e7e57565b610dc0565b916020610ea4929493610e9d60408201965f83019061012e565b019061012e565b565b610eed610ef391610edc81610ed6610ed0610ecb610ec660043390610895565b6108ab565b61012b565b9161012b565b10610911565b610ee860043390610895565b610943565b5061096b565b610f10610f0b610f056007840161098d565b156102b2565b6109f3565b610f2d610f28610f2260078401610a36565b156102b2565b610d5a565b610f3b600160078301610da0565b610f82610f7b6001610f74610f63610f54838701610ad9565b610f5d84610ad9565b90610dd4565b610f6e612710610e0c565b90610e3c565b9301610ad9565b8290610e5e565b610f96610f8e5f610bc6565b338391611aeb565b339091610fc37fb47853100b79d8afa66237bdb4f7f09d96628ee23aa8aac8a8c21a901c67ddb292610889565b92610fd8610fcf6100d2565b92839283610e83565b0390a2565b601f801991011690565b634e487b7160e01b5f52604160045260245ffd5b9061100590610fdd565b810190811067ffffffffffffffff82111761101f57604052565b610fe7565b906110376110306100d2565b9283610ffb565b565b611044610120611024565b90565b5f90565b5f90565b5f90565b61105b611039565b90602080808080808080808a61106f611047565b81520161107a61104b565b81520161108561104b565b81520161109061104b565b81520161109b61104b565b8152016110a661104b565b8152016110b161104b565b8152016110bc61104f565b8152016110c761104f565b81525050565b6110d5611053565b90565b60018060a01b031690565b6110ef6110f49161096e565b6110d8565b90565b61110190546110e3565b90565b9061110e9061023c565b9052565b9061111c9061012b565b9052565b9061112a906102b2565b9052565b9061120d611203600761113f611039565b9461115661114e5f83016110f7565b5f8801611104565b61116e61116560018301610ad9565b60208801611112565b61118661117d60028301610ad9565b60408801611112565b61119e61119560038301610ad9565b60608801611112565b6111b66111ad60048301610ad9565b60808801611112565b6111ce6111c560058301610ad9565b60a08801611112565b6111e66111dd60068301610ad9565b60c08801611112565b6111fd6111f483830161098d565b60e08801611120565b01610a36565b6101008401611120565b565b6112189061112e565b90565b6112709161126561126a9261122e6110cd565b5061125e8361125861125261124d61124860048790610895565b6108ab565b61012b565b9161012b565b10610911565b6004610895565b610943565b5061120f565b90565b90565b61128a61128561128f92611273565b6107f7565b61012b565b90565b5f7f616d6f756e74207a65726f000000000000000000000000000000000000000000910152565b6112c6600b6020926108af565b6112cf81611292565b0190565b6112e89060208101905f8183039101526112b9565b90565b156112f257565b6112fa6100d2565b62461bcd60e51b815280611310600482016112d3565b0390fd5b5f7f696e76616c696420706c616e0000000000000000000000000000000000000000910152565b611348600c6020926108af565b61135181611314565b0190565b61136a9060208101905f81830391015261133b565b90565b1561137457565b61137c6100d2565b62461bcd60e51b81528061139260048201611355565b0390fd5b6113a56113ab9193929361012b565b9261012b565b82018092116113b657565b610dc0565b6113c490610816565b90565b90565b90565b6113e16113dc6113e6926113ca565b6107f7565b61012b565b90565b6113f4610120611024565b90565b5f5260205f2090565b5490565b61140d81611400565b8210156114275761141f6008916113f7565b910201905f90565b6103b3565b634e487b7160e01b5f525f60045260245ffd5b611449905161023c565b90565b9061145d60018060a01b0391610b68565b9181191691161790565b90565b9061147f61147a61148692610889565b611467565b825461144c565b9055565b611494905161012b565b90565b906114a35f1991610b68565b9181191691161790565b6114c16114bc6114c69261012b565b6107f7565b61012b565b90565b90565b906114e16114dc6114e8926114ad565b6114c9565b8254611497565b9055565b6114f690516102b2565b90565b906115d361010060076115d99461151d5f82016115175f880161143f565b9061146a565b611536600182016115306020880161148a565b906114cc565b61154f600282016115496040880161148a565b906114cc565b611568600382016115626060880161148a565b906114cc565b6115816004820161157b6080880161148a565b906114cc565b61159a6005820161159460a0880161148a565b906114cc565b6115b3600682016115ad60c0880161148a565b906114cc565b6115cb8282016115c560e088016114ec565b90610b92565b0192016114ec565b90610da0565b565b91906115ec576115ea916114f9565b565b61142c565b9081549168010000000000000000831015611621578261161991600161161f95018155611404565b906115db565b565b610fe7565b60409061164f611656949695939661164560608401985f85019061012e565b602083019061012e565b019061012e565b565b805f61166390611276565b9061166d9061012b565b11611677906112eb565b816002611683906103c7565b61168c9061012b565b906116969061012b565b106116a09061136d565b6002826116ac916103d4565b6116b59161010e565b916003906116c2916103d4565b6116cb9161010e565b8182826116d791610dd4565b6127106116e390610e0c565b6116ec91610e3c565b6116f591611396565b906116ff5f610bc6565b333061170a906113bb565b859161171593611b32565b60043361172191610895565b61172a906113c7565b91339184919086904290428962015180611743906113cd565b61174c91610dd4565b61175591611396565b925f945f966117626113e9565b985f8a019061177091611104565b602089019061177e91611112565b604088019061178c91611112565b606087019061179a91611112565b60808601906117a891611112565b60a08501906117b691611112565b60c08401906117c491611112565b60e08301906117d291611120565b6101008201906117e191611120565b6117ea916115f1565b339091804290620151806117fd906113cd565b61180691610dd4565b61180f91611396565b907fb4caaf29adda3eefee3ad552a8e85058589bf834c7466cae4ee58787f70589ed9261183b90610889565b936118446100d2565b9283926118519284611626565b0390a2565b606090565b60209181520190565b61186e9054610ac5565b90565b60010190565b9061189461188e611887846103c7565b809361185b565b926103cb565b905f5b8181106118a45750505090565b9091926118c46118be6001926118b987611864565b6104d1565b94611871565b9101919091611897565b906118d891611877565b90565b906118fb6118f4926118eb6100d2565b938480926118ce565b0383610ffb565b565b611906906118db565b90565b611911611856565b5061191a611856565b5060029061193261192c6003936118fd565b926118fd565b90565b606090565b67ffffffffffffffff81116119525760208091020190565b610fe7565b906119696119648361193a565b611024565b918252565b90611978826108ab565b61198181611957565b9261198f602085019161093a565b5f915b83831061199f5750505050565b600860206001926119af8561120f565b815201920192019190611992565b6119c69061196e565b90565b6119e06119e5916119d8611935565b506004610895565b6119bd565b90565b5f90565b60e01b90565b905051906119ff82610185565b565b90602082820312611a1a57611a17915f016119f2565b90565b6100dc565b611a289061023c565b9052565b9190611a3f905f60208501940190611a1f565b565b611a496100d2565b3d5f823e3d90fd5b611a596119e8565b50611aa26020611a70611a6b5f610bc6565b610822565b6370a0823190611a97611a82306113bb565b92611a8b6100d2565b958694859384936119ec565b835260048301611a2c565b03915afa908115611ae6575f91611ab8575b5090565b611ad9915060203d8111611adf575b611ad18183610ffb565b810190611a01565b5f611ab4565b503d611ac7565b611a41565b91611b0491611afe918491600192611b81565b156102b2565b611b0b5750565b611b17611b2e91610822565b5f918291635274afe760e01b835260048301611a2c565b0390fd5b9290611b4f92611b49928592919091600193611beb565b156102b2565b611b565750565b611b62611b7991610822565b5f918291635274afe760e01b835260048301611a2c565b0390fd5b5f90565b9091939293611b8e611b7d565b5063a9059cbb60e01b92604051935f525f1960601c1660045260245260205f60448180855af19360015f5114851615611bc9575b5050604052565b8492941516611be2575f903b113d151616915f80611bc2565b833d5f823e3d90fd5b91949394929092611bfa611b7d565b506323b872dd60e01b93604051945f525f1960601c166004525f1960601c1660245260445260205f60648180855af19360015f5114851615611c42575b50506040525f606052565b8492941516611c5b575f903b113d151616915f80611c37565b833d5f823e3d90fdfea2646970667358221220298836532291c79f1b9d9ae0bd5715ba822161a0093f75dfa7bf01f9fdd9fe3464736f6c634300081c0033","linkReferences":{}},"methodIdentifiers":{"_plans(uint256)":"6eb6c2de","_returns(uint256)":"acba366f","_token()":"ecd0c0c3","_withdrawPenalty()":"2acb6c12","claim(uint256)":"379607f5","emergencyWithdraw(uint256)":"5312ea8e","getAllPlans()":"98de396a","getStakesOfUser(address)":"a08f663a","stake(uint256,uint256)":"7b0472f0","stakes(address,uint256)":"584b62a1","tokenBalanceOf()":"d6bdbf78"},"id":1}