{"abi":[{"type":"constructor","inputs":[{"name":"_saleToken","type":"address","internalType":"address"},{"name":"_usdt","type":"address","internalType":"address"},{"name":"_bnbUsdFeed","type":"address","internalType":"address"}],"stateMutability":"nonpayable"},{"type":"receive","stateMutability":"payable"},{"type":"function","name":"BNB_USD_FEED","inputs":[],"outputs":[{"name":"","type":"address","internalType":"contract IAggregatorV3Interface"}],"stateMutability":"view"},{"type":"function","name":"ORACLE_DECIMALS","inputs":[],"outputs":[{"name":"","type":"uint256","internalType":"uint256"}],"stateMutability":"view"},{"type":"function","name":"ORACLE_STALENESS_THRESHOLD","inputs":[],"outputs":[{"name":"","type":"uint256","internalType":"uint256"}],"stateMutability":"view"},{"type":"function","name":"PRECISION_18","inputs":[],"outputs":[{"name":"","type":"uint256","internalType":"uint256"}],"stateMutability":"view"},{"type":"function","name":"SALE_TOKEN","inputs":[],"outputs":[{"name":"","type":"address","internalType":"contract IERC20"}],"stateMutability":"view"},{"type":"function","name":"USDT","inputs":[],"outputs":[{"name":"","type":"address","internalType":"contract IERC20"}],"stateMutability":"view"},{"type":"function","name":"acceptOwnership","inputs":[],"outputs":[],"stateMutability":"nonpayable"},{"type":"function","name":"activateStage","inputs":[{"name":"stageId","type":"uint256","internalType":"uint256"}],"outputs":[],"stateMutability":"nonpayable"},{"type":"function","name":"addStage","inputs":[{"name":"price","type":"uint256","internalType":"uint256"},{"name":"supply","type":"uint256","internalType":"uint256"},{"name":"minPerUser","type":"uint256","internalType":"uint256"},{"name":"maxPerUser","type":"uint256","internalType":"uint256"}],"outputs":[],"stateMutability":"nonpayable"},{"type":"function","name":"buyWithNative","inputs":[],"outputs":[],"stateMutability":"payable"},{"type":"function","name":"buyWithToken","inputs":[{"name":"paymentToken","type":"address","internalType":"address"},{"name":"paymentAmount","type":"uint256","internalType":"uint256"}],"outputs":[],"stateMutability":"nonpayable"},{"type":"function","name":"currentStage","inputs":[],"outputs":[{"name":"","type":"uint256","internalType":"uint256"}],"stateMutability":"view"},{"type":"function","name":"currentStageIndex","inputs":[],"outputs":[{"name":"","type":"uint256","internalType":"uint256"}],"stateMutability":"view"},{"type":"function","name":"currentStageInfo","inputs":[],"outputs":[{"name":"price","type":"uint256","internalType":"uint256"},{"name":"supply","type":"uint256","internalType":"uint256"},{"name":"sold","type":"uint256","internalType":"uint256"},{"name":"minPerUser","type":"uint256","internalType":"uint256"},{"name":"maxPerUser","type":"uint256","internalType":"uint256"},{"name":"active","type":"bool","internalType":"bool"}],"stateMutability":"view"},{"type":"function","name":"nativeRateOverride","inputs":[],"outputs":[{"name":"","type":"uint256","internalType":"uint256"}],"stateMutability":"view"},{"type":"function","name":"owner","inputs":[],"outputs":[{"name":"","type":"address","internalType":"address"}],"stateMutability":"view"},{"type":"function","name":"pause","inputs":[],"outputs":[],"stateMutability":"nonpayable"},{"type":"function","name":"paused","inputs":[],"outputs":[{"name":"","type":"bool","internalType":"bool"}],"stateMutability":"view"},{"type":"function","name":"pendingOwner","inputs":[],"outputs":[{"name":"","type":"address","internalType":"address"}],"stateMutability":"view"},{"type":"function","name":"previewPurchase","inputs":[{"name":"paymentAmount","type":"uint256","internalType":"uint256"},{"name":"isNative","type":"bool","internalType":"bool"}],"outputs":[{"name":"usdtAmount","type":"uint256","internalType":"uint256"},{"name":"tokenAmount","type":"uint256","internalType":"uint256"},{"name":"stage","type":"uint256","internalType":"uint256"},{"name":"remainingSupply","type":"uint256","internalType":"uint256"}],"stateMutability":"view"},{"type":"function","name":"renounceOwnership","inputs":[],"outputs":[],"stateMutability":"nonpayable"},{"type":"function","name":"setNativeToUsdtRate","inputs":[{"name":"rate","type":"uint256","internalType":"uint256"}],"outputs":[],"stateMutability":"nonpayable"},{"type":"function","name":"stageCount","inputs":[],"outputs":[{"name":"","type":"uint256","internalType":"uint256"}],"stateMutability":"view"},{"type":"function","name":"stages","inputs":[{"name":"","type":"uint256","internalType":"uint256"}],"outputs":[{"name":"price","type":"uint256","internalType":"uint256"},{"name":"supply","type":"uint256","internalType":"uint256"},{"name":"sold","type":"uint256","internalType":"uint256"},{"name":"minPerUser","type":"uint256","internalType":"uint256"},{"name":"maxPerUser","type":"uint256","internalType":"uint256"},{"name":"active","type":"bool","internalType":"bool"}],"stateMutability":"view"},{"type":"function","name":"tokenPrice","inputs":[],"outputs":[{"name":"","type":"uint256","internalType":"uint256"}],"stateMutability":"view"},{"type":"function","name":"tokensRemaining","inputs":[],"outputs":[{"name":"","type":"uint256","internalType":"uint256"}],"stateMutability":"view"},{"type":"function","name":"totalAllocation","inputs":[],"outputs":[{"name":"","type":"uint256","internalType":"uint256"}],"stateMutability":"view"},{"type":"function","name":"totalRaised","inputs":[],"outputs":[{"name":"","type":"uint256","internalType":"uint256"}],"stateMutability":"view"},{"type":"function","name":"totalTokensSold","inputs":[],"outputs":[{"name":"","type":"uint256","internalType":"uint256"}],"stateMutability":"view"},{"type":"function","name":"transferOwnership","inputs":[{"name":"newOwner","type":"address","internalType":"address"}],"outputs":[],"stateMutability":"nonpayable"},{"type":"function","name":"unpause","inputs":[],"outputs":[],"stateMutability":"nonpayable"},{"type":"function","name":"updateStage","inputs":[{"name":"stageId","type":"uint256","internalType":"uint256"},{"name":"price","type":"uint256","internalType":"uint256"},{"name":"supply","type":"uint256","internalType":"uint256"},{"name":"minPerUser","type":"uint256","internalType":"uint256"},{"name":"maxPerUser","type":"uint256","internalType":"uint256"}],"outputs":[],"stateMutability":"nonpayable"},{"type":"function","name":"userContributions","inputs":[{"name":"user","type":"address","internalType":"address"},{"name":"stageId","type":"uint256","internalType":"uint256"}],"outputs":[{"name":"amount","type":"uint256","internalType":"uint256"}],"stateMutability":"view"},{"type":"function","name":"userInvestment","inputs":[{"name":"account","type":"address","internalType":"address"}],"outputs":[{"name":"","type":"uint256","internalType":"uint256"}],"stateMutability":"view"},{"type":"function","name":"withdrawFunds","inputs":[{"name":"token","type":"address","internalType":"address"}],"outputs":[],"stateMutability":"nonpayable"},{"type":"function","name":"withdrawSaleTokens","inputs":[{"name":"amount","type":"uint256","internalType":"uint256"}],"outputs":[],"stateMutability":"nonpayable"},{"type":"event","name":"NativeRateUpdated","inputs":[{"name":"rate","type":"uint256","indexed":false,"internalType":"uint256"}],"anonymous":false},{"type":"event","name":"OwnershipTransferStarted","inputs":[{"name":"previousOwner","type":"address","indexed":true,"internalType":"address"},{"name":"newOwner","type":"address","indexed":true,"internalType":"address"}],"anonymous":false},{"type":"event","name":"OwnershipTransferred","inputs":[{"name":"previousOwner","type":"address","indexed":true,"internalType":"address"},{"name":"newOwner","type":"address","indexed":true,"internalType":"address"}],"anonymous":false},{"type":"event","name":"Paused","inputs":[{"name":"account","type":"address","indexed":false,"internalType":"address"}],"anonymous":false},{"type":"event","name":"StageActivated","inputs":[{"name":"stageId","type":"uint256","indexed":true,"internalType":"uint256"}],"anonymous":false},{"type":"event","name":"StageAdded","inputs":[{"name":"stageId","type":"uint256","indexed":true,"internalType":"uint256"},{"name":"price","type":"uint256","indexed":false,"internalType":"uint256"},{"name":"supply","type":"uint256","indexed":false,"internalType":"uint256"},{"name":"minPerUser","type":"uint256","indexed":false,"internalType":"uint256"},{"name":"maxPerUser","type":"uint256","indexed":false,"internalType":"uint256"}],"anonymous":false},{"type":"event","name":"StageDeactivated","inputs":[{"name":"stageId","type":"uint256","indexed":true,"internalType":"uint256"}],"anonymous":false},{"type":"event","name":"StagePaused","inputs":[],"anonymous":false},{"type":"event","name":"StageResumed","inputs":[],"anonymous":false},{"type":"event","name":"StageUpdated","inputs":[{"name":"stageId","type":"uint256","indexed":true,"internalType":"uint256"},{"name":"price","type":"uint256","indexed":false,"internalType":"uint256"},{"name":"supply","type":"uint256","indexed":false,"internalType":"uint256"},{"name":"minPerUser","type":"uint256","indexed":false,"internalType":"uint256"},{"name":"maxPerUser","type":"uint256","indexed":false,"internalType":"uint256"}],"anonymous":false},{"type":"event","name":"TokensPurchased","inputs":[{"name":"buyer","type":"address","indexed":true,"internalType":"address"},{"name":"paymentToken","type":"address","indexed":true,"internalType":"address"},{"name":"paymentAmount","type":"uint256","indexed":false,"internalType":"uint256"},{"name":"tokenAmount","type":"uint256","indexed":false,"internalType":"uint256"},{"name":"stage","type":"uint256","indexed":false,"internalType":"uint256"}],"anonymous":false},{"type":"event","name":"Unpaused","inputs":[{"name":"account","type":"address","indexed":false,"internalType":"address"}],"anonymous":false},{"type":"event","name":"Withdrawn","inputs":[{"name":"token","type":"address","indexed":true,"internalType":"address"},{"name":"amount","type":"uint256","indexed":false,"internalType":"uint256"}],"anonymous":false},{"type":"error","name":"BelowUserMinimum","inputs":[]},{"type":"error","name":"EnforcedPause","inputs":[]},{"type":"error","name":"ExceedsStageSupply","inputs":[]},{"type":"error","name":"ExceedsUserLimit","inputs":[]},{"type":"error","name":"ExpectedPause","inputs":[]},{"type":"error","name":"InsufficientBalance","inputs":[]},{"type":"error","name":"InvalidAmount","inputs":[]},{"type":"error","name":"InvalidOraclePrice","inputs":[]},{"type":"error","name":"InvalidPrice","inputs":[]},{"type":"error","name":"InvalidStage","inputs":[]},{"type":"error","name":"InvalidStageConfig","inputs":[]},{"type":"error","name":"NoStagesConfigured","inputs":[]},{"type":"error","name":"OracleUnavailable","inputs":[]},{"type":"error","name":"OwnableInvalidOwner","inputs":[{"name":"owner","type":"address","internalType":"address"}]},{"type":"error","name":"OwnableUnauthorizedAccount","inputs":[{"name":"account","type":"address","internalType":"address"}]},{"type":"error","name":"ReentrancyGuardReentrantCall","inputs":[]},{"type":"error","name":"SafeERC20FailedOperation","inputs":[{"name":"token","type":"address","internalType":"address"}]},{"type":"error","name":"SaleActive","inputs":[]},{"type":"error","name":"StageAlreadyActive","inputs":[]},{"type":"error","name":"StageInactive","inputs":[]},{"type":"error","name":"StaleOracleData","inputs":[]},{"type":"error","name":"SupplyTooLow","inputs":[]},{"type":"error","name":"TransferFailed","inputs":[]},{"type":"error","name":"UnsupportedToken","inputs":[]},{"type":"error","name":"ZeroAddress","inputs":[]}],"bytecode":{"object":"0x60e0604052346100835761001a610014610164565b91610206565b610022610088565b61373f6105f98239608051818181610e110152818161148c015281816115120152818161154501528181611cd601526133c7015260a051818181610e9801528181611ae90152611ca0015260c0518181816106200152612cdd015261373f90f35b61008e565b60405190565b5f80fd5b601f801991011690565b634e487b7160e01b5f52604160045260245ffd5b906100ba90610092565b810190811060018060401b038211176100d257604052565b61009c565b906100ea6100e3610088565b92836100b0565b565b5f80fd5b60018060a01b031690565b610104906100f0565b90565b610110816100fb565b0361011757565b5f80fd5b9050519061012882610107565b565b909160608284031261015f5761015c610145845f850161011b565b93610153816020860161011b565b9360400161011b565b90565b6100ec565b610182613d3880380380610177816100d7565b92833981019061012a565b909192565b90565b90565b6101a161019c6101a692610187565b61018a565b6100f0565b90565b6101b29061018d565b90565b5f0190565b6101ce6101c96101d3926100f0565b61018a565b6100f0565b90565b6101df906101ba565b90565b6101eb906101d6565b90565b6101f7906101ba565b90565b610203906101ee565b90565b919091610212336102eb565b8061022d6102276102225f6101a9565b6100fb565b916100fb565b146102cf578261024d6102476102425f6101a9565b6100fb565b916100fb565b146102b3578161026d6102676102625f6101a9565b6100fb565b916100fb565b14610297576102929261028261028a926101e2565b6080526101e2565b60a0526101fa565b60c052565b5f63d92e233d60e01b8152806102af600482016101b5565b0390fd5b5f63d92e233d60e01b8152806102cb600482016101b5565b0390fd5b5f63d92e233d60e01b8152806102e7600482016101b5565b0390fd5b6102f49061037f565b565b90565b90565b61031061030b610315926102f6565b61018a565b6102f9565b90565b61032260016102fc565b90565b5f1b90565b906103365f1991610325565b9181191691161790565b61035461034f610359926102f9565b61018a565b6102f9565b90565b90565b9061037461036f61037b92610340565b61035c565b825461032a565b9055565b610388906103ac565b6103aa610393610318565b5f6103a461039f61047d565b610491565b0161035f565b565b6103b5906103d9565b565b6103c0906100fb565b9052565b91906103d7905f602085019401906103b7565b565b806103f46103ee6103e95f6101a9565b6100fb565b916100fb565b146104045761040290610517565b565b6104276104105f6101a9565b5f918291631e4fbdf760e01b8352600483016103c4565b0390fd5b5f90565b90565b90565b61044961044461044e9261042f565b610325565b610432565b90565b61047a7f9b779b17422d0df92223018b32b4d1fa46e071723d6817e2486d003becc55f00610435565b90565b61048561042b565b5061048e610451565b90565b90565b1b90565b919060086104b89102916104b260018060a01b0384610494565b92610494565b9181191691161790565b6104cb906101ba565b90565b6104d7906104c2565b90565b90565b91906104f36104ee6104fb936104ce565b6104da565b908354610498565b9055565b5f90565b6105159161050f6104ff565b916104dd565b565b61052b906105265f6001610503565b610599565b565b5f1c90565b60018060a01b031690565b61054961054e9161052d565b610532565b90565b61055b905461053d565b90565b9061056f60018060a01b0391610325565b9181191691161790565b9061058e610589610595926104ce565b6104da565b825461055e565b9055565b6105a25f610551565b6105ac825f610579565b906105e06105da7f8be0079c531659141344cd1fd0a4f28419497f9722a3daafe3b4186f6b6457e0936104ce565b916104ce565b916105e9610088565b806105f3816101b5565b0390a356fe6080604052600436101561001d575b366110385761001b612b30565b005b6100275f35610266565b8063186ba7f1146102615780631ea155021461025c5780631ecb04a81461025757806338fa4029146102525780633bcf90481461024d5780633f4ba83a146102485780633fe509ad146102435780634268776a1461023e5780634dbe8697146102395780635bf5d54c146102345780635c975abb1461022f57806363b201171461022a57806368742da6146102255780636e33a83114610220578063715018a61461021b5780637331fa951461021657806379203dc41461021157806379ba50971461020c5780637bc1f8f5146102075780637ff9b596146102025780638456cb59146101fd578063845ddcb2146101f857806384ecec16146101f35780638733cfd3146101ee5780638da483d2146101e95780638da5cb5b146101e45780639f2ddd22146101df578063ae101f31146101da578063b8ac77a4146101d5578063c54e44eb146101d0578063c5c4744c146101cb578063c8b08125146101c6578063e30c3978146101c1578063e487c8ae146101bc578063f2fde38b146101b75763f33261ac0361000e57611003565b610fd0565b610f9d565b610f68565b610f33565b610efe565b610eba565b610e61565b610dd8565b610d5d565b610d28565b610ccf565b610c44565b610c1b565b610bdf565b610aa6565b610a71565b610a3e565b610a0b565b6109d6565b610991565b6108e9565b6108b5565b610855565b6107d3565b61078f565b610745565b610710565b6106a3565b6105eb565b61059a565b610560565b6104ed565b610477565b610391565b610306565b60e01c90565b60405190565b5f80fd5b5f80fd5b5f91031261028457565b610276565b90565b61029590610289565b9052565b151590565b6102a790610299565b9052565b91946102f36102fd929897956102e960a0966102df6103049a6102d560c08a019e5f8b019061028c565b602089019061028c565b604087019061028c565b606085019061028c565b608083019061028c565b019061029e565b565b3461033d5761031636600461027a565b610339610321611066565b9261033096949692919261026c565b968796876102ab565b0390f35b610272565b90565b90565b61035c61035761036192610342565b610345565b610289565b90565b61036e6008610348565b90565b610379610364565b90565b919061038f905f6020850194019061028c565b565b346103c1576103a136600461027a565b6103bd6103ac610371565b6103b461026c565b9182918261037c565b0390f35b610272565b6103cf81610289565b036103d657565b5f80fd5b905035906103e7826103c6565b565b6103f281610299565b036103f957565b5f80fd5b9050359061040a826103e9565b565b91906040838203126104345780610428610431925f86016103da565b936020016103fd565b90565b610276565b61046e6104759461046460609498979561045a608086019a5f87019061028c565b602085019061028c565b604083019061028c565b019061028c565b565b346104ac576104a861049361048d36600461040c565b90611184565b9061049f94929461026c565b94859485610439565b0390f35b610272565b1c90565b90565b6104c89060086104cd93026104b1565b6104b5565b90565b906104db91546104b8565b90565b6104ea60045f906104d0565b90565b3461051d576104fd36600461027a565b6105196105086104de565b61051061026c565b9182918261037c565b0390f35b610272565b90565b61053961053461053e92610522565b610345565b610289565b90565b610552670de0b6b3a7640000610525565b90565b61055d610541565b90565b346105905761057036600461027a565b61058c61057b610555565b61058361026c565b9182918261037c565b0390f35b610272565b5f0190565b346105c8576105aa36600461027a565b6105b261139e565b6105ba61026c565b806105c481610595565b0390f35b610272565b906020828203126105e6576105e3915f016103da565b90565b610276565b34610619576106036105fe3660046105cd565b61163f565b61060b61026c565b8061061581610595565b0390f35b610272565b7f000000000000000000000000000000000000000000000000000000000000000090565b60018060a01b031690565b61066161065c61066692610642565b610345565b610642565b90565b6106729061064d565b90565b61067e90610669565b90565b61068a90610675565b9052565b91906106a1905f60208501940190610681565b565b346106d3576106b336600461027a565b6106cf6106be61061e565b6106c661026c565b9182918261068e565b0390f35b610272565b90565b6106ef6106ea6106f4926106d8565b610345565b610289565b90565b610702611c206106db565b90565b61070d6106f7565b90565b346107405761072036600461027a565b61073c61072b610705565b61073361026c565b9182918261037c565b0390f35b610272565b346107755761075536600461027a565b61077161076061164a565b61076861026c565b9182918261037c565b0390f35b610272565b919061078d905f6020850194019061029e565b565b346107bf5761079f36600461027a565b6107bb6107aa611687565b6107b261026c565b9182918261077a565b0390f35b610272565b6107d060075f906104d0565b90565b34610803576107e336600461027a565b6107ff6107ee6107c4565b6107f661026c565b9182918261037c565b0390f35b610272565b61081190610642565b90565b61081d81610808565b0361082457565b5f80fd5b9050359061083582610814565b565b906020828203126108505761084d915f01610828565b90565b610276565b346108835761086d610868366004610837565b61194d565b61087561026c565b8061087f81610595565b0390f35b610272565b91906040838203126108b057806108a46108ad925f8601610828565b936020016103da565b90565b610276565b346108e4576108ce6108c8366004610888565b90611de5565b6108d661026c565b806108e081610595565b0390f35b610272565b34610917576108f936600461027a565b610901611e16565b61090961026c565b8061091381610595565b0390f35b610272565b61092590610669565b90565b906109329061091c565b5f5260205260405f2090565b61095261094d61095792610289565b610345565b610289565b90565b906109649061093e565b5f5260205260405f2090565b61098961098e926109846005935f94610928565b61095a565b6104d0565b90565b346109c2576109be6109ad6109a7366004610888565b90610970565b6109b561026c565b9182918261037c565b0390f35b610272565b6109d360085f906104d0565b90565b34610a06576109e636600461027a565b610a026109f16109c7565b6109f961026c565b9182918261037c565b0390f35b610272565b34610a3957610a1b36600461027a565b610a23611e20565b610a2b61026c565b80610a3581610595565b0390f35b610272565b34610a6c57610a56610a513660046105cd565b61206f565b610a5e61026c565b80610a6881610595565b0390f35b610272565b34610aa157610a8136600461027a565b610a9d610a8c61207a565b610a9461026c565b9182918261037c565b0390f35b610272565b34610ad457610ab636600461027a565b610abe61215b565b610ac661026c565b80610ad081610595565b0390f35b610272565b634e487b7160e01b5f52603260045260245ffd5b5490565b5f5260205f2090565b610b0381610aed565b821015610b1d57610b15600691610af1565b910201905f90565b610ad9565b5f1c90565b610b33610b3891610b22565b6104b5565b90565b610b459054610b27565b90565b60ff1690565b610b5a610b5f91610b22565b610b48565b90565b610b6c9054610b4e565b90565b600390610b7b82610aed565b811015610bdb57610b8b91610afa565b5090610b985f8301610b3b565b91610ba560018201610b3b565b91610bb260028301610b3b565b91610bbf60038201610b3b565b91610bd86005610bd160048501610b3b565b9301610b62565b90565b5f80fd5b34610c1657610c12610bfa610bf53660046105cd565b610b6f565b92610c0996949692919261026c565b968796876102ab565b0390f35b610272565b610c2636600461027a565b610c2e612239565b610c3661026c565b80610c4081610595565b0390f35b34610c7457610c70610c5f610c5a366004610837565b612243565b610c6761026c565b9182918261037c565b0390f35b610272565b919060a083820312610cca57610c91815f85016103da565b92610c9f82602083016103da565b92610cc7610cb084604085016103da565b93610cbe81606086016103da565b936080016103da565b90565b610276565b34610d0157610ceb610ce2366004610c79565b93929092612491565b610cf361026c565b80610cfd81610595565b0390f35b610272565b610d0f90610808565b9052565b9190610d26905f60208501940190610d06565b565b34610d5857610d3836600461027a565b610d54610d436124d0565b610d4b61026c565b91829182610d13565b0390f35b610272565b34610d8d57610d6d36600461027a565b610d89610d786124e5565b610d8061026c565b9182918261037c565b0390f35b610272565b608081830312610dd357610da8825f83016103da565b92610dd0610db984602085016103da565b93610dc781604086016103da565b936060016103da565b90565b610276565b34610e0a57610df4610deb366004610d92565b92919091612849565b610dfc61026c565b80610e0681610595565b0390f35b610272565b7f000000000000000000000000000000000000000000000000000000000000000090565b610e3c90610669565b90565b610e4890610e33565b9052565b9190610e5f905f60208501940190610e3f565b565b34610e9157610e7136600461027a565b610e8d610e7c610e0f565b610e8461026c565b91829182610e4c565b0390f35b610272565b7f000000000000000000000000000000000000000000000000000000000000000090565b34610eea57610eca36600461027a565b610ee6610ed5610e96565b610edd61026c565b91829182610e4c565b0390f35b610272565b610efb60065f906104d0565b90565b34610f2e57610f0e36600461027a565b610f2a610f19610eef565b610f2161026c565b9182918261037c565b0390f35b610272565b34610f6357610f4336600461027a565b610f5f610f4e612857565b610f5661026c565b9182918261037c565b0390f35b610272565b34610f9857610f7836600461027a565b610f94610f83612911565b610f8b61026c565b91829182610d13565b0390f35b610272565b34610fcb57610fb5610fb03660046105cd565b612980565b610fbd61026c565b80610fc781610595565b0390f35b610272565b34610ffe57610fe8610fe3366004610837565b612a3b565b610ff061026c565b80610ffa81610595565b0390f35b610272565b346110335761101336600461027a565b61102f61101e612a46565b61102661026c565b9182918261037c565b0390f35b610272565b5f80fd5b5f90565b5f90565b90565b61105b61105661106092611044565b610345565b610289565b90565b90565b61106e61103c565b5061107761103c565b5061108061103c565b5061108961103c565b5061109261103c565b5061109b611040565b506110a66004610b3b565b6110c16110bb6110b66003610aed565b610289565b91610289565b101561113a576110e56110df60036110d96004610b3b565b90610afa565b50611063565b906110f15f8301610b3b565b906110fe60018401610b3b565b9261110b60028201610b3b565b9261111860038301610b3b565b92611131600561112a60048601610b3b565b9401610b62565b91959493929190565b5f905f915f915f915f9161117261116c61116661116061115a5f96611047565b99611047565b97611047565b95611047565b93611047565b9190565b906111819103610289565b90565b61118c61103c565b5061119561103c565b5061119e61103c565b506111a761103c565b506111b26004610b3b565b6111cd6111c76111c26003610aed565b610289565b91610289565b1015801561131c575b6112eb576111f86111f260036111ec6004610b3b565b90610afa565b50611063565b915f146112e55761120890612ca7565b915b8261121d6112175f611047565b91610289565b1480156112c1575b61128f576112606112418461123b5f8601610b3b565b90612eea565b9261125a600261125360018401610b3b565b9201610b3b565b90611176565b8261127361126d83610289565b91610289565b11611286575b6112836004610b3b565b91565b80925091611279565b9150505f905f916112a06004610b3b565b916112be6112b76112b15f94611047565b95611047565b9392611047565b90565b506112cd5f8301610b3b565b6112df6112d95f611047565b91610289565b14611225565b9161120a565b50505f905f916112fb6004610b3b565b9161131961131261130c5f94611047565b95611047565b9392611047565b90565b50611347611341600561133a60036113346004610b3b565b90610afa565b5001610b62565b15610299565b6111d6565b611354612f11565b61135c61135e565b565b611366612ffe565b7f6e3f8a16cba8aad164f3a985089dbea1e29b414845992e4e8170bab2cbc0902e61138f61026c565b8061139981610595565b0390a1565b6113a661134c565b565b6113b9906113b4612f11565b611451565b565b6113c490610669565b90565b601f801991011690565b634e487b7160e01b5f52604160045260245ffd5b906113ef906113c7565b810190811067ffffffffffffffff82111761140957604052565b6113d1565b60e01b90565b90505190611421826103c6565b565b9060208282031261143c57611439915f01611414565b90565b610276565b61144961026c565b3d5f823e3d90fd5b61145b6004610b3b565b61147661147061146b6003610aed565b610289565b91610289565b1080611618575b6115fc57806114e260206114b07f0000000000000000000000000000000000000000000000000000000000000000610e33565b6370a08231906114d76114c2306113bb565b926114cb61026c565b9586948593849361140e565b835260048301610d13565b03915afa9081156115f75761150891611502915f916115c9575b50610289565b91610289565b116115ad576115407f00000000000000000000000000000000000000000000000000000000000000006115396124d0565b8391613008565b6115697f0000000000000000000000000000000000000000000000000000000000000000610e33565b6115a86115967f7084f5476618d8e60b11ef0d7d3f06914655adb8793e28ff7f018d4c76d505d59261091c565b9261159f61026c565b9182918261037c565b0390a2565b5f631e9acf1760e31b8152806115c560048201610595565b0390fd5b6115ea915060203d81116115f0575b6115e281836113e5565b810190611423565b5f6114fc565b503d6115d8565b611441565b5f63f1d2165f60e01b81528061161460048201610595565b0390fd5b5061163a6005611633600361162d6004610b3b565b90610afa565b5001610b62565b61147d565b611648906113a8565b565b61165261103c565b5061165d6004610b3b565b90565b60a01c90565b61167261167791611660565b610b48565b90565b6116849054611666565b90565b61168f611040565b5061169a600161167a565b90565b6116ae906116a9612f11565b61178d565b565b6116c46116bf6116c992611044565b610345565b610642565b90565b6116d5906116b0565b90565b6116e19061064d565b90565b6116ed906116d8565b90565b905090565b6117005f80926116f0565b0190565b61170d906116f5565b90565b9061172361171c61026c565b92836113e5565b565b67ffffffffffffffff81116117435761173f6020916113c7565b0190565b6113d1565b9061175a61175583611725565b611710565b918252565b606090565b3d5f1461177f576117743d611748565b903d5f602084013e5b565b61178761175f565b9061177d565b806117a86117a261179d5f6116cc565b610808565b91610808565b145f14611856575f80611833926117be306113bb565b319081906118016117ef7f7084f5476618d8e60b11ef0d7d3f06914655adb8793e28ff7f018d4c76d505d59261091c565b926117f861026c565b9182918261037c565b0390a261180c6124d0565b9061181561026c565b908161182081611704565b03925af161182c611764565b5015610299565b61183a575b565b5f6312171d8360e31b81528061185260048201610595565b0390fd5b80602061186d61186861189f946116e4565b610e33565b6370a082319061189461187f306113bb565b9261188861026c565b9687948593849361140e565b835260048301610d13565b03915afa9182156119485761191592611905915f9161191a575b50918083906118fd6118eb7f7084f5476618d8e60b11ef0d7d3f06914655adb8793e28ff7f018d4c76d505d59261091c565b926118f461026c565b9182918261037c565b0390a26116e4565b9061190e6124d0565b9091613008565b611838565b61193b915060203d8111611941575b61193381836113e5565b810190611423565b5f6118b9565b503d611929565b611441565b6119569061169d565b565b9061196a9161196561307b565b611974565b6119726130b4565b565b90611986916119816130d8565b611988565b565b906119936004610b3b565b6119ae6119a86119a36003610aed565b610289565b91610289565b1015611a09576119de6119d860056119d160036119cb6004610b3b565b90610afa565b5001610b62565b15610299565b6119ed576119eb91611adc565b565b5f637a20c50760e01b815280611a0560048201610595565b0390fd5b5f6344348c6b60e01b815280611a2160048201610595565b0390fd5b634e487b7160e01b5f52601160045260245ffd5b611a48611a4e91939293610289565b92610289565b8201809211611a5957565b611a25565b5f1b90565b90611a6f5f1991611a5e565b9181191691161790565b90565b90611a91611a8c611a989261093e565b611a79565b8254611a63565b9055565b90611aa79101610289565b90565b604090611ad3611ada9496959396611ac960608401985f85019061028c565b602083019061028c565b019061028c565b565b9081611b18611b12611b0d7f0000000000000000000000000000000000000000000000000000000000000000610e33565b610808565b91610808565b03611dc95780611b30611b2a5f611047565b91610289565b14611dad57611b53611b4d6003611b476004610b3b565b90610afa565b50611063565b91611b85611b7e611b79611b6960053390610928565b611b736004610b3b565b9061095a565b610b3b565b8390611a39565b80611ba3611b9d611b9860038801610b3b565b610289565b91610289565b10611d915780611bc6611bc0611bbb60048801610b3b565b610289565b91610289565b11611d7557611be083611bda5f8701610b3b565b90612eea565b93611bf7611bf060028301610b3b565b8690611a39565b611c14611c0e611c0960018501610b3b565b610289565b91610289565b11611d5957611c44611c6192611c3f611c2f60053390610928565b611c396004610b3b565b9061095a565b611a7c565b611c5b600286920191611c5683610b3b565b611a9c565b90611a7c565b611c7e611c7783611c726006610b3b565b611a9c565b6006611a7c565b611c9b611c9484611c8f6007610b3b565b611a9c565b6007611a7c565b611cd17f000000000000000000000000000000000000000000000000000000000000000033611cc9306113bb565b908592613102565b611cfd7f0000000000000000000000000000000000000000000000000000000000000000338591613008565b33909192611d0b6004610b3b565b93611d54611d42611d3c7f377aadedb6b2a771959584d10a6a36eccb5f56b4eb3a48525f76108d2660d8d49561091c565b9561091c565b95611d4b61026c565b93849384611aaa565b0390a3565b5f636d545f7b60e11b815280611d7160048201610595565b0390fd5b5f632046b41b60e21b815280611d8d60048201610595565b0390fd5b5f631a3b3d4b60e01b815280611da960048201610595565b0390fd5b5f63162908e360e11b815280611dc560048201610595565b0390fd5b5f63350b944160e11b815280611de160048201610595565b0390fd5b90611def91611958565b565b611df9612f11565b611e01611e03565b565b611e14611e0f5f6116cc565b6131ad565b565b611e1e611df1565b565b611e286131c3565b611e30612911565b611e42611e3c83610808565b91610808565b03611e5257611e50906131ad565b565b611e6d905f91829163118cdaa760e01b835260048301610d13565b0390fd5b611e8290611e7d612f11565b611ec9565b565b90611e9060ff91611a5e565b9181191691161790565b611ea390610299565b90565b90565b90611ebe611eb9611ec592611e9a565b611ea6565b8254611e84565b9055565b80611ee5611edf611eda6003610aed565b610289565b91610289565b101561205357611f036005611efc60038490610afa565b5001610b62565b61203757611f116004610b3b565b611f2c611f26611f216003610aed565b610289565b91610289565b1080612010575b611f9f575b611f5260016005611f4b60038590610afa565b5001611ea9565b611f5d816004611a7c565b611f877f03eab6a60b7fa9a8ce2e4f8516274d21fb3606afe26ba1b5bc7e487bd4a25cc69161093e565b90611f9061026c565b80611f9a81610595565b0390a2565b611fc15f6005611fba6003611fb46004610b3b565b90610afa565b5001611ea9565b611fcb6004610b3b565b611ff57fc140be611c4cf287a329b09a238f8a5b6c1e166548b361523ec83989e29bcbe79161093e565b90611ffe61026c565b8061200881610595565b0390a2611f38565b50612032600561202b60036120256004610b3b565b90610afa565b5001610b62565b611f33565b5f63d65c287b60e01b81528061204f60048201610595565b0390fd5b5f63e82a532960e01b81528061206b60048201610595565b0390fd5b61207890611e71565b565b61208261103c565b5061208d6004610b3b565b6120a86120a261209d6003610aed565b610289565b91610289565b10806120e2575b6120bf576120bc5f611047565b90565b6120df5f6120d860036120d26004610b3b565b90610afa565b5001610b3b565b90565b5061210460056120fd60036120f76004610b3b565b90610afa565b5001610b62565b6120af565b612111612f11565b61211961211b565b565b612123613230565b7f3f1b30cdffc1ed63b8725f31deee82f486e1970f8373967852f0e705504459d561214c61026c565b8061215681610595565b0390a1565b612163612109565b565b61216d61307b565b61217561217f565b61217d6130b4565b565b6121876130d8565b61218f612191565b565b61219b6004610b3b565b6121b66121b06121ab6003610aed565b610289565b91610289565b1015612210576121e66121e060056121d960036121d36004610b3b565b90610afa565b5001610b62565b15610299565b6121f4576121f261222c565b565b5f637a20c50760e01b81528061220c60048201610595565b0390fd5b5f6344348c6b60e01b81528061222860048201610595565b0390fd5b61223733349061323a565b565b612241612165565b565b61224b61103c565b506122566004610b3b565b61227161226b6122666003610aed565b610289565b91610289565b1061228357506122805f611047565b90565b6122a46122946122a9926005610928565b61229e6004610b3b565b9061095a565b610b3b565b90565b906122c1949392916122bc612f11565b6122c3565b565b92919092806122e36122dd6122d86003610aed565b610289565b91610289565b101561247557836122fc6122f65f611047565b91610289565b1461245a578161231461230e5f611047565b91610289565b148015612440575b6124245761233561232f60038390610afa565b50611063565b9061234260028301610b3b565b61235461234e85610289565b91610289565b11612408576123c36124039261239361238c6123856123736008610b3b565b61237f60018601610b3b565b90611176565b8790611a9c565b6008611a7c565b61239f875f8301611a7c565b6123ac8560018301611a7c565b6123b98660038301611a7c565b6004889101611a7c565b939192946123f17f4d293b408c005cb744ccbc4f4faba3b11ed588dd20ea0c91ee142e96d55990ce9561093e565b956123fa61026c565b94859485610439565b0390a2565b5f63c0b4e37360e01b81528061242060048201610595565b0390fd5b5f638c5a8b5d60e01b81528061243c60048201610595565b0390fd5b508461245461244e85610289565b91610289565b1061231c565b5f62bfc92160e01b81528061247160048201610595565b0390fd5b5f63e82a532960e01b81528061248d60048201610595565b0390fd5b9061249e949392916122ac565b565b5f90565b60018060a01b031690565b6124bb6124c091610b22565b6124a4565b90565b6124cd90546124af565b90565b6124d86124a0565b506124e25f6124c3565b90565b6124ed61103c565b506124f86002610b3b565b90565b9061250f93929161250a612f11565b6126c9565b565b90565b61251e60c0611710565b90565b9061252b90610289565b9052565b9061253990610299565b9052565b5f5260205f2090565b5490565b61255381612546565b82101561256d5761256560069161253d565b910201905f90565b610ad9565b634e487b7160e01b5f525f60045260245ffd5b61258f9051610289565b90565b61259c9051610299565b90565b9061262e60a06005612634946125c25f82016125bc5f8801612585565b90611a7c565b6125db600182016125d560208801612585565b90611a7c565b6125f4600282016125ee60408801612585565b90611a7c565b61260d6003820161260760608801612585565b90611a7c565b6126266004820161262060808801612585565b90611a7c565b019201612592565b90611ea9565b565b9190612647576126459161259f565b565b612572565b1b90565b9081549168010000000000000000831015612680578261267891600161267e9501815561254a565b90612636565b565b6113d1565b90565b61269c6126976126a192612685565b610345565b610289565b90565b6126b36126b991939293610289565b92610289565b82039182116126c457565b611a25565b9190826126de6126d85f611047565b91610289565b1461282e57806126f66126f05f611047565b91610289565b148015612814575b6127f8576127765f6127106003612511565b612771866127688661275f8b61275661274d8c6127488b91949661273f8d9a612737612514565b9e8f01612521565b60208d01612521565b611047565b60408a01612521565b60608801612521565b60808601612521565b60a0840161252f565b612650565b61279361278c826127876008610b3b565b611a9c565b6008611a7c565b6127f36127b36127a36003610aed565b6127ad6001612688565b906126a4565b939192946127e17f0c0da4e34aab31342ccfdedb37b23ea5749b2cd1f413bd8bd426e284b8c03c3d9561093e565b956127ea61026c565b94859485610439565b0390a2565b5f638c5a8b5d60e01b81528061281060048201610595565b0390fd5b508361282861282284610289565b91610289565b106126fe565b5f62bfc92160e01b81528061284560048201610595565b0390fd5b906128559392916124fb565b565b61285f61103c565b5061286a6004610b3b565b61288561287f61287a6003610aed565b610289565b91610289565b10806128ea575b61289c576128995f611047565b90565b6128e76128c060016128b960036128b36004610b3b565b90610afa565b5001610b3b565b6128e160026128da60036128d46004610b3b565b90610afa565b5001610b3b565b90611176565b90565b5061290c600561290560036128ff6004610b3b565b90610afa565b5001610b62565b61288c565b6129196124a0565b5061292460016124c3565b90565b61293890612933612f11565b61293a565b565b612945816002611a7c565b61297b7fdeb8f7847ff033d71ec3fd6d28887984bf07fc0bf78b034ed60ef66bf695d24a9161297261026c565b9182918261037c565b0390a1565b61298990612927565b565b61299c90612997612f11565b6129dc565b565b906129af60018060a01b0391611a5e565b9181191691161790565b90565b906129d16129cc6129d89261091c565b6129b9565b825461299e565b9055565b6129e78160016129bc565b6129ef6124d0565b90612a23612a1d7f38d16b8cac22d99fc7c124b9cd0de2d3fa1faef420bfe791d8c362d765e227009361091c565b9161091c565b91612a2c61026c565b80612a3681610595565b0390a3565b612a449061298b565b565b612a4e61103c565b50612a596003610aed565b90565b612a6461307b565b612a6c612a76565b612a746130b4565b565b612a7e6130d8565b612a86612a88565b565b612a926004610b3b565b612aad612aa7612aa26003610aed565b610289565b91610289565b1015612b0757612add612ad76005612ad06003612aca6004610b3b565b90610afa565b5001610b62565b15610299565b612aeb57612ae9612b23565b565b5f637a20c50760e01b815280612b0360048201610595565b0390fd5b5f6344348c6b60e01b815280612b1f60048201610595565b0390fd5b612b2e33349061323a565b565b612b38612a5c565b565b612b49612b4f91939293610289565b92610289565b91612b5b838202610289565b928184041490151715612b6a57565b611a25565b634e487b7160e01b5f52601260045260245ffd5b612b8f612b9591610289565b91610289565b908115612ba0570490565b612b6f565b69ffffffffffffffffffff1690565b612bbd81612ba5565b03612bc457565b5f80fd5b90505190612bd582612bb4565b565b90565b612be381612bd7565b03612bea57565b5f80fd5b90505190612bfb82612bda565b565b919060a083820312612c4e57612c15815f8501612bc8565b92612c238260208301612bee565b92612c4b612c348460408501611414565b93612c428160608601611414565b93608001612bc8565b90565b610276565b612c67612c62612c6c92611044565b610345565b612bd7565b90565b612c83612c7e612c8892612bd7565b610345565b610289565b90565b612c9490610289565b604d8111612ca257600a0a90565b611a25565b90612cb061103c565b91612cbb6002610b3b565b612ccd612cc75f611047565b91610289565b11612ebf57612d179060a0612d017f0000000000000000000000000000000000000000000000000000000000000000610675565b63feaf968c90612d0f61026c565b94859261140e565b82528180612d2760048201610595565b03915afa80925f80808080959294915096612e88575b50155f14612d6e5750505050506001612d5257565b5f63214f55e360e11b815280612d6a60048201610595565b0390fd5b9091929394955090939184612d8b612d855f612c53565b91612bd7565b1315612e6d57612d9e612da49192612ba5565b91612ba5565b10612e515780612dbc612db65f611047565b91610289565b14612e3557612dcb9042611176565b612de4612dde612dd96106f7565b610289565b91610289565b11612e1957612e1691612dfa612e009291612c6f565b90612b3a565b612e10612e0b610364565b612c8b565b90612b83565b90565b5f63a527363160e01b815280612e3160048201610595565b0390fd5b5f63a527363160e01b815280612e4d60048201610595565b0390fd5b5f63a527363160e01b815280612e6960048201610595565b0390fd5b5f62fc7cad60e51b815280612e8460048201610595565b0390fd5b9250945050612eae915060a03d8111612eb8575b612ea681836113e5565b810190612bfd565b9391959095612d3d565b503d612e9c565b612ee7919250612ed990612ed36002610b3b565b90612b3a565b612ee1610541565b90612b83565b90565b90612f09612f0e92612efa61103c565b50612f03610541565b90612b3a565b612b83565b90565b612f196124d0565b612f32612f2c612f276131c3565b610808565b91610808565b03612f3957565b612f5b612f446131c3565b5f91829163118cdaa760e01b835260048301610d13565b0390fd5b612f676134c1565b612f6f612fb0565b565b60a01b90565b90612f8660ff60a01b91612f71565b9181191691161790565b90612fa5612fa0612fac92611e9a565b611ea6565b8254612f77565b9055565b612fbb5f6001612f90565b612fc36131c3565b612ff97f5db9ee0a495bf2e6ff9c91a7834c1ba4fdd244a5e8aa4e537bd38aeae4b073aa91612ff061026c565b91829182610d13565b0390a1565b613006612f5f565b565b916130219161301b9184916001926134f4565b15610299565b6130285750565b61303461304b91610e33565b5f918291635274afe760e01b835260048301610d13565b0390fd5b90565b61306661306161306b9261304f565b610345565b610289565b90565b6130786002613052565b90565b61308361355e565b6130a561308e61306e565b5f61309f61309a6135da565b6135ee565b01611a7c565b565b6130b16001612688565b90565b6130d66130bf6130a7565b5f6130d06130cb6135da565b6135ee565b01611a7c565b565b6130e0611687565b6130e657565b5f63d93c066560e01b8152806130fe60048201610595565b0390fd5b929061311f926131199285929190916001936135f1565b15610299565b6131265750565b61313261314991610e33565b5f918291635274afe760e01b835260048301610d13565b0390fd5b9190600861316d91029161316760018060a01b038461264c565b9261264c565b9181191691161790565b919061318d6131886131959361091c565b6129b9565b90835461314d565b9055565b6131ab916131a56124a0565b91613177565b565b6131c1906131bc5f6001613199565b61366a565b565b6131cb6124a0565b503390565b6131d86130d8565b6131e06131e2565b565b6131ed600180612f90565b6131f56131c3565b61322b7f62e78cea01bee320cd4e420270b5ea74000d11b0c9f74754ebdbfc544b05a2589161322261026c565b91829182610d13565b0390a1565b6132386131d0565b565b908061324e6132485f611047565b91610289565b146134a55761325c90612ca7565b61327a613274600361326e6004610b3b565b90610afa565b50611063565b916132ac6132a56132a061329060058590610928565b61329a6004610b3b565b9061095a565b610b3b565b8390611a39565b806132ca6132c46132bf60038801610b3b565b610289565b91610289565b1061348957806132ed6132e76132e260048801610b3b565b610289565b91610289565b1161346d57613307836133015f8701610b3b565b90612eea565b9361331e61331760028301610b3b565b8690611a39565b61333b61333561333060018501610b3b565b610289565b91610289565b116134515761336b6133889261336661335660058790610928565b6133606004610b3b565b9061095a565b611a7c565b61338260028692019161337d83610b3b565b611a9c565b90611a7c565b6133a561339e836133996006610b3b565b611a9c565b6006611a7c565b6133c26133bb846133b66007610b3b565b611a9c565b6007611a7c565b6133ee7f0000000000000000000000000000000000000000000000000000000000000000828591613008565b6133f75f6116cc565b91926134036004610b3b565b9361344c61343a6134347f377aadedb6b2a771959584d10a6a36eccb5f56b4eb3a48525f76108d2660d8d49561091c565b9561091c565b9561344361026c565b93849384611aaa565b0390a3565b5f636d545f7b60e11b81528061346960048201610595565b0390fd5b5f632046b41b60e21b81528061348560048201610595565b0390fd5b5f631a3b3d4b60e01b8152806134a160048201610595565b0390fd5b5f63162908e360e11b8152806134bd60048201610595565b0390fd5b6134d26134cc611687565b15610299565b6134d857565b5f638dfc202b60e01b8152806134f060048201610595565b0390fd5b9091939293613501611040565b5063a9059cbb60e01b92604051935f525f1960601c1660045260245260205f60448180855af19360015f511485161561353c575b5050604052565b8492941516613555575f903b113d151616915f80613535565b833d5f823e3d90fd5b6135666136c9565b61356c57565b5f633ee5aeb560e01b81528061358460048201610595565b0390fd5b5f90565b90565b90565b6135a66135a16135ab9261358c565b611a5e565b61358f565b90565b6135d77f9b779b17422d0df92223018b32b4d1fa46e071723d6817e2486d003becc55f00613592565b90565b6135e2613588565b506135eb6135ae565b90565b90565b91949394929092613600611040565b506323b872dd60e01b93604051945f525f1960601c166004525f1960601c1660245260445260205f60648180855af19360015f5114851615613648575b50506040525f606052565b8492941516613661575f903b113d151616915f8061363d565b833d5f823e3d90fd5b6136735f6124c3565b61367d825f6129bc565b906136b16136ab7f8be0079c531659141344cd1fd0a4f28419497f9722a3daafe3b4186f6b6457e09361091c565b9161091c565b916136ba61026c565b806136c481610595565b0390a3565b6136d1611040565b506136ec5f6136e66136e16135da565b6135ee565b01610b3b565b6137056136ff6136fa61306e565b610289565b91610289565b149056fea264697066735822122053f96dd9ab77952eb4a15d984320c7d89ad350ba37077bd17c5d8dd9b803d2f464736f6c634300081c0033","linkReferences":{}},"methodIdentifiers":{"BNB_USD_FEED()":"4268776a","ORACLE_DECIMALS()":"1ea15502","ORACLE_STALENESS_THRESHOLD()":"4dbe8697","PRECISION_18()":"3bcf9048","SALE_TOKEN()":"b8ac77a4","USDT()":"c54e44eb","acceptOwnership()":"79ba5097","activateStage(uint256)":"7bc1f8f5","addStage(uint256,uint256,uint256,uint256)":"ae101f31","buyWithNative()":"84ecec16","buyWithToken(address,uint256)":"6e33a831","currentStage()":"5bf5d54c","currentStageIndex()":"38fa4029","currentStageInfo()":"186ba7f1","nativeRateOverride()":"9f2ddd22","owner()":"8da5cb5b","pause()":"8456cb59","paused()":"5c975abb","pendingOwner()":"e30c3978","previewPurchase(uint256,bool)":"1ecb04a8","renounceOwnership()":"715018a6","setNativeToUsdtRate(uint256)":"e487c8ae","stageCount()":"f33261ac","stages(uint256)":"845ddcb2","tokenPrice()":"7ff9b596","tokensRemaining()":"c8b08125","totalAllocation()":"79203dc4","totalRaised()":"c5c4744c","totalTokensSold()":"63b20117","transferOwnership(address)":"f2fde38b","unpause()":"3f4ba83a","updateStage(uint256,uint256,uint256,uint256,uint256)":"8da483d2","userContributions(address,uint256)":"7331fa95","userInvestment(address)":"8733cfd3","withdrawFunds(address)":"68742da6","withdrawSaleTokens(uint256)":"3fe509ad"},"id":0}