{"abi":[{"type":"function","name":"decimals","inputs":[],"outputs":[{"name":"","type":"uint8","internalType":"uint8"}],"stateMutability":"view"},{"type":"function","name":"latestRoundData","inputs":[],"outputs":[{"name":"roundId","type":"uint80","internalType":"uint80"},{"name":"answer","type":"int256","internalType":"int256"},{"name":"startedAt","type":"uint256","internalType":"uint256"},{"name":"updatedAt","type":"uint256","internalType":"uint256"},{"name":"answeredInRound","type":"uint80","internalType":"uint80"}],"stateMutability":"view"},{"type":"function","name":"setPrice","inputs":[{"name":"price","type":"int256","internalType":"int256"}],"outputs":[],"stateMutability":"nonpayable"},{"type":"function","name":"setShouldRevert","inputs":[{"name":"shouldRevert","type":"bool","internalType":"bool"}],"outputs":[],"stateMutability":"nonpayable"},{"type":"function","name":"setStale","inputs":[{"name":"stale","type":"bool","internalType":"bool"}],"outputs":[],"stateMutability":"nonpayable"}],"bytecode":{"object":"0x608060405234601c57600e6020565b6107cc61002b82396107cc90f35b6026565b60405190565b5f80fdfe60806040526004361015610013575b61030d565b61001d5f3561006c565b8063313ce567146100675780636813d78714610062578063e13121471461005d578063f7a30806146100585763feaf968c0361000e576102d4565b61021b565b6101a4565b610171565b6100f1565b60e01c90565b60405190565b5f80fd5b5f80fd5b5f91031261008a57565b61007c565b90565b60ff1690565b90565b6100af6100aa6100b49261008f565b610098565b610092565b90565b6100c1600861009b565b90565b6100cc6100b7565b90565b6100d890610092565b9052565b91906100ef905f602085019401906100cf565b565b3461012157610101366004610080565b61011d61010c6100c4565b610114610072565b918291826100dc565b0390f35b610078565b151590565b61013481610126565b0361013b57565b5f80fd5b9050359061014c8261012b565b565b9060208282031261016757610164915f0161013f565b90565b61007c565b5f0190565b3461019f5761018961018436600461014e565b61035b565b610191610072565b8061019b8161016c565b0390f35b610078565b346101d2576101bc6101b736600461014e565b6103a5565b6101c4610072565b806101ce8161016c565b0390f35b610078565b90565b6101e3816101d7565b036101ea57565b5f80fd5b905035906101fb826101da565b565b9060208282031261021657610213915f016101ee565b90565b61007c565b346102495761023361022e3660046101fd565b610512565b61023b610072565b806102458161016c565b0390f35b610078565b69ffffffffffffffffffff1690565b6102669061024e565b9052565b610273906101d7565b9052565b90565b61028390610277565b9052565b909594926102d2946102c16102cb926102b76080966102ad60a088019c5f89019061025d565b602087019061026a565b604085019061027a565b606083019061027a565b019061025d565b565b34610308576102e4366004610080565b6103046102ef6106a0565b916102fb959395610072565b95869586610287565b0390f35b610078565b5f80fd5b5f1b90565b9061032260ff91610311565b9181191691161790565b61033590610126565b90565b90565b9061035061034b6103579261032c565b610338565b8254610316565b9055565b61036690600361033b565b565b60081b90565b9061037b61ff0091610368565b9181191691161790565b9061039a6103956103a19261032c565b610338565b825461036e565b9055565b6103b0906003610385565b565b906103be5f1991610311565b9181191691161790565b6103dc6103d76103e1926101d7565b610098565b6101d7565b90565b90565b906103fc6103f7610403926103c8565b6103e4565b82546103b2565b9055565b5f1c90565b69ffffffffffffffffffff1690565b61042761042c91610407565b61040c565b90565b610439905461041b565b90565b634e487b7160e01b5f52601160045260245ffd5b6104599061024e565b69ffffffffffffffffffff81146104705760010190565b61043c565b9061048a69ffffffffffffffffffff91610311565b9181191691161790565b6104a86104a36104ad9261024e565b610098565b61024e565b90565b90565b906104c86104c36104cf92610494565b6104b0565b8254610475565b9055565b6104e76104e26104ec92610277565b610098565b610277565b90565b90565b9061050761050261050e926104d3565b6104ef565b82546103b2565b9055565b61051c905f6103e7565b61053861053161052c600161042f565b610450565b60016104b3565b6105434260026104f2565b61054e5f6003610385565b565b5f90565b5f90565b5f90565b60ff1690565b61056e61057391610407565b61055c565b90565b6105809054610562565b90565b60209181520190565b5f7f6d6f636b2d726576657274000000000000000000000000000000000000000000910152565b6105c0600b602092610583565b6105c98161058c565b0190565b6105e29060208101905f8183039101526105b3565b90565b60081c90565b6105f76105fc916105e5565b61055c565b90565b61060990546105eb565b90565b90565b61061b61062091610407565b61060c565b90565b61062d905461060f565b90565b90565b61063f61064491610407565b610630565b90565b6106519054610633565b90565b90565b61066b61066661067092610654565b610098565b61024e565b90565b61067f6106859161024e565b9161024e565b90039069ffffffffffffffffffff821161069b57565b61043c565b6106a8610550565b506106b1610554565b506106ba610558565b506106c3610558565b506106cc610550565b506106d76003610576565b610774576106e560036105ff565b610725576106f3600161042f565b6106fc5f610623565b916107076002610647565b916107126002610647565b9161071d600161042f565b919493929190565b61072f600161042f565b6107385f610623565b916107436002610647565b9161074e6002610647565b9161076c61075c600161042f565b6107666001610657565b90610673565b919493929190565b61077c610072565b62461bcd60e51b815280610792600482016105cd565b0390fdfea2646970667358221220737f9399f2316b155f7dd6b23e62c94fd708577e81a3b83de638cb49cc199df764736f6c634300081c0033","linkReferences":{}},"methodIdentifiers":{"decimals()":"313ce567","latestRoundData()":"feaf968c","setPrice(int256)":"f7a30806","setShouldRevert(bool)":"6813d787","setStale(bool)":"e1312147"},"id":52}