{
  "_format": "hh-sol-artifact-1",
  "contractName": "RWAProperty",
  "sourceName": "src/RWAProperty.sol",
  "abi": [
    {
      "inputs": [
        {
          "internalType": "address",
          "name": "_paymentToken",
          "type": "address"
        },
        {
          "internalType": "address",
          "name": "_treasury",
          "type": "address"
        }
      ],
      "stateMutability": "nonpayable",
      "type": "constructor"
    },
    {
      "inputs": [
        {
          "internalType": "address",
          "name": "sender",
          "type": "address"
        },
        {
          "internalType": "uint256",
          "name": "balance",
          "type": "uint256"
        },
        {
          "internalType": "uint256",
          "name": "needed",
          "type": "uint256"
        },
        {
          "internalType": "uint256",
          "name": "tokenId",
          "type": "uint256"
        }
      ],
      "name": "ERC1155InsufficientBalance",
      "type": "error"
    },
    {
      "inputs": [
        {
          "internalType": "address",
          "name": "approver",
          "type": "address"
        }
      ],
      "name": "ERC1155InvalidApprover",
      "type": "error"
    },
    {
      "inputs": [
        {
          "internalType": "uint256",
          "name": "idsLength",
          "type": "uint256"
        },
        {
          "internalType": "uint256",
          "name": "valuesLength",
          "type": "uint256"
        }
      ],
      "name": "ERC1155InvalidArrayLength",
      "type": "error"
    },
    {
      "inputs": [
        {
          "internalType": "address",
          "name": "operator",
          "type": "address"
        }
      ],
      "name": "ERC1155InvalidOperator",
      "type": "error"
    },
    {
      "inputs": [
        {
          "internalType": "address",
          "name": "receiver",
          "type": "address"
        }
      ],
      "name": "ERC1155InvalidReceiver",
      "type": "error"
    },
    {
      "inputs": [
        {
          "internalType": "address",
          "name": "sender",
          "type": "address"
        }
      ],
      "name": "ERC1155InvalidSender",
      "type": "error"
    },
    {
      "inputs": [
        {
          "internalType": "address",
          "name": "operator",
          "type": "address"
        },
        {
          "internalType": "address",
          "name": "owner",
          "type": "address"
        }
      ],
      "name": "ERC1155MissingApprovalForAll",
      "type": "error"
    },
    {
      "inputs": [],
      "name": "EnforcedPause",
      "type": "error"
    },
    {
      "inputs": [],
      "name": "ExpectedPause",
      "type": "error"
    },
    {
      "inputs": [
        {
          "internalType": "address",
          "name": "owner",
          "type": "address"
        }
      ],
      "name": "OwnableInvalidOwner",
      "type": "error"
    },
    {
      "inputs": [
        {
          "internalType": "address",
          "name": "account",
          "type": "address"
        }
      ],
      "name": "OwnableUnauthorizedAccount",
      "type": "error"
    },
    {
      "inputs": [],
      "name": "ReentrancyGuardReentrantCall",
      "type": "error"
    },
    {
      "inputs": [
        {
          "internalType": "address",
          "name": "token",
          "type": "address"
        }
      ],
      "name": "SafeERC20FailedOperation",
      "type": "error"
    },
    {
      "anonymous": false,
      "inputs": [
        {
          "indexed": true,
          "internalType": "address",
          "name": "account",
          "type": "address"
        },
        {
          "indexed": true,
          "internalType": "address",
          "name": "operator",
          "type": "address"
        },
        {
          "indexed": false,
          "internalType": "bool",
          "name": "approved",
          "type": "bool"
        }
      ],
      "name": "ApprovalForAll",
      "type": "event"
    },
    {
      "anonymous": false,
      "inputs": [
        {
          "indexed": true,
          "internalType": "address",
          "name": "token",
          "type": "address"
        },
        {
          "indexed": false,
          "internalType": "uint256",
          "name": "amount",
          "type": "uint256"
        }
      ],
      "name": "EmergencyWithdraw",
      "type": "event"
    },
    {
      "anonymous": false,
      "inputs": [
        {
          "indexed": true,
          "internalType": "address",
          "name": "previousOwner",
          "type": "address"
        },
        {
          "indexed": true,
          "internalType": "address",
          "name": "newOwner",
          "type": "address"
        }
      ],
      "name": "OwnershipTransferred",
      "type": "event"
    },
    {
      "anonymous": false,
      "inputs": [
        {
          "indexed": false,
          "internalType": "address",
          "name": "account",
          "type": "address"
        }
      ],
      "name": "Paused",
      "type": "event"
    },
    {
      "anonymous": false,
      "inputs": [
        {
          "indexed": true,
          "internalType": "address",
          "name": "oldToken",
          "type": "address"
        },
        {
          "indexed": true,
          "internalType": "address",
          "name": "newToken",
          "type": "address"
        }
      ],
      "name": "PaymentTokenUpdated",
      "type": "event"
    },
    {
      "anonymous": false,
      "inputs": [
        {
          "indexed": true,
          "internalType": "uint256",
          "name": "propertyId",
          "type": "uint256"
        },
        {
          "indexed": false,
          "internalType": "uint256",
          "name": "totalSupply",
          "type": "uint256"
        },
        {
          "indexed": false,
          "internalType": "uint256",
          "name": "pricePerToken",
          "type": "uint256"
        },
        {
          "indexed": false,
          "internalType": "string",
          "name": "uri",
          "type": "string"
        }
      ],
      "name": "PropertyCreated",
      "type": "event"
    },
    {
      "anonymous": false,
      "inputs": [
        {
          "indexed": true,
          "internalType": "uint256",
          "name": "propertyId",
          "type": "uint256"
        },
        {
          "indexed": false,
          "internalType": "uint256",
          "name": "pricePerToken",
          "type": "uint256"
        },
        {
          "indexed": false,
          "internalType": "bool",
          "name": "isActive",
          "type": "bool"
        }
      ],
      "name": "PropertyUpdated",
      "type": "event"
    },
    {
      "anonymous": false,
      "inputs": [
        {
          "indexed": true,
          "internalType": "uint256",
          "name": "propertyId",
          "type": "uint256"
        },
        {
          "indexed": true,
          "internalType": "address",
          "name": "to",
          "type": "address"
        },
        {
          "indexed": false,
          "internalType": "uint256",
          "name": "amount",
          "type": "uint256"
        }
      ],
      "name": "TokensMinted",
      "type": "event"
    },
    {
      "anonymous": false,
      "inputs": [
        {
          "indexed": true,
          "internalType": "uint256",
          "name": "propertyId",
          "type": "uint256"
        },
        {
          "indexed": true,
          "internalType": "address",
          "name": "buyer",
          "type": "address"
        },
        {
          "indexed": false,
          "internalType": "uint256",
          "name": "amount",
          "type": "uint256"
        },
        {
          "indexed": false,
          "internalType": "uint256",
          "name": "totalCost",
          "type": "uint256"
        }
      ],
      "name": "TokensPurchased",
      "type": "event"
    },
    {
      "anonymous": false,
      "inputs": [
        {
          "indexed": true,
          "internalType": "address",
          "name": "operator",
          "type": "address"
        },
        {
          "indexed": true,
          "internalType": "address",
          "name": "from",
          "type": "address"
        },
        {
          "indexed": true,
          "internalType": "address",
          "name": "to",
          "type": "address"
        },
        {
          "indexed": false,
          "internalType": "uint256[]",
          "name": "ids",
          "type": "uint256[]"
        },
        {
          "indexed": false,
          "internalType": "uint256[]",
          "name": "values",
          "type": "uint256[]"
        }
      ],
      "name": "TransferBatch",
      "type": "event"
    },
    {
      "anonymous": false,
      "inputs": [
        {
          "indexed": true,
          "internalType": "address",
          "name": "operator",
          "type": "address"
        },
        {
          "indexed": true,
          "internalType": "address",
          "name": "from",
          "type": "address"
        },
        {
          "indexed": true,
          "internalType": "address",
          "name": "to",
          "type": "address"
        },
        {
          "indexed": false,
          "internalType": "uint256",
          "name": "id",
          "type": "uint256"
        },
        {
          "indexed": false,
          "internalType": "uint256",
          "name": "value",
          "type": "uint256"
        }
      ],
      "name": "TransferSingle",
      "type": "event"
    },
    {
      "anonymous": false,
      "inputs": [
        {
          "indexed": true,
          "internalType": "address",
          "name": "oldTreasury",
          "type": "address"
        },
        {
          "indexed": true,
          "internalType": "address",
          "name": "newTreasury",
          "type": "address"
        }
      ],
      "name": "TreasuryUpdated",
      "type": "event"
    },
    {
      "anonymous": false,
      "inputs": [
        {
          "indexed": false,
          "internalType": "string",
          "name": "value",
          "type": "string"
        },
        {
          "indexed": true,
          "internalType": "uint256",
          "name": "id",
          "type": "uint256"
        }
      ],
      "name": "URI",
      "type": "event"
    },
    {
      "anonymous": false,
      "inputs": [
        {
          "indexed": false,
          "internalType": "address",
          "name": "account",
          "type": "address"
        }
      ],
      "name": "Unpaused",
      "type": "event"
    },
    {
      "inputs": [
        {
          "internalType": "uint256",
          "name": "_propertyId",
          "type": "uint256"
        },
        {
          "internalType": "address",
          "name": "_to",
          "type": "address"
        },
        {
          "internalType": "uint256",
          "name": "_amount",
          "type": "uint256"
        }
      ],
      "name": "adminMint",
      "outputs": [],
      "stateMutability": "nonpayable",
      "type": "function"
    },
    {
      "inputs": [
        {
          "internalType": "address",
          "name": "account",
          "type": "address"
        },
        {
          "internalType": "uint256",
          "name": "id",
          "type": "uint256"
        }
      ],
      "name": "balanceOf",
      "outputs": [
        {
          "internalType": "uint256",
          "name": "",
          "type": "uint256"
        }
      ],
      "stateMutability": "view",
      "type": "function"
    },
    {
      "inputs": [
        {
          "internalType": "address[]",
          "name": "accounts",
          "type": "address[]"
        },
        {
          "internalType": "uint256[]",
          "name": "ids",
          "type": "uint256[]"
        }
      ],
      "name": "balanceOfBatch",
      "outputs": [
        {
          "internalType": "uint256[]",
          "name": "",
          "type": "uint256[]"
        }
      ],
      "stateMutability": "view",
      "type": "function"
    },
    {
      "inputs": [
        {
          "internalType": "address",
          "name": "account",
          "type": "address"
        },
        {
          "internalType": "uint256",
          "name": "id",
          "type": "uint256"
        },
        {
          "internalType": "uint256",
          "name": "value",
          "type": "uint256"
        }
      ],
      "name": "burn",
      "outputs": [],
      "stateMutability": "nonpayable",
      "type": "function"
    },
    {
      "inputs": [
        {
          "internalType": "address",
          "name": "account",
          "type": "address"
        },
        {
          "internalType": "uint256[]",
          "name": "ids",
          "type": "uint256[]"
        },
        {
          "internalType": "uint256[]",
          "name": "values",
          "type": "uint256[]"
        }
      ],
      "name": "burnBatch",
      "outputs": [],
      "stateMutability": "nonpayable",
      "type": "function"
    },
    {
      "inputs": [
        {
          "internalType": "uint256",
          "name": "_propertyId",
          "type": "uint256"
        },
        {
          "internalType": "uint256",
          "name": "_amount",
          "type": "uint256"
        }
      ],
      "name": "calculateCost",
      "outputs": [
        {
          "internalType": "uint256",
          "name": "",
          "type": "uint256"
        }
      ],
      "stateMutability": "view",
      "type": "function"
    },
    {
      "inputs": [
        {
          "internalType": "uint256",
          "name": "_propertyId",
          "type": "uint256"
        },
        {
          "internalType": "address",
          "name": "_buyer",
          "type": "address"
        },
        {
          "internalType": "uint256",
          "name": "_amount",
          "type": "uint256"
        }
      ],
      "name": "canPurchase",
      "outputs": [
        {
          "internalType": "bool",
          "name": "",
          "type": "bool"
        },
        {
          "internalType": "string",
          "name": "",
          "type": "string"
        }
      ],
      "stateMutability": "view",
      "type": "function"
    },
    {
      "inputs": [
        {
          "internalType": "uint256",
          "name": "_totalSupply",
          "type": "uint256"
        },
        {
          "internalType": "uint256",
          "name": "_pricePerToken",
          "type": "uint256"
        },
        {
          "internalType": "string",
          "name": "_uri",
          "type": "string"
        }
      ],
      "name": "createProperty",
      "outputs": [
        {
          "internalType": "uint256",
          "name": "",
          "type": "uint256"
        }
      ],
      "stateMutability": "nonpayable",
      "type": "function"
    },
    {
      "inputs": [
        {
          "internalType": "address",
          "name": "_token",
          "type": "address"
        },
        {
          "internalType": "uint256",
          "name": "_amount",
          "type": "uint256"
        }
      ],
      "name": "emergencyWithdraw",
      "outputs": [],
      "stateMutability": "nonpayable",
      "type": "function"
    },
    {
      "inputs": [
        {
          "internalType": "uint256",
          "name": "id",
          "type": "uint256"
        }
      ],
      "name": "exists",
      "outputs": [
        {
          "internalType": "bool",
          "name": "",
          "type": "bool"
        }
      ],
      "stateMutability": "view",
      "type": "function"
    },
    {
      "inputs": [
        {
          "internalType": "uint256",
          "name": "_propertyId",
          "type": "uint256"
        }
      ],
      "name": "getProperty",
      "outputs": [
        {
          "internalType": "uint256",
          "name": "id",
          "type": "uint256"
        },
        {
          "internalType": "string",
          "name": "propertyUri",
          "type": "string"
        },
        {
          "internalType": "uint256",
          "name": "totalSupply",
          "type": "uint256"
        },
        {
          "internalType": "uint256",
          "name": "availableSupply",
          "type": "uint256"
        },
        {
          "internalType": "uint256",
          "name": "pricePerToken",
          "type": "uint256"
        },
        {
          "internalType": "bool",
          "name": "isActive",
          "type": "bool"
        },
        {
          "internalType": "bool",
          "name": "exists",
          "type": "bool"
        }
      ],
      "stateMutability": "view",
      "type": "function"
    },
    {
      "inputs": [
        {
          "internalType": "address",
          "name": "account",
          "type": "address"
        },
        {
          "internalType": "address",
          "name": "operator",
          "type": "address"
        }
      ],
      "name": "isApprovedForAll",
      "outputs": [
        {
          "internalType": "bool",
          "name": "",
          "type": "bool"
        }
      ],
      "stateMutability": "view",
      "type": "function"
    },
    {
      "inputs": [],
      "name": "name",
      "outputs": [
        {
          "internalType": "string",
          "name": "",
          "type": "string"
        }
      ],
      "stateMutability": "view",
      "type": "function"
    },
    {
      "inputs": [],
      "name": "owner",
      "outputs": [
        {
          "internalType": "address",
          "name": "",
          "type": "address"
        }
      ],
      "stateMutability": "view",
      "type": "function"
    },
    {
      "inputs": [],
      "name": "pause",
      "outputs": [],
      "stateMutability": "nonpayable",
      "type": "function"
    },
    {
      "inputs": [],
      "name": "paused",
      "outputs": [
        {
          "internalType": "bool",
          "name": "",
          "type": "bool"
        }
      ],
      "stateMutability": "view",
      "type": "function"
    },
    {
      "inputs": [],
      "name": "paymentToken",
      "outputs": [
        {
          "internalType": "contract IERC20",
          "name": "",
          "type": "address"
        }
      ],
      "stateMutability": "view",
      "type": "function"
    },
    {
      "inputs": [
        {
          "internalType": "uint256",
          "name": "",
          "type": "uint256"
        }
      ],
      "name": "properties",
      "outputs": [
        {
          "internalType": "uint256",
          "name": "id",
          "type": "uint256"
        },
        {
          "internalType": "string",
          "name": "uri",
          "type": "string"
        },
        {
          "internalType": "uint256",
          "name": "totalSupply",
          "type": "uint256"
        },
        {
          "internalType": "uint256",
          "name": "availableSupply",
          "type": "uint256"
        },
        {
          "internalType": "uint256",
          "name": "pricePerToken",
          "type": "uint256"
        },
        {
          "internalType": "bool",
          "name": "isActive",
          "type": "bool"
        },
        {
          "internalType": "bool",
          "name": "exists",
          "type": "bool"
        }
      ],
      "stateMutability": "view",
      "type": "function"
    },
    {
      "inputs": [],
      "name": "propertyCount",
      "outputs": [
        {
          "internalType": "uint256",
          "name": "",
          "type": "uint256"
        }
      ],
      "stateMutability": "view",
      "type": "function"
    },
    {
      "inputs": [
        {
          "internalType": "uint256",
          "name": "_propertyId",
          "type": "uint256"
        },
        {
          "internalType": "uint256",
          "name": "_amount",
          "type": "uint256"
        }
      ],
      "name": "purchaseTokens",
      "outputs": [],
      "stateMutability": "nonpayable",
      "type": "function"
    },
    {
      "inputs": [],
      "name": "renounceOwnership",
      "outputs": [],
      "stateMutability": "nonpayable",
      "type": "function"
    },
    {
      "inputs": [
        {
          "internalType": "address",
          "name": "from",
          "type": "address"
        },
        {
          "internalType": "address",
          "name": "to",
          "type": "address"
        },
        {
          "internalType": "uint256[]",
          "name": "ids",
          "type": "uint256[]"
        },
        {
          "internalType": "uint256[]",
          "name": "values",
          "type": "uint256[]"
        },
        {
          "internalType": "bytes",
          "name": "data",
          "type": "bytes"
        }
      ],
      "name": "safeBatchTransferFrom",
      "outputs": [],
      "stateMutability": "nonpayable",
      "type": "function"
    },
    {
      "inputs": [
        {
          "internalType": "address",
          "name": "from",
          "type": "address"
        },
        {
          "internalType": "address",
          "name": "to",
          "type": "address"
        },
        {
          "internalType": "uint256",
          "name": "id",
          "type": "uint256"
        },
        {
          "internalType": "uint256",
          "name": "value",
          "type": "uint256"
        },
        {
          "internalType": "bytes",
          "name": "data",
          "type": "bytes"
        }
      ],
      "name": "safeTransferFrom",
      "outputs": [],
      "stateMutability": "nonpayable",
      "type": "function"
    },
    {
      "inputs": [
        {
          "internalType": "address",
          "name": "operator",
          "type": "address"
        },
        {
          "internalType": "bool",
          "name": "approved",
          "type": "bool"
        }
      ],
      "name": "setApprovalForAll",
      "outputs": [],
      "stateMutability": "nonpayable",
      "type": "function"
    },
    {
      "inputs": [
        {
          "internalType": "address",
          "name": "_paymentToken",
          "type": "address"
        }
      ],
      "name": "setPaymentToken",
      "outputs": [],
      "stateMutability": "nonpayable",
      "type": "function"
    },
    {
      "inputs": [
        {
          "internalType": "uint256",
          "name": "_propertyId",
          "type": "uint256"
        },
        {
          "internalType": "string",
          "name": "_uri",
          "type": "string"
        }
      ],
      "name": "setPropertyURI",
      "outputs": [],
      "stateMutability": "nonpayable",
      "type": "function"
    },
    {
      "inputs": [
        {
          "internalType": "address",
          "name": "_treasury",
          "type": "address"
        }
      ],
      "name": "setTreasury",
      "outputs": [],
      "stateMutability": "nonpayable",
      "type": "function"
    },
    {
      "inputs": [
        {
          "internalType": "bytes4",
          "name": "interfaceId",
          "type": "bytes4"
        }
      ],
      "name": "supportsInterface",
      "outputs": [
        {
          "internalType": "bool",
          "name": "",
          "type": "bool"
        }
      ],
      "stateMutability": "view",
      "type": "function"
    },
    {
      "inputs": [],
      "name": "symbol",
      "outputs": [
        {
          "internalType": "string",
          "name": "",
          "type": "string"
        }
      ],
      "stateMutability": "view",
      "type": "function"
    },
    {
      "inputs": [],
      "name": "totalSupply",
      "outputs": [
        {
          "internalType": "uint256",
          "name": "",
          "type": "uint256"
        }
      ],
      "stateMutability": "view",
      "type": "function"
    },
    {
      "inputs": [
        {
          "internalType": "uint256",
          "name": "id",
          "type": "uint256"
        }
      ],
      "name": "totalSupply",
      "outputs": [
        {
          "internalType": "uint256",
          "name": "",
          "type": "uint256"
        }
      ],
      "stateMutability": "view",
      "type": "function"
    },
    {
      "inputs": [
        {
          "internalType": "address",
          "name": "newOwner",
          "type": "address"
        }
      ],
      "name": "transferOwnership",
      "outputs": [],
      "stateMutability": "nonpayable",
      "type": "function"
    },
    {
      "inputs": [],
      "name": "treasury",
      "outputs": [
        {
          "internalType": "address",
          "name": "",
          "type": "address"
        }
      ],
      "stateMutability": "view",
      "type": "function"
    },
    {
      "inputs": [],
      "name": "unpause",
      "outputs": [],
      "stateMutability": "nonpayable",
      "type": "function"
    },
    {
      "inputs": [
        {
          "internalType": "uint256",
          "name": "_propertyId",
          "type": "uint256"
        },
        {
          "internalType": "uint256",
          "name": "_pricePerToken",
          "type": "uint256"
        },
        {
          "internalType": "bool",
          "name": "_isActive",
          "type": "bool"
        }
      ],
      "name": "updateProperty",
      "outputs": [],
      "stateMutability": "nonpayable",
      "type": "function"
    },
    {
      "inputs": [
        {
          "internalType": "uint256",
          "name": "_tokenId",
          "type": "uint256"
        }
      ],
      "name": "uri",
      "outputs": [
        {
          "internalType": "string",
          "name": "",
          "type": "string"
        }
      ],
      "stateMutability": "view",
      "type": "function"
    }
  ],
  "bytecode": "0x60c0604052601360809081527f5257412050726f706572747920546f6b656e730000000000000000000000000060a0526007906200003e9082620002d6565b506040805180820190915260048152630525741560e41b6020820152600890620000699082620002d6565b503480156200007757600080fd5b50604051620030ff380380620030ff8339810160408190526200009a91620003bf565b6040805160208101909152600081523390620000b681620001cd565b506001600160a01b038116620000e757604051631e4fbdf760e01b8152600060048201526024015b60405180910390fd5b620000f281620001df565b5060016006556001600160a01b038216620001505760405162461bcd60e51b815260206004820152601560248201527f496e76616c6964207061796d656e7420746f6b656e00000000000000000000006044820152606401620000de565b6001600160a01b0381166200019b5760405162461bcd60e51b815260206004820152601060248201526f496e76616c696420747265617375727960801b6044820152606401620000de565b600980546001600160a01b039384166001600160a01b031991821617909155600c8054929093169116179055620003f7565b6002620001db8282620002d6565b5050565b600580546001600160a01b038381166001600160a01b0319831681179093556040519116919082907f8be0079c531659141344cd1fd0a4f28419497f9722a3daafe3b4186f6b6457e090600090a35050565b634e487b7160e01b600052604160045260246000fd5b600181811c908216806200025c57607f821691505b6020821081036200027d57634e487b7160e01b600052602260045260246000fd5b50919050565b601f821115620002d157600081815260208120601f850160051c81016020861015620002ac5750805b601f850160051c820191505b81811015620002cd57828155600101620002b8565b5050505b505050565b81516001600160401b03811115620002f257620002f262000231565b6200030a8162000303845462000247565b8462000283565b602080601f831160018114620003425760008415620003295750858301515b600019600386901b1c1916600185901b178555620002cd565b600085815260208120601f198616915b82811015620003735788860151825594840194600190910190840162000352565b5085821015620003925787850151600019600388901b60f8161c191681555b5050505050600190811b01905550565b80516001600160a01b0381168114620003ba57600080fd5b919050565b60008060408385031215620003d357600080fd5b620003de83620003a2565b9150620003ee60208401620003a2565b90509250929050565b612cf880620004076000396000f3fe608060405234801561001057600080fd5b506004361061021b5760003560e01c8063715018a611610125578063c361a335116100ad578063f0f442601161007c578063f0f44260146104b2578063f242432a146104c5578063f2fde38b146104d8578063f5298aca146104eb578063f7b10808146104fe57600080fd5b8063c361a33514610470578063ce39469614610479578063e985e9c51461048c578063eb46a0421461049f57600080fd5b806395ccea67116100f457806395ccea671461040f57806395d89b4114610422578063a22cb4651461042a578063bd85b0391461043d578063c317b5f01461045d57600080fd5b8063715018a6146103db5780638456cb59146103e35780638bf0af3e146103eb5780638da5cb5b146103fe57600080fd5b80633f4ba83a116101a85780635c975abb116101775780635c975abb1461037d57806361d027b31461038f57806367291c00146103a25780636a326ab1146103b55780636b20c454146103c857600080fd5b80633f4ba83a146103125780634e1273f41461031a5780634e964f8d1461033a5780634f558e791461035b57600080fd5b80631644a7b1116101ef5780631644a7b11461029157806318160ddd146102a45780632eb2c2d6146102ac5780633013ce29146102c157806332665ffb146102ec57600080fd5b8062fdd58e1461022057806301ffc9a71461024657806306fdde03146102695780630e89341c1461027e575b600080fd5b61023361022e3660046122cf565b610511565b6040519081526020015b60405180910390f35b61025961025436600461230f565b610539565b604051901515815260200161023d565b610271610589565b60405161023d9190612372565b61027161028c366004612385565b610617565b61023361029f366004612455565b6106f7565b600454610233565b6102bf6102ba366004612534565b6108b0565b005b6009546102d4906001600160a01b031681565b6040516001600160a01b03909116815260200161023d565b6102ff6102fa366004612385565b610917565b60405161023d97969594939291906125de565b6102bf610a62565b61032d610328366004612625565b610a74565b60405161023d9190612720565b61034d610348366004612733565b610b49565b60405161023d929190612768565b610259610369366004612385565b600090815260036020526040902054151590565b600554600160a01b900460ff16610259565b600c546102d4906001600160a01b031681565b6102bf6103b0366004612733565b610ef6565b6102bf6103c336600461278b565b61108c565b6102bf6103d63660046127a6565b61112c565b6102bf611190565b6102bf6111a2565b6102bf6103f9366004612810565b6111b2565b6005546001600160a01b03166102d4565b6102bf61041d3660046122cf565b611389565b6102716113fe565b6102bf610438366004612842565b61140b565b61023361044b366004612385565b60009081526003602052604090205490565b6102bf61046b366004612875565b611416565b610233600b5481565b610233610487366004612810565b611488565b61025961049a3660046128b2565b6114e1565b6102bf6104ad3660046128dc565b61150f565b6102bf6104c036600461278b565b6115b6565b6102bf6104d3366004612911565b611659565b6102bf6104e636600461278b565b6116b8565b6102bf6104f9366004612976565b6116f6565b6102ff61050c366004612385565b61172c565b6000818152602081815260408083206001600160a01b03861684529091529020545b92915050565b60006001600160e01b03198216636cdb3d1360e11b148061056a57506001600160e01b031982166303a24d0760e21b145b8061053357506301ffc9a760e01b6001600160e01b0319831614610533565b60078054610596906129a9565b80601f01602080910402602001604051908101604052809291908181526020018280546105c2906129a9565b801561060f5780601f106105e45761010080835404028352916020019161060f565b820191906000526020600020905b8154815290600101906020018083116105f257829003601f168201915b505050505081565b6000818152600a6020526040902060050154606090610100900460ff166106595760405162461bcd60e51b8152600401610650906129e3565b60405180910390fd5b6000828152600d602052604090208054610672906129a9565b80601f016020809104026020016040519081016040528092919081815260200182805461069e906129a9565b80156106eb5780601f106106c0576101008083540402835291602001916106eb565b820191906000526020600020905b8154815290600101906020018083116106ce57829003601f168201915b50505050509050919050565b60006107016117f6565b600084116107465760405162461bcd60e51b81526020600482015260126024820152710537570706c79206d757374206265203e20360741b6044820152606401610650565b6000831161078a5760405162461bcd60e51b815260206004820152601160248201527005072696365206d757374206265203e203607c1b6044820152606401610650565b600b805490600061079a83612a2a565b9091555050600b546040805160e08101825282815260208082018681528284018990526060830189905260808301889052600160a0840181905260c084018190526000868152600a9093529390912082518155905191929091908201906108019082612a89565b506040828101516002830155606083015160038301556080830151600483015560a08301516005909201805460c09094015115156101000261ff00199315159390931661ffff1990941693909317919091179091556000828152600d6020522061086b8482612a89565b50807f32dad40c1ee3c2676f99f2ecb78d717980f06516aca48e873476d77d06c657268686866040516108a093929190612b49565b60405180910390a2949350505050565b336001600160a01b03861681148015906108d157506108cf86826114e1565b155b156109025760405163711bec9160e11b81526001600160a01b03808316600483015287166024820152604401610650565b61090f8686868686611823565b505050505050565b60006060600080600080600080600a60008a81526020019081526020016000206040518060e00160405290816000820154815260200160018201805461095c906129a9565b80601f0160208091040260200160405190810160405280929190818152602001828054610988906129a9565b80156109d55780601f106109aa576101008083540402835291602001916109d5565b820191906000526020600020905b8154815290600101906020018083116109b857829003601f168201915b505050918352505060028201546020808301919091526003830154604080840191909152600484015460608085019190915260059094015460ff808216151560808087019190915261010090920416151560a0948501528551928601519186015194860151908601519386015160c090960151929f919e50939c50929a5090985091965090945092505050565b610a6a6117f6565b610a7261188a565b565b60608151835114610aa55781518351604051635b05999160e01b815260048101929092526024820152604401610650565b6000835167ffffffffffffffff811115610ac157610ac161239e565b604051908082528060200260200182016040528015610aea578160200160208202803683370190505b50905060005b8451811015610b4157602080820286010151610b1490602080840287010151610511565b828281518110610b2657610b26612b71565b6020908102919091010152610b3a81612a2a565b9050610af0565b509392505050565b600060606000600a60008781526020019081526020016000206040518060e001604052908160008201548152602001600182018054610b87906129a9565b80601f0160208091040260200160405190810160405280929190818152602001828054610bb3906129a9565b8015610c005780601f10610bd557610100808354040283529160200191610c00565b820191906000526020600020905b815481529060010190602001808311610be357829003601f168201915b505050918352505060028201546020820152600382015460408201526004820154606082015260059091015460ff8082161515608084015261010090910416151560a09091015260c0810151909150610c8c575050604080518082019091526017815276141c9bdc195c9d1e48191bd95cc81b9bdd08195e1a5cdd604a1b602082015260009150610eee565b8060a00151610cca57505060408051808201909152601381527250726f7065727479206e6f742061637469766560681b602082015260009150610eee565b83600003610d065750506040805180820190915260128152710416d6f756e74206d757374206265203e20360741b602082015260009150610eee565b8060600151841115610d47575050604080518082019091526013815272496e73756666696369656e7420737570706c7960681b602082015260009150610eee565b6000816080015185610d599190612b87565b6009546040516370a0823160e01b81526001600160a01b038981166004830152929350600092909116906370a0823190602401602060405180830381865afa158015610da9573d6000803e3d6000fd5b505050506040513d601f19601f82011682018060405250810190610dcd9190612b9e565b600954604051636eb1769f60e11b81526001600160a01b038a811660048301523060248301529293506000929091169063dd62ed3e90604401602060405180830381865afa158015610e23573d6000803e3d6000fd5b505050506040513d601f19601f82011682018060405250810190610e479190612b9e565b905082821015610e8d57600060405180604001604052806014815260200173496e73756666696369656e742062616c616e636560601b8152509550955050505050610eee565b82811015610ed357600060405180604001604052806016815260200175496e73756666696369656e7420616c6c6f77616e636560501b8152509550955050505050610eee565b60016040518060200160405280600081525095509550505050505b935093915050565b610efe6117f6565b6000838152600a602052604090206005810154610100900460ff16610f355760405162461bcd60e51b8152600401610650906129e3565b60008211610f7a5760405162461bcd60e51b81526020600482015260126024820152710416d6f756e74206d757374206265203e20360741b6044820152606401610650565b8060030154821115610fc45760405162461bcd60e51b8152602060048201526013602482015272496e73756666696369656e7420737570706c7960681b6044820152606401610650565b6001600160a01b03831661100c5760405162461bcd60e51b815260206004820152600f60248201526e496e76616c6964206164647265737360881b6044820152606401610650565b818160030160008282546110209190612bb7565b92505081905550611042838584604051806020016040528060008152506118df565b826001600160a01b0316847f5c8e94c72da12a6d6a1213edafd788896df5fd2d6527a9adeb11f8e5d0be1c4c8460405161107e91815260200190565b60405180910390a350505050565b6110946117f6565b6001600160a01b0381166110da5760405162461bcd60e51b815260206004820152600d60248201526c24b73b30b634b2103a37b5b2b760991b6044820152606401610650565b600980546001600160a01b038381166001600160a01b0319831681179093556040519116919082907f5efdfedf5aef119c431263f0656093045dffdf44b3d8f1b0f158dc295c3a0f8e90600090a35050565b6001600160a01b038316331480159061114c575061114a83336114e1565b155b1561118057335b60405163711bec9160e11b81526001600160a01b0391821660048201529084166024820152604401610650565b61118b83838361193c565b505050565b6111986117f6565b610a726000611982565b6111aa6117f6565b610a726119d4565b6111ba611a17565b6111c2611a42565b6000828152600a602052604090206005810154610100900460ff166111f95760405162461bcd60e51b8152600401610650906129e3565b600581015460ff166112435760405162461bcd60e51b815260206004820152601360248201527250726f7065727479206e6f742061637469766560681b6044820152606401610650565b600082116112885760405162461bcd60e51b81526020600482015260126024820152710416d6f756e74206d757374206265203e20360741b6044820152606401610650565b80600301548211156112d25760405162461bcd60e51b8152602060048201526013602482015272496e73756666696369656e7420737570706c7960681b6044820152606401610650565b60008160040154836112e49190612b87565b600c54600954919250611306916001600160a01b039081169133911684611a6c565b8282600301600082825461131a9190612bb7565b9250508190555061133c338585604051806020016040528060008152506118df565b6040805184815260208101839052339186917fe8d7e55108ae7ddb60173461d2950c7a8e22a7ac7f442825564fe84c8c6f9a38910160405180910390a350506113856001600655565b5050565b6113916117f6565b6113b76113a66005546001600160a01b031690565b6001600160a01b0384169083611ad9565b816001600160a01b03167f5fafa99d0643513820be26656b45130b01e1c03062e1266bf36f88cbd3bd9695826040516113f291815260200190565b60405180910390a25050565b60088054610596906129a9565b611385338383611b0a565b61141e6117f6565b6000828152600a6020526040902060050154610100900460ff166114545760405162461bcd60e51b8152600401610650906129e3565b6000828152600d6020526040902061146c8282612a89565b506000828152600a6020526040902060010161118b8282612a89565b6000828152600a6020526040812060050154610100900460ff166114be5760405162461bcd60e51b8152600401610650906129e3565b6000838152600a60205260409020600401546114da9083612b87565b9392505050565b6001600160a01b03918216600090815260016020908152604080832093909416825291909152205460ff1690565b6115176117f6565b6000838152600a602052604090206005810154610100900460ff1661154e5760405162461bcd60e51b8152600401610650906129e3565b821561155c57600481018390555b60058101805460ff1916831515908117909155600482015460408051918252602082019290925285917f0ebe5c59e5dc700dcb789c33b0e9bd5e015ef98b751dfa5b083e9d4c520b89e4910160405180910390a250505050565b6115be6117f6565b6001600160a01b0381166116075760405162461bcd60e51b815260206004820152601060248201526f496e76616c696420747265617375727960801b6044820152606401610650565b600c80546001600160a01b038381166001600160a01b0319831681179093556040519116919082907f4ab5be82436d353e61ca18726e984e561f5c1cc7c6d38b29d2553c790434705a90600090a35050565b336001600160a01b038616811480159061167a575061167886826114e1565b155b156116ab5760405163711bec9160e11b81526001600160a01b03808316600483015287166024820152604401610650565b61090f8686868686611ba0565b6116c06117f6565b6001600160a01b0381166116ea57604051631e4fbdf760e01b815260006004820152602401610650565b6116f381611982565b50565b6001600160a01b0383163314801590611716575061171483336114e1565b155b156117215733611153565b61118b838383611c2e565b600a602052600090815260409020805460018201805491929161174e906129a9565b80601f016020809104026020016040519081016040528092919081815260200182805461177a906129a9565b80156117c75780601f1061179c576101008083540402835291602001916117c7565b820191906000526020600020905b8154815290600101906020018083116117aa57829003601f168201915b505050506002830154600384015460048501546005909501549394919390925060ff8082169161010090041687565b6005546001600160a01b03163314610a725760405163118cdaa760e01b8152336004820152602401610650565b6001600160a01b03841661184d57604051632bfa23e760e11b815260006004820152602401610650565b6001600160a01b03851661187657604051626a0d4560e21b815260006004820152602401610650565b6118838585858585611c92565b5050505050565b611892611ce5565b6005805460ff60a01b191690557f5db9ee0a495bf2e6ff9c91a7834c1ba4fdd244a5e8aa4e537bd38aeae4b073aa335b6040516001600160a01b03909116815260200160405180910390a1565b6001600160a01b03841661190957604051632bfa23e760e11b815260006004820152602401610650565b6040805160018082526020820186905281830190815260608201859052608082019092529061090f600087848487611c92565b6001600160a01b03831661196557604051626a0d4560e21b815260006004820152602401610650565b61118b836000848460405180602001604052806000815250611c92565b600580546001600160a01b038381166001600160a01b0319831681179093556040519116919082907f8be0079c531659141344cd1fd0a4f28419497f9722a3daafe3b4186f6b6457e090600090a35050565b6119dc611a17565b6005805460ff60a01b1916600160a01b1790557f62e78cea01bee320cd4e420270b5ea74000d11b0c9f74754ebdbfc544b05a2586118c23390565b600554600160a01b900460ff1615610a725760405163d93c066560e01b815260040160405180910390fd5b600260065403611a6557604051633ee5aeb560e01b815260040160405180910390fd5b6002600655565b6040516001600160a01b038481166024830152838116604483015260648201839052611ad39186918216906323b872dd906084015b604051602081830303815290604052915060e01b6020820180516001600160e01b038381831617835250505050611d0f565b50505050565b6040516001600160a01b0383811660248301526044820183905261118b91859182169063a9059cbb90606401611aa1565b6001600160a01b038216611b335760405162ced3e160e81b815260006004820152602401610650565b6001600160a01b03838116600081815260016020908152604080832094871680845294825291829020805460ff191686151590811790915591519182527f17307eab39ab6107e8899845ad3d59bd9653f200f220920489ca2b5937696c31910160405180910390a3505050565b6001600160a01b038416611bca57604051632bfa23e760e11b815260006004820152602401610650565b6001600160a01b038516611bf357604051626a0d4560e21b815260006004820152602401610650565b60408051600180825260208201869052818301908152606082018590526080820190925290611c258787848487611c92565b50505050505050565b6001600160a01b038316611c5757604051626a0d4560e21b815260006004820152602401610650565b604080516001808252602082018590528183019081526060820184905260a08201909252600060808201818152919291611883918791859085905b611c9e85858585611d80565b6001600160a01b038416156118835782513390600103611cd75760208481015190840151611cd0838989858589611d8c565b505061090f565b61090f818787878787611eb0565b600554600160a01b900460ff16610a7257604051638dfc202b60e01b815260040160405180910390fd5b600080602060008451602086016000885af180611d32576040513d6000823e3d81fd5b50506000513d91508115611d4a578060011415611d57565b6001600160a01b0384163b155b15611ad357604051635274afe760e01b81526001600160a01b0385166004820152602401610650565b611ad384848484611f99565b6001600160a01b0384163b1561090f5760405163f23a6e6160e01b81526001600160a01b0385169063f23a6e6190611dd09089908990889088908890600401612bca565b6020604051808303816000875af1925050508015611e0b575060408051601f3d908101601f19168201909252611e0891810190612c0f565b60015b611e74573d808015611e39576040519150601f19603f3d011682016040523d82523d6000602084013e611e3e565b606091505b508051600003611e6c57604051632bfa23e760e11b81526001600160a01b0386166004820152602401610650565b805160208201fd5b6001600160e01b0319811663f23a6e6160e01b14611c2557604051632bfa23e760e11b81526001600160a01b0386166004820152602401610650565b6001600160a01b0384163b1561090f5760405163bc197c8160e01b81526001600160a01b0385169063bc197c8190611ef49089908990889088908890600401612c2c565b6020604051808303816000875af1925050508015611f2f575060408051601f3d908101601f19168201909252611f2c91810190612c0f565b60015b611f5d573d808015611e39576040519150601f19603f3d011682016040523d82523d6000602084013e611e3e565b6001600160e01b0319811663bc197c8160e01b14611c2557604051632bfa23e760e11b81526001600160a01b0386166004820152602401610650565b611fa584848484612096565b6001600160a01b03841661202e576000805b83518110156120145760208181028481018201519086018201516000908152600390925260408220805491928392611ff0908490612c8a565b9091555061200090508184612c8a565b9250508061200d90612a2a565b9050611fb7565b5080600460008282546120279190612c8a565b9091555050505b6001600160a01b038316611ad3576000805b835181101561208557602081810284810182015190860182015160009081526003909252604090912080548290039055919091019061207e81612a2a565b9050612040565b506004805491909103905550505050565b80518251146120c55781518151604051635b05999160e01b815260048101929092526024820152604401610650565b3360005b83518110156121d4576020818102858101820151908501909101516001600160a01b0388161561217c576000828152602081815260408083206001600160a01b038c16845290915290205481811015612155576040516303dee4c560e01b81526001600160a01b038a166004820152602481018290526044810183905260648101849052608401610650565b6000838152602081815260408083206001600160a01b038d16845290915290209082900390555b6001600160a01b038716156121c1576000828152602081815260408083206001600160a01b038b168452909152812080548392906121bb908490612c8a565b90915550505b5050806121cd90612a2a565b90506120c9565b5082516001036122555760208301516000906020840151909150856001600160a01b0316876001600160a01b0316846001600160a01b03167fc3d58168c5ae7397731d063d5bbf3d657854427343f4c083240f7aacaa2d0f628585604051612246929190918252602082015260400190565b60405180910390a45050611883565b836001600160a01b0316856001600160a01b0316826001600160a01b03167f4a39dc06d4c0dbc64b70af90fd698a233a518aa5d07e595d983b8c0526c8f7fb86866040516122a4929190612c9d565b60405180910390a45050505050565b80356001600160a01b03811681146122ca57600080fd5b919050565b600080604083850312156122e257600080fd5b6122eb836122b3565b946020939093013593505050565b6001600160e01b0319811681146116f357600080fd5b60006020828403121561232157600080fd5b81356114da816122f9565b6000815180845260005b8181101561235257602081850181015186830182015201612336565b506000602082860101526020601f19601f83011685010191505092915050565b6020815260006114da602083018461232c565b60006020828403121561239757600080fd5b5035919050565b634e487b7160e01b600052604160045260246000fd5b604051601f8201601f1916810167ffffffffffffffff811182821017156123dd576123dd61239e565b604052919050565b600082601f8301126123f657600080fd5b813567ffffffffffffffff8111156124105761241061239e565b612423601f8201601f19166020016123b4565b81815284602083860101111561243857600080fd5b816020850160208301376000918101602001919091529392505050565b60008060006060848603121561246a57600080fd5b8335925060208401359150604084013567ffffffffffffffff81111561248f57600080fd5b61249b868287016123e5565b9150509250925092565b600067ffffffffffffffff8211156124bf576124bf61239e565b5060051b60200190565b600082601f8301126124da57600080fd5b813560206124ef6124ea836124a5565b6123b4565b82815260059290921b8401810191818101908684111561250e57600080fd5b8286015b848110156125295780358352918301918301612512565b509695505050505050565b600080600080600060a0868803121561254c57600080fd5b612555866122b3565b9450612563602087016122b3565b9350604086013567ffffffffffffffff8082111561258057600080fd5b61258c89838a016124c9565b945060608801359150808211156125a257600080fd5b6125ae89838a016124c9565b935060808801359150808211156125c457600080fd5b506125d1888289016123e5565b9150509295509295909350565b87815260e0602082015260006125f760e083018961232c565b60408301979097525060608101949094526080840192909252151560a0830152151560c09091015292915050565b6000806040838503121561263857600080fd5b823567ffffffffffffffff8082111561265057600080fd5b818501915085601f83011261266457600080fd5b813560206126746124ea836124a5565b82815260059290921b8401810191818101908984111561269357600080fd5b948201945b838610156126b8576126a9866122b3565b82529482019490820190612698565b965050860135925050808211156126ce57600080fd5b506126db858286016124c9565b9150509250929050565b600081518084526020808501945080840160005b83811015612715578151875295820195908201906001016126f9565b509495945050505050565b6020815260006114da60208301846126e5565b60008060006060848603121561274857600080fd5b83359250612758602085016122b3565b9150604084013590509250925092565b8215158152604060208201526000612783604083018461232c565b949350505050565b60006020828403121561279d57600080fd5b6114da826122b3565b6000806000606084860312156127bb57600080fd5b6127c4846122b3565b9250602084013567ffffffffffffffff808211156127e157600080fd5b6127ed878388016124c9565b9350604086013591508082111561280357600080fd5b5061249b868287016124c9565b6000806040838503121561282357600080fd5b50508035926020909101359150565b803580151581146122ca57600080fd5b6000806040838503121561285557600080fd5b61285e836122b3565b915061286c60208401612832565b90509250929050565b6000806040838503121561288857600080fd5b82359150602083013567ffffffffffffffff8111156128a657600080fd5b6126db858286016123e5565b600080604083850312156128c557600080fd5b6128ce836122b3565b915061286c602084016122b3565b6000806000606084860312156128f157600080fd5b833592506020840135915061290860408501612832565b90509250925092565b600080600080600060a0868803121561292957600080fd5b612932866122b3565b9450612940602087016122b3565b93506040860135925060608601359150608086013567ffffffffffffffff81111561296a57600080fd5b6125d1888289016123e5565b60008060006060848603121561298b57600080fd5b612994846122b3565b95602085013595506040909401359392505050565b600181811c908216806129bd57607f821691505b6020821081036129dd57634e487b7160e01b600052602260045260246000fd5b50919050565b602080825260179082015276141c9bdc195c9d1e48191bd95cc81b9bdd08195e1a5cdd604a1b604082015260600190565b634e487b7160e01b600052601160045260246000fd5b600060018201612a3c57612a3c612a14565b5060010190565b601f82111561118b57600081815260208120601f850160051c81016020861015612a6a5750805b601f850160051c820191505b8181101561090f57828155600101612a76565b815167ffffffffffffffff811115612aa357612aa361239e565b612ab781612ab184546129a9565b84612a43565b602080601f831160018114612aec5760008415612ad45750858301515b600019600386901b1c1916600185901b17855561090f565b600085815260208120601f198616915b82811015612b1b57888601518255948401946001909101908401612afc565b5085821015612b395787850151600019600388901b60f8161c191681555b5050505050600190811b01905550565b838152826020820152606060408201526000612b68606083018461232c565b95945050505050565b634e487b7160e01b600052603260045260246000fd5b808202811582820484141761053357610533612a14565b600060208284031215612bb057600080fd5b5051919050565b8181038181111561053357610533612a14565b6001600160a01b03868116825285166020820152604081018490526060810183905260a060808201819052600090612c049083018461232c565b979650505050505050565b600060208284031215612c2157600080fd5b81516114da816122f9565b6001600160a01b0386811682528516602082015260a060408201819052600090612c58908301866126e5565b8281036060840152612c6a81866126e5565b90508281036080840152612c7e818561232c565b98975050505050505050565b8082018082111561053357610533612a14565b604081526000612cb060408301856126e5565b8281036020840152612b6881856126e556fea2646970667358221220cc55b38bb5184fe020a5fec2dc7e0e622df67a7527ad3a0b79a59573ecf0206f64736f6c63430008140033",
  "linkReferences": {},
  "deployedLinkReferences": {}
}